{
  "_format": "hh-sol-artifact-1",
  "contractName": "SimplifiedZKVerifierV2",
  "sourceName": "contracts/SimplifiedZKVerifierV2.sol",
  "abi": [
    {
      "anonymous": false,
      "inputs": [
        {
          "indexed": true,
          "internalType": "bytes32",
          "name": "proofId",
          "type": "bytes32"
        },
        {
          "indexed": true,
          "internalType": "address",
          "name": "verifier",
          "type": "address"
        },
        {
          "indexed": false,
          "internalType": "bool",
          "name": "isValid",
          "type": "bool"
        },
        {
          "indexed": false,
          "internalType": "uint256",
          "name": "timestamp",
          "type": "uint256"
        }
      ],
      "name": "ProofVerified",
      "type": "event"
    },
    {
      "inputs": [],
      "name": "getProofTypes",
      "outputs": [
        {
          "internalType": "string[3]",
          "name": "",
          "type": "string[3]"
        }
      ],
      "stateMutability": "pure",
      "type": "function"
    },
    {
      "inputs": [
        {
          "internalType": "address",
          "name": "user",
          "type": "address"
        },
        {
          "internalType": "uint256",
          "name": "proofType",
          "type": "uint256"
        }
      ],
      "name": "isUserVerified",
      "outputs": [
        {
          "internalType": "bool",
          "name": "",
          "type": "bool"
        }
      ],
      "stateMutability": "view",
      "type": "function"
    },
    {
      "inputs": [
        {
          "internalType": "address",
          "name": "",
          "type": "address"
        },
        {
          "internalType": "uint256",
          "name": "",
          "type": "uint256"
        }
      ],
      "name": "userVerifications",
      "outputs": [
        {
          "internalType": "bool",
          "name": "",
          "type": "bool"
        }
      ],
      "stateMutability": "view",
      "type": "function"
    },
    {
      "inputs": [
        {
          "internalType": "bytes32",
          "name": "",
          "type": "bytes32"
        }
      ],
      "name": "verifiedProofs",
      "outputs": [
        {
          "internalType": "bool",
          "name": "",
          "type": "bool"
        }
      ],
      "stateMutability": "view",
      "type": "function"
    },
    {
      "inputs": [
        {
          "components": [
            {
              "internalType": "uint256[2]",
              "name": "a",
              "type": "uint256[2]"
            },
            {
              "internalType": "uint256[2][2]",
              "name": "b",
              "type": "uint256[2][2]"
            },
            {
              "internalType": "uint256[2]",
              "name": "c",
              "type": "uint256[2]"
            }
          ],
          "internalType": "struct SimplifiedZKVerifierV2.Proof",
          "name": "proof",
          "type": "tuple"
        },
        {
          "components": [
            {
              "internalType": "uint256",
              "name": "commitment",
              "type": "uint256"
            },
            {
              "internalType": "uint256",
              "name": "proofType",
              "type": "uint256"
            },
            {
              "internalType": "uint256",
              "name": "timestamp",
              "type": "uint256"
            }
          ],
          "internalType": "struct SimplifiedZKVerifierV2.PublicInputs",
          "name": "inputs",
          "type": "tuple"
        },
        {
          "internalType": "bytes32",
          "name": "proofId",
          "type": "bytes32"
        }
      ],
      "name": "verifyProof",
      "outputs": [
        {
          "internalType": "bool",
          "name": "",
          "type": "bool"
        }
      ],
      "stateMutability": "nonpayable",
      "type": "function"
    }
  ],
  "bytecode": "0x608060405234801561001057600080fd5b50610643806100206000396000f3fe608060405234801561001057600080fd5b50600436106100575760003560e01c8063024968ca1461005c5780630fd7b56a146100aa578063176d80c4146100d8578063ca601640146100fb578063f8cf710414610110575b600080fd5b61009561006a36600461036b565b6001600160a01b03919091166000908152600160209081526040808320938352929052205460ff1690565b60405190151581526020015b60405180910390f35b6100956100b836600461036b565b600160209081526000928352604080842090915290825290205460ff1681565b6100956100e63660046103a3565b60006020819052908152604090205460ff1681565b610103610123565b6040516100a191906103bc565b61009561011e366004610525565b6101b9565b61012b610344565b60405180606001604052806040518060400160405280600e81526020016d4b594320436f6d706c69616e636560901b81525081526020016040518060400160405280600e81526020016d2637b1b0ba34b7b710283937b7b360911b81525081526020016040518060400160405280600a81526020016910524810dbdb9d195b9d60b21b815250815250905090565b60008181526020819052604081205460ff16156101d85750600161033d565b8351516000805160206105ee83398151915211801561020957508351602001516000805160206105ee833981519152115b61024c5760405162461bcd60e51b815260206004820152600f60248201526e496e76616c69642070726f6f662e6160881b60448201526064015b60405180910390fd5b6040840151516000805160206105ee83398151915211801561028357506040840151602001516000805160206105ee833981519152115b6102c15760405162461bcd60e51b815260206004820152600f60248201526e496e76616c69642070726f6f662e6360881b6044820152606401610243565b6000828152602081815260408083208054600160ff1991821681179092553380865282855283862089860151875285529483902080549091168217905581518181524293810193909352929185917fd70445ae79bfa82bd8c52e90ca89940dff8279c6c39f91265be2f4ae43e4cae2910160405180910390a390505b9392505050565b60405180606001604052806003905b60608152602001906001900390816103535790505090565b6000806040838503121561037e57600080fd5b82356001600160a01b038116811461039557600080fd5b946020939093013593505050565b6000602082840312156103b557600080fd5b5035919050565b6020808252600090608083018382018584805b600381101561042c57601f198089870301855283518051808852845b81811015610406578281018a01518982018b015289016103eb565b508781018901859052601f019091169095018601945092850192918501916001016103cf565b5092979650505050505050565b634e487b7160e01b600052604160045260246000fd5b6040516060810167ffffffffffffffff8111828210171561047257610472610439565b60405290565b6040805190810167ffffffffffffffff8111828210171561047257610472610439565b600082601f8301126104ac57600080fd5b6104b4610478565b8060408401858111156104c657600080fd5b845b818110156104e05780358452602093840193016104c8565b509095945050505050565b6000606082840312156104fd57600080fd5b61050561044f565b905081358152602082013560208201526040820135604082015292915050565b600080600083850361018081121561053c57600080fd5b6101008082121561054c57600080fd5b61055461044f565b9150610560878761049b565b8252604087605f88011261057357600080fd5b61057b610478565b8060c089018a81111561058d57600080fd5b838a015b818110156105b2576105a38c8261049b565b84526020909301928401610591565b508160208701526105c38b8261049b565b84870152505050508194506105da878288016104eb565b935050506101608401359050925092509256fe30644e72e131a029b85045b68181585d97816a916871ca8d3c208c16d87cfd47a264697066735822122090c4756af958fbef366b7348f0a81e33a60e04ebd6b58cb8d187130729ad23f564736f6c63430008130033",
  "linkReferences": {},
  "deployedLinkReferences": {}
}