{
  "_format": "hh-sol-artifact-1",
  "contractName": "RealZKMLNovaVerifier",
  "sourceName": "contracts/RealZKMLNovaVerifier.sol",
  "abi": [
    {
      "anonymous": false,
      "inputs": [
        {
          "indexed": true,
          "internalType": "bytes32",
          "name": "proofId",
          "type": "bytes32"
        },
        {
          "indexed": true,
          "internalType": "address",
          "name": "submitter",
          "type": "address"
        },
        {
          "indexed": false,
          "internalType": "bool",
          "name": "authorized",
          "type": "bool"
        },
        {
          "indexed": false,
          "internalType": "uint256",
          "name": "decision",
          "type": "uint256"
        },
        {
          "indexed": false,
          "internalType": "uint256",
          "name": "gasUsed",
          "type": "uint256"
        }
      ],
      "name": "ZKMLProofVerified",
      "type": "event"
    },
    {
      "inputs": [],
      "name": "MODEL_COMMITMENT",
      "outputs": [
        {
          "internalType": "bytes32",
          "name": "",
          "type": "bytes32"
        }
      ],
      "stateMutability": "view",
      "type": "function"
    },
    {
      "inputs": [],
      "name": "PEDERSEN_G",
      "outputs": [
        {
          "internalType": "bytes32",
          "name": "",
          "type": "bytes32"
        }
      ],
      "stateMutability": "view",
      "type": "function"
    },
    {
      "inputs": [],
      "name": "PEDERSEN_H",
      "outputs": [
        {
          "internalType": "bytes32",
          "name": "",
          "type": "bytes32"
        }
      ],
      "stateMutability": "view",
      "type": "function"
    },
    {
      "inputs": [
        {
          "internalType": "address",
          "name": "",
          "type": "address"
        }
      ],
      "name": "agentAuthorizations",
      "outputs": [
        {
          "internalType": "uint256",
          "name": "",
          "type": "uint256"
        }
      ],
      "stateMutability": "view",
      "type": "function"
    },
    {
      "inputs": [],
      "name": "estimateVerificationGas",
      "outputs": [
        {
          "internalType": "uint256",
          "name": "",
          "type": "uint256"
        }
      ],
      "stateMutability": "pure",
      "type": "function"
    },
    {
      "inputs": [
        {
          "internalType": "address",
          "name": "agent",
          "type": "address"
        }
      ],
      "name": "getAgentAuthCount",
      "outputs": [
        {
          "internalType": "uint256",
          "name": "",
          "type": "uint256"
        }
      ],
      "stateMutability": "view",
      "type": "function"
    },
    {
      "inputs": [
        {
          "internalType": "bytes32",
          "name": "proofId",
          "type": "bytes32"
        }
      ],
      "name": "getProofStatus",
      "outputs": [
        {
          "internalType": "bool",
          "name": "verified",
          "type": "bool"
        }
      ],
      "stateMutability": "view",
      "type": "function"
    },
    {
      "inputs": [
        {
          "internalType": "bytes32",
          "name": "",
          "type": "bytes32"
        }
      ],
      "name": "verifiedProofs",
      "outputs": [
        {
          "internalType": "bool",
          "name": "",
          "type": "bool"
        }
      ],
      "stateMutability": "view",
      "type": "function"
    },
    {
      "inputs": [
        {
          "components": [
            {
              "internalType": "bytes32",
              "name": "commitmentW1",
              "type": "bytes32"
            },
            {
              "internalType": "bytes32",
              "name": "commitmentE1",
              "type": "bytes32"
            },
            {
              "internalType": "bytes32",
              "name": "u1",
              "type": "bytes32"
            },
            {
              "internalType": "bytes32",
              "name": "commitmentW2",
              "type": "bytes32"
            },
            {
              "internalType": "bytes32",
              "name": "commitmentE2",
              "type": "bytes32"
            },
            {
              "internalType": "bytes32",
              "name": "u2",
              "type": "bytes32"
            },
            {
              "internalType": "bytes32",
              "name": "commitmentT",
              "type": "bytes32"
            },
            {
              "internalType": "bytes32[]",
              "name": "openingProofs",
              "type": "bytes32[]"
            },
            {
              "internalType": "uint256",
              "name": "iterationCount",
              "type": "uint256"
            },
            {
              "internalType": "bytes32",
              "name": "publicOutput",
              "type": "bytes32"
            }
          ],
          "internalType": "struct RealZKMLNovaVerifier.NovaProof",
          "name": "proof",
          "type": "tuple"
        },
        {
          "components": [
            {
              "internalType": "uint256",
              "name": "agentType",
              "type": "uint256"
            },
            {
              "internalType": "uint256",
              "name": "amountNormalized",
              "type": "uint256"
            },
            {
              "internalType": "uint256",
              "name": "operationType",
              "type": "uint256"
            },
            {
              "internalType": "uint256",
              "name": "riskScore",
              "type": "uint256"
            },
            {
              "internalType": "bytes32",
              "name": "modelCommitment",
              "type": "bytes32"
            }
          ],
          "internalType": "struct RealZKMLNovaVerifier.MLPublicInputs",
          "name": "publicInputs",
          "type": "tuple"
        }
      ],
      "name": "verifyZKMLProof",
      "outputs": [
        {
          "internalType": "bool",
          "name": "authorized",
          "type": "bool"
        }
      ],
      "stateMutability": "nonpayable",
      "type": "function"
    }
  ],
  "bytecode": "0x608060405234801561001057600080fd5b50610c55806100206000396000f3fe608060405234801561001057600080fd5b50600436106100935760003560e01c8063472cb12011610066578063472cb12014610126578063526480ff146101395780635bbcfcd7146101625780638b9e737314610189578063aa82a6aa1461019157600080fd5b8063175e82f414610098578063176d80c4146100b05780631808d79d146100e35780633cced74814610103575b600080fd5b620c35005b6040519081526020015b60405180910390f35b6100d36100be36600461090d565b60006020819052908152604090205460ff1681565b60405190151581526020016100a7565b61009d6100f1366004610926565b60016020526000908152604090205481565b6100d361011136600461090d565b60009081526020819052604090205460ff1690565b6100d361013436600461094f565b610199565b61009d610147366004610926565b6001600160a01b031660009081526001602052604090205490565b61009d7f1234567890abcdef1234567890abcdef1234567890abcdef1234567890abcdef81565b61009d600281565b61009d600181565b6000805a905060808301357f1234567890abcdef1234567890abcdef1234567890abcdef1234567890abcdef146102075760405162461bcd60e51b815260206004820152600d60248201526c125b9d985b1a59081b5bd9195b609a1b60448201526064015b60405180910390fd5b6000848460405160200161021c929190610a31565b60408051601f19818403018152918152815160209283012060008181529283905291205490915060ff16156102605760ff610120860135166001149250505061047e565b600061026c8686610484565b9050806102b05760405162461bcd60e51b815260206004820152601260248201527124b73b30b634b2102737bb3090383937b7b360711b60448201526064016101fe565b60006102bb876105a4565b90508061030a5760405162461bcd60e51b815260206004820152601860248201527f5231435320766572696669636174696f6e206661696c6564000000000000000060448201526064016101fe565b600061031588610628565b9050806103645760405162461bcd60e51b815260206004820152601960248201527f436f6d6d69746d656e74206f70656e696e67206661696c65640000000000000060448201526064016101fe565b60ff61012089013516600181149650600061038f893560208b013560408c013560608d0135866106cc565b9050806103de5760405162461bcd60e51b815260206004820181905260248201527f4465636973696f6e20696e636f6e73697374656e742077697468206d6f64656c60448201526064016101fe565b6000868152602081905260409020805460ff19166001179055871561041e5733600090815260016020526040812080549161041883610b0b565b91905055505b60005a61042b9089610b24565b604080518b1515815260208101869052908101829052909150339088907f6cfc1ab5fece843facccfc6af8f952d81739e037712f1230e59fc7a0464718e09060600160405180910390a350505050505050505b92915050565b6040805183356020808301919091526060808601358385015281860135908301526080808601359083015260c08086013560a0808501919091528451808503909101815292019092528051910120600090816105007f30644e72e131a029b85045b68181585d2833e84879b9709143e1f593f000000183610b63565b9050600061051886356020880135604089013561082a565b90506000610533876060013588608001358960a0013561082a565b9050811580610540575080155b1561055257600094505050505061047e565b6000610569883560608a013560c08b0135876108c3565b9050610100880135158061058357506103e8886101000135115b156105965760009550505050505061047e565b506001979650505050505050565b6000602082013515806105b957506080820135155b156105c657506000919050565b602082013560808301356105ea6103e8600080516020610c00833981519152610b77565b82118061060f575061060c6103e8600080516020610c00833981519152610b77565b81115b1561061e575060009392505050565b5060019392505050565b6000805b61063960e0840184610b8b565b90508110156106b157600061065160e0850185610b8b565b8381811061066157610661610b37565b9050602002013560001c9050600080516020610c00833981519152811061068c575060009392505050565b6001811161069e575060009392505050565b50806106a981610b0b565b91505061062c565b5060026106c160e0840184610b8b565b905010159050919050565b600060468311156106df57508015610821565b8560031480156106f0575060328511155b80156106fc5750601e83105b1561070b575060018114610821565b85600214801561071b5750601e83105b8015610728575060468511155b15610737575060018114610821565b8560010361076357601485111561075057508015610821565b6014831015610763575060018114610821565b8560000361077357508015610821565b605085111561078457508015610821565b601e8310158015610796575060468311155b80156107a3575060148510155b80156107b0575060328511155b1561081d5760006107c2866064610b24565b6107cd856064610b24565b6107d8906002610bd5565b6107e29190610bec565b905060006107f1886032610bd5565b6107fc906064610bec565b9050808210610812578360011492505050610821565b505081159050610821565b5080155b95945050505050565b6000838383600080516020610c008339815191528310158061085a5750600080516020610c008339815191528210155b8061088557507f30644e72e131a029b85045b68181585d2833e84879b9709143e1f593f00000018110155b1561089657600093505050506108bc565b8215806108a35750826001145b156108b457600093505050506108bc565b600193505050505b9392505050565b600084600080516020610c008339815191528084870982089050600080516020610c0083398151915280600080516020610c00833981519152858609860982089695505050505050565b60006020828403121561091f57600080fd5b5035919050565b60006020828403121561093857600080fd5b81356001600160a01b03811681146108bc57600080fd5b60008082840360c081121561096357600080fd5b833567ffffffffffffffff81111561097a57600080fd5b8401610140818703121561098d57600080fd5b925060a0601f19820112156109a157600080fd5b506020830190509250929050565b6000808335601e198436030181126109c657600080fd5b830160208101925035905067ffffffffffffffff8111156109e657600080fd5b8060051b36038213156109f857600080fd5b9250929050565b81835260006001600160fb1b03831115610a1857600080fd5b8260051b80836020870137939093016020019392505050565b60c08152823560c0820152602083013560e0820152600061010060408501358184015261012060608601358185015261014060808701358186015260a087013561016086015260c0870135610180860152610a8f60e08801886109af565b826101a0880152610aa5610200880182846109ff565b948901356101c08801525050508501356101e084015290506108bc602083018480358252602081013560208301526040810135604083015260608101356060830152608081013560808301525050565b634e487b7160e01b600052601160045260246000fd5b600060018201610b1d57610b1d610af5565b5060010190565b8181038181111561047e5761047e610af5565b634e487b7160e01b600052603260045260246000fd5b634e487b7160e01b600052601260045260246000fd5b600082610b7257610b72610b4d565b500690565b600082610b8657610b86610b4d565b500490565b6000808335601e19843603018112610ba257600080fd5b83018035915067ffffffffffffffff821115610bbd57600080fd5b6020019150600581901b36038213156109f857600080fd5b808202811582820484141761047e5761047e610af5565b8082018082111561047e5761047e610af556fe30644e72e131a029b85045b68181585d97816a916871ca8d3c208c16d87cfd47a26469706673582212206e4567c5bd8edac7784a20c344659af74d519bb97682e2d02a3cce6838d123eb64736f6c63430008130033",
  "linkReferences": {},
  "deployedLinkReferences": {}
}