{"contracts/RealZKMLNovaVerifier.sol":{"RealZKMLNovaVerifier":{"abi":[{"anonymous":false,"inputs":[{"indexed":true,"internalType":"bytes32","name":"proofId","type":"bytes32"},{"indexed":true,"internalType":"address","name":"submitter","type":"address"},{"indexed":false,"internalType":"bool","name":"authorized","type":"bool"},{"indexed":false,"internalType":"uint256","name":"decision","type":"uint256"},{"indexed":false,"internalType":"uint256","name":"gasUsed","type":"uint256"}],"name":"ZKMLProofVerified","type":"event"},{"inputs":[],"name":"MODEL_COMMITMENT","outputs":[{"internalType":"bytes32","name":"","type":"bytes32"}],"stateMutability":"view","type":"function"},{"inputs":[],"name":"PEDERSEN_G","outputs":[{"internalType":"bytes32","name":"","type":"bytes32"}],"stateMutability":"view","type":"function"},{"inputs":[],"name":"PEDERSEN_H","outputs":[{"internalType":"bytes32","name":"","type":"bytes32"}],"stateMutability":"view","type":"function"},{"inputs":[{"internalType":"address","name":"","type":"address"}],"name":"agentAuthorizations","outputs":[{"internalType":"uint256","name":"","type":"uint256"}],"stateMutability":"view","type":"function"},{"inputs":[],"name":"estimateVerificationGas","outputs":[{"internalType":"uint256","name":"","type":"uint256"}],"stateMutability":"pure","type":"function"},{"inputs":[{"internalType":"address","name":"agent","type":"address"}],"name":"getAgentAuthCount","outputs":[{"internalType":"uint256","name":"","type":"uint256"}],"stateMutability":"view","type":"function"},{"inputs":[{"internalType":"bytes32","name":"proofId","type":"bytes32"}],"name":"getProofStatus","outputs":[{"internalType":"bool","name":"verified","type":"bool"}],"stateMutability":"view","type":"function"},{"inputs":[{"internalType":"bytes32","name":"","type":"bytes32"}],"name":"verifiedProofs","outputs":[{"internalType":"bool","name":"","type":"bool"}],"stateMutability":"view","type":"function"},{"inputs":[{"components":[{"internalType":"bytes32","name":"commitmentW1","type":"bytes32"},{"internalType":"bytes32","name":"commitmentE1","type":"bytes32"},{"internalType":"bytes32","name":"u1","type":"bytes32"},{"internalType":"bytes32","name":"commitmentW2","type":"bytes32"},{"internalType":"bytes32","name":"commitmentE2","type":"bytes32"},{"internalType":"bytes32","name":"u2","type":"bytes32"},{"internalType":"bytes32","name":"commitmentT","type":"bytes32"},{"internalType":"bytes32[]","name":"openingProofs","type":"bytes32[]"},{"internalType":"uint256","name":"iterationCount","type":"uint256"},{"internalType":"bytes32","name":"publicOutput","type":"bytes32"}],"internalType":"struct RealZKMLNovaVerifier.NovaProof","name":"proof","type":"tuple"},{"components":[{"internalType":"uint256","name":"agentType","type":"uint256"},{"internalType":"uint256","name":"amountNormalized","type":"uint256"},{"internalType":"uint256","name":"operationType","type":"uint256"},{"internalType":"uint256","name":"riskScore","type":"uint256"},{"internalType":"bytes32","name":"modelCommitment","type":"bytes32"}],"internalType":"struct RealZKMLNovaVerifier.MLPublicInputs","name":"publicInputs","type":"tuple"}],"name":"verifyZKMLProof","outputs":[{"internalType":"bool","name":"authorized","type":"bool"}],"stateMutability":"nonpayable","type":"function"}],"evm":{"bytecode":{"linkReferences":{},"object":"608060405234801561001057600080fd5b50610c55806100206000396000f3fe608060405234801561001057600080fd5b50600436106100935760003560e01c8063472cb12011610066578063472cb12014610126578063526480ff146101395780635bbcfcd7146101625780638b9e737314610189578063aa82a6aa1461019157600080fd5b8063175e82f414610098578063176d80c4146100b05780631808d79d146100e35780633cced74814610103575b600080fd5b620c35005b6040519081526020015b60405180910390f35b6100d36100be36600461090d565b60006020819052908152604090205460ff1681565b60405190151581526020016100a7565b61009d6100f1366004610926565b60016020526000908152604090205481565b6100d361011136600461090d565b60009081526020819052604090205460ff1690565b6100d361013436600461094f565b610199565b61009d610147366004610926565b6001600160a01b031660009081526001602052604090205490565b61009d7f1234567890abcdef1234567890abcdef1234567890abcdef1234567890abcdef81565b61009d600281565b61009d600181565b6000805a905060808301357f1234567890abcdef1234567890abcdef1234567890abcdef1234567890abcdef146102075760405162461bcd60e51b815260206004820152600d60248201526c125b9d985b1a59081b5bd9195b609a1b60448201526064015b60405180910390fd5b6000848460405160200161021c929190610a31565b60408051601f19818403018152918152815160209283012060008181529283905291205490915060ff16156102605760ff610120860135166001149250505061047e565b600061026c8686610484565b9050806102b05760405162461bcd60e51b815260206004820152601260248201527124b73b30b634b2102737bb3090383937b7b360711b60448201526064016101fe565b60006102bb876105a4565b90508061030a5760405162461bcd60e51b815260206004820152601860248201527f5231435320766572696669636174696f6e206661696c6564000000000000000060448201526064016101fe565b600061031588610628565b9050806103645760405162461bcd60e51b815260206004820152601960248201527f436f6d6d69746d656e74206f70656e696e67206661696c65640000000000000060448201526064016101fe565b60ff61012089013516600181149650600061038f893560208b013560408c013560608d0135866106cc565b9050806103de5760405162461bcd60e51b815260206004820181905260248201527f4465636973696f6e20696e636f6e73697374656e742077697468206d6f64656c60448201526064016101fe565b6000868152602081905260409020805460ff19166001179055871561041e5733600090815260016020526040812080549161041883610b0b565b91905055505b60005a61042b9089610b24565b604080518b1515815260208101869052908101829052909150339088907f6cfc1ab5fece843facccfc6af8f952d81739e037712f1230e59fc7a0464718e09060600160405180910390a350505050505050505b92915050565b6040805183356020808301919091526060808601358385015281860135908301526080808601359083015260c08086013560a0808501919091528451808503909101815292019092528051910120600090816105007f30644e72e131a029b85045b68181585d2833e84879b9709143e1f593f000000183610b63565b9050600061051886356020880135604089013561082a565b90506000610533876060013588608001358960a0013561082a565b9050811580610540575080155b1561055257600094505050505061047e565b6000610569883560608a013560c08b0135876108c3565b9050610100880135158061058357506103e8886101000135115b156105965760009550505050505061047e565b506001979650505050505050565b6000602082013515806105b957506080820135155b156105c657506000919050565b602082013560808301356105ea6103e8600080516020610c00833981519152610b77565b82118061060f575061060c6103e8600080516020610c00833981519152610b77565b81115b1561061e575060009392505050565b5060019392505050565b6000805b61063960e0840184610b8b565b90508110156106b157600061065160e0850185610b8b565b8381811061066157610661610b37565b9050602002013560001c9050600080516020610c00833981519152811061068c575060009392505050565b6001811161069e575060009392505050565b50806106a981610b0b565b91505061062c565b5060026106c160e0840184610b8b565b905010159050919050565b600060468311156106df57508015610821565b8560031480156106f0575060328511155b80156106fc5750601e83105b1561070b575060018114610821565b85600214801561071b5750601e83105b8015610728575060468511155b15610737575060018114610821565b8560010361076357601485111561075057508015610821565b6014831015610763575060018114610821565b8560000361077357508015610821565b605085111561078457508015610821565b601e8310158015610796575060468311155b80156107a3575060148510155b80156107b0575060328511155b1561081d5760006107c2866064610b24565b6107cd856064610b24565b6107d8906002610bd5565b6107e29190610bec565b905060006107f1886032610bd5565b6107fc906064610bec565b9050808210610812578360011492505050610821565b505081159050610821565b5080155b95945050505050565b6000838383600080516020610c008339815191528310158061085a5750600080516020610c008339815191528210155b8061088557507f30644e72e131a029b85045b68181585d2833e84879b9709143e1f593f00000018110155b1561089657600093505050506108bc565b8215806108a35750826001145b156108b457600093505050506108bc565b600193505050505b9392505050565b600084600080516020610c008339815191528084870982089050600080516020610c0083398151915280600080516020610c00833981519152858609860982089695505050505050565b60006020828403121561091f57600080fd5b5035919050565b60006020828403121561093857600080fd5b81356001600160a01b03811681146108bc57600080fd5b60008082840360c081121561096357600080fd5b833567ffffffffffffffff81111561097a57600080fd5b8401610140818703121561098d57600080fd5b925060a0601f19820112156109a157600080fd5b506020830190509250929050565b6000808335601e198436030181126109c657600080fd5b830160208101925035905067ffffffffffffffff8111156109e657600080fd5b8060051b36038213156109f857600080fd5b9250929050565b81835260006001600160fb1b03831115610a1857600080fd5b8260051b80836020870137939093016020019392505050565b60c08152823560c0820152602083013560e0820152600061010060408501358184015261012060608601358185015261014060808701358186015260a087013561016086015260c0870135610180860152610a8f60e08801886109af565b826101a0880152610aa5610200880182846109ff565b948901356101c08801525050508501356101e084015290506108bc602083018480358252602081013560208301526040810135604083015260608101356060830152608081013560808301525050565b634e487b7160e01b600052601160045260246000fd5b600060018201610b1d57610b1d610af5565b5060010190565b8181038181111561047e5761047e610af5565b634e487b7160e01b600052603260045260246000fd5b634e487b7160e01b600052601260045260246000fd5b600082610b7257610b72610b4d565b500690565b600082610b8657610b86610b4d565b500490565b6000808335601e19843603018112610ba257600080fd5b83018035915067ffffffffffffffff821115610bbd57600080fd5b6020019150600581901b36038213156109f857600080fd5b808202811582820484141761047e5761047e610af5565b8082018082111561047e5761047e610af556fe30644e72e131a029b85045b68181585d97816a916871ca8d3c208c16d87cfd47a26469706673582212206e4567c5bd8edac7784a20c344659af74d519bb97682e2d02a3cce6838d123eb64736f6c63430008130033","opcodes":"PUSH1 0x80 PUSH1 0x40 MSTORE CALLVALUE DUP1 ISZERO PUSH2 0x10 JUMPI PUSH1 0x0 DUP1 REVERT JUMPDEST POP PUSH2 0xC55 DUP1 PUSH2 0x20 PUSH1 0x0 CODECOPY PUSH1 0x0 RETURN INVALID PUSH1 0x80 PUSH1 0x40 MSTORE CALLVALUE DUP1 ISZERO PUSH2 0x10 JUMPI PUSH1 0x0 DUP1 REVERT JUMPDEST POP PUSH1 0x4 CALLDATASIZE LT PUSH2 0x93 JUMPI PUSH1 0x0 CALLDATALOAD PUSH1 0xE0 SHR DUP1 PUSH4 0x472CB120 GT PUSH2 0x66 JUMPI DUP1 PUSH4 0x472CB120 EQ PUSH2 0x126 JUMPI DUP1 PUSH4 0x526480FF EQ PUSH2 0x139 JUMPI DUP1 PUSH4 0x5BBCFCD7 EQ PUSH2 0x162 JUMPI DUP1 PUSH4 0x8B9E7373 EQ PUSH2 0x189 JUMPI DUP1 PUSH4 0xAA82A6AA EQ PUSH2 0x191 JUMPI PUSH1 0x0 DUP1 REVERT JUMPDEST DUP1 PUSH4 0x175E82F4 EQ PUSH2 0x98 JUMPI DUP1 PUSH4 0x176D80C4 EQ PUSH2 0xB0 JUMPI DUP1 PUSH4 0x1808D79D EQ PUSH2 0xE3 JUMPI DUP1 PUSH4 0x3CCED748 EQ PUSH2 0x103 JUMPI JUMPDEST PUSH1 0x0 DUP1 REVERT JUMPDEST PUSH3 0xC3500 JUMPDEST PUSH1 0x40 MLOAD SWAP1 DUP2 MSTORE PUSH1 0x20 ADD JUMPDEST PUSH1 0x40 MLOAD DUP1 SWAP2 SUB SWAP1 RETURN JUMPDEST PUSH2 0xD3 PUSH2 0xBE CALLDATASIZE PUSH1 0x4 PUSH2 0x90D JUMP JUMPDEST PUSH1 0x0 PUSH1 0x20 DUP2 SWAP1 MSTORE SWAP1 DUP2 MSTORE PUSH1 0x40 SWAP1 KECCAK256 SLOAD PUSH1 0xFF AND DUP2 JUMP JUMPDEST PUSH1 0x40 MLOAD SWAP1 ISZERO ISZERO DUP2 MSTORE PUSH1 0x20 ADD PUSH2 0xA7 JUMP JUMPDEST PUSH2 0x9D PUSH2 0xF1 CALLDATASIZE PUSH1 0x4 PUSH2 0x926 JUMP JUMPDEST PUSH1 0x1 PUSH1 0x20 MSTORE PUSH1 0x0 SWAP1 DUP2 MSTORE PUSH1 0x40 SWAP1 KECCAK256 SLOAD DUP2 JUMP JUMPDEST PUSH2 0xD3 PUSH2 0x111 CALLDATASIZE PUSH1 0x4 PUSH2 0x90D JUMP JUMPDEST PUSH1 0x0 SWAP1 DUP2 MSTORE PUSH1 0x20 DUP2 SWAP1 MSTORE PUSH1 0x40 SWAP1 KECCAK256 SLOAD PUSH1 0xFF AND SWAP1 JUMP JUMPDEST PUSH2 0xD3 PUSH2 0x134 CALLDATASIZE PUSH1 0x4 PUSH2 0x94F JUMP JUMPDEST PUSH2 0x199 JUMP JUMPDEST PUSH2 0x9D PUSH2 0x147 CALLDATASIZE PUSH1 0x4 PUSH2 0x926 JUMP JUMPDEST PUSH1 0x1 PUSH1 0x1 PUSH1 0xA0 SHL SUB AND PUSH1 0x0 SWAP1 DUP2 MSTORE PUSH1 0x1 PUSH1 0x20 MSTORE PUSH1 0x40 SWAP1 KECCAK256 SLOAD SWAP1 JUMP JUMPDEST PUSH2 0x9D PUSH32 0x1234567890ABCDEF1234567890ABCDEF1234567890ABCDEF1234567890ABCDEF DUP2 JUMP JUMPDEST PUSH2 0x9D PUSH1 0x2 DUP2 JUMP JUMPDEST PUSH2 0x9D PUSH1 0x1 DUP2 JUMP JUMPDEST PUSH1 0x0 DUP1 GAS SWAP1 POP PUSH1 0x80 DUP4 ADD CALLDATALOAD PUSH32 0x1234567890ABCDEF1234567890ABCDEF1234567890ABCDEF1234567890ABCDEF EQ PUSH2 0x207 JUMPI PUSH1 0x40 MLOAD PUSH3 0x461BCD PUSH1 0xE5 SHL DUP2 MSTORE PUSH1 0x20 PUSH1 0x4 DUP3 ADD MSTORE PUSH1 0xD PUSH1 0x24 DUP3 ADD MSTORE PUSH13 0x125B9D985B1A59081B5BD9195B PUSH1 0x9A SHL PUSH1 0x44 DUP3 ADD MSTORE PUSH1 0x64 ADD JUMPDEST PUSH1 0x40 MLOAD DUP1 SWAP2 SUB SWAP1 REVERT JUMPDEST PUSH1 0x0 DUP5 DUP5 PUSH1 0x40 MLOAD PUSH1 0x20 ADD PUSH2 0x21C SWAP3 SWAP2 SWAP1 PUSH2 0xA31 JUMP JUMPDEST PUSH1 0x40 DUP1 MLOAD PUSH1 0x1F NOT DUP2 DUP5 SUB ADD DUP2 MSTORE SWAP2 DUP2 MSTORE DUP2 MLOAD PUSH1 0x20 SWAP3 DUP4 ADD KECCAK256 PUSH1 0x0 DUP2 DUP2 MSTORE SWAP3 DUP4 SWAP1 MSTORE SWAP2 KECCAK256 SLOAD SWAP1 SWAP2 POP PUSH1 0xFF AND ISZERO PUSH2 0x260 JUMPI PUSH1 0xFF PUSH2 0x120 DUP7 ADD CALLDATALOAD AND PUSH1 0x1 EQ SWAP3 POP POP POP PUSH2 0x47E JUMP JUMPDEST PUSH1 0x0 PUSH2 0x26C DUP7 DUP7 PUSH2 0x484 JUMP JUMPDEST SWAP1 POP DUP1 PUSH2 0x2B0 JUMPI PUSH1 0x40 MLOAD PUSH3 0x461BCD PUSH1 0xE5 SHL DUP2 MSTORE PUSH1 0x20 PUSH1 0x4 DUP3 ADD MSTORE PUSH1 0x12 PUSH1 0x24 DUP3 ADD MSTORE PUSH18 0x24B73B30B634B2102737BB3090383937B7B3 PUSH1 0x71 SHL PUSH1 0x44 DUP3 ADD MSTORE PUSH1 0x64 ADD PUSH2 0x1FE JUMP JUMPDEST PUSH1 0x0 PUSH2 0x2BB DUP8 PUSH2 0x5A4 JUMP JUMPDEST SWAP1 POP DUP1 PUSH2 0x30A JUMPI PUSH1 0x40 MLOAD PUSH3 0x461BCD PUSH1 0xE5 SHL DUP2 MSTORE PUSH1 0x20 PUSH1 0x4 DUP3 ADD MSTORE PUSH1 0x18 PUSH1 0x24 DUP3 ADD MSTORE PUSH32 0x5231435320766572696669636174696F6E206661696C65640000000000000000 PUSH1 0x44 DUP3 ADD MSTORE PUSH1 0x64 ADD PUSH2 0x1FE JUMP JUMPDEST PUSH1 0x0 PUSH2 0x315 DUP9 PUSH2 0x628 JUMP JUMPDEST SWAP1 POP DUP1 PUSH2 0x364 JUMPI PUSH1 0x40 MLOAD PUSH3 0x461BCD PUSH1 0xE5 SHL DUP2 MSTORE PUSH1 0x20 PUSH1 0x4 DUP3 ADD MSTORE PUSH1 0x19 PUSH1 0x24 DUP3 ADD MSTORE PUSH32 0x436F6D6D69746D656E74206F70656E696E67206661696C656400000000000000 PUSH1 0x44 DUP3 ADD MSTORE PUSH1 0x64 ADD PUSH2 0x1FE JUMP JUMPDEST PUSH1 0xFF PUSH2 0x120 DUP10 ADD CALLDATALOAD AND PUSH1 0x1 DUP2 EQ SWAP7 POP PUSH1 0x0 PUSH2 0x38F DUP10 CALLDATALOAD PUSH1 0x20 DUP12 ADD CALLDATALOAD PUSH1 0x40 DUP13 ADD CALLDATALOAD PUSH1 0x60 DUP14 ADD CALLDATALOAD DUP7 PUSH2 0x6CC JUMP JUMPDEST SWAP1 POP DUP1 PUSH2 0x3DE JUMPI PUSH1 0x40 MLOAD PUSH3 0x461BCD PUSH1 0xE5 SHL DUP2 MSTORE PUSH1 0x20 PUSH1 0x4 DUP3 ADD DUP2 SWAP1 MSTORE PUSH1 0x24 DUP3 ADD MSTORE PUSH32 0x4465636973696F6E20696E636F6E73697374656E742077697468206D6F64656C PUSH1 0x44 DUP3 ADD MSTORE PUSH1 0x64 ADD PUSH2 0x1FE JUMP JUMPDEST PUSH1 0x0 DUP7 DUP2 MSTORE PUSH1 0x20 DUP2 SWAP1 MSTORE PUSH1 0x40 SWAP1 KECCAK256 DUP1 SLOAD PUSH1 0xFF NOT AND PUSH1 0x1 OR SWAP1 SSTORE DUP8 ISZERO PUSH2 0x41E JUMPI CALLER PUSH1 0x0 SWAP1 DUP2 MSTORE PUSH1 0x1 PUSH1 0x20 MSTORE PUSH1 0x40 DUP2 KECCAK256 DUP1 SLOAD SWAP2 PUSH2 0x418 DUP4 PUSH2 0xB0B JUMP JUMPDEST SWAP2 SWAP1 POP SSTORE POP JUMPDEST PUSH1 0x0 GAS PUSH2 0x42B SWAP1 DUP10 PUSH2 0xB24 JUMP JUMPDEST PUSH1 0x40 DUP1 MLOAD DUP12 ISZERO ISZERO DUP2 MSTORE PUSH1 0x20 DUP2 ADD DUP7 SWAP1 MSTORE SWAP1 DUP2 ADD DUP3 SWAP1 MSTORE SWAP1 SWAP2 POP CALLER SWAP1 DUP9 SWAP1 PUSH32 0x6CFC1AB5FECE843FACCCFC6AF8F952D81739E037712F1230E59FC7A0464718E0 SWAP1 PUSH1 0x60 ADD PUSH1 0x40 MLOAD DUP1 SWAP2 SUB SWAP1 LOG3 POP POP POP POP POP POP POP POP JUMPDEST SWAP3 SWAP2 POP POP JUMP JUMPDEST PUSH1 0x40 DUP1 MLOAD DUP4 CALLDATALOAD PUSH1 0x20 DUP1 DUP4 ADD SWAP2 SWAP1 SWAP2 MSTORE PUSH1 0x60 DUP1 DUP7 ADD CALLDATALOAD DUP4 DUP6 ADD MSTORE DUP2 DUP7 ADD CALLDATALOAD SWAP1 DUP4 ADD MSTORE PUSH1 0x80 DUP1 DUP7 ADD CALLDATALOAD SWAP1 DUP4 ADD MSTORE PUSH1 0xC0 DUP1 DUP7 ADD CALLDATALOAD PUSH1 0xA0 DUP1 DUP6 ADD SWAP2 SWAP1 SWAP2 MSTORE DUP5 MLOAD DUP1 DUP6 SUB SWAP1 SWAP2 ADD DUP2 MSTORE SWAP3 ADD SWAP1 SWAP3 MSTORE DUP1 MLOAD SWAP2 ADD KECCAK256 PUSH1 0x0 SWAP1 DUP2 PUSH2 0x500 PUSH32 0x30644E72E131A029B85045B68181585D2833E84879B9709143E1F593F0000001 DUP4 PUSH2 0xB63 JUMP JUMPDEST SWAP1 POP PUSH1 0x0 PUSH2 0x518 DUP7 CALLDATALOAD PUSH1 0x20 DUP9 ADD CALLDATALOAD PUSH1 0x40 DUP10 ADD CALLDATALOAD PUSH2 0x82A JUMP JUMPDEST SWAP1 POP PUSH1 0x0 PUSH2 0x533 DUP8 PUSH1 0x60 ADD CALLDATALOAD DUP9 PUSH1 0x80 ADD CALLDATALOAD DUP10 PUSH1 0xA0 ADD CALLDATALOAD PUSH2 0x82A JUMP JUMPDEST SWAP1 POP DUP2 ISZERO DUP1 PUSH2 0x540 JUMPI POP DUP1 ISZERO JUMPDEST ISZERO PUSH2 0x552 JUMPI PUSH1 0x0 SWAP5 POP POP POP POP POP PUSH2 0x47E JUMP JUMPDEST PUSH1 0x0 PUSH2 0x569 DUP9 CALLDATALOAD PUSH1 0x60 DUP11 ADD CALLDATALOAD PUSH1 0xC0 DUP12 ADD CALLDATALOAD DUP8 PUSH2 0x8C3 JUMP JUMPDEST SWAP1 POP PUSH2 0x100 DUP9 ADD CALLDATALOAD ISZERO DUP1 PUSH2 0x583 JUMPI POP PUSH2 0x3E8 DUP9 PUSH2 0x100 ADD CALLDATALOAD GT JUMPDEST ISZERO PUSH2 0x596 JUMPI PUSH1 0x0 SWAP6 POP POP POP POP POP POP PUSH2 0x47E JUMP JUMPDEST POP PUSH1 0x1 SWAP8 SWAP7 POP POP POP POP POP POP POP JUMP JUMPDEST PUSH1 0x0 PUSH1 0x20 DUP3 ADD CALLDATALOAD ISZERO DUP1 PUSH2 0x5B9 JUMPI POP PUSH1 0x80 DUP3 ADD CALLDATALOAD ISZERO JUMPDEST ISZERO PUSH2 0x5C6 JUMPI POP PUSH1 0x0 SWAP2 SWAP1 POP JUMP JUMPDEST PUSH1 0x20 DUP3 ADD CALLDATALOAD PUSH1 0x80 DUP4 ADD CALLDATALOAD PUSH2 0x5EA PUSH2 0x3E8 PUSH1 0x0 DUP1 MLOAD PUSH1 0x20 PUSH2 0xC00 DUP4 CODECOPY DUP2 MLOAD SWAP2 MSTORE PUSH2 0xB77 JUMP JUMPDEST DUP3 GT DUP1 PUSH2 0x60F JUMPI POP PUSH2 0x60C PUSH2 0x3E8 PUSH1 0x0 DUP1 MLOAD PUSH1 0x20 PUSH2 0xC00 DUP4 CODECOPY DUP2 MLOAD SWAP2 MSTORE PUSH2 0xB77 JUMP JUMPDEST DUP2 GT JUMPDEST ISZERO PUSH2 0x61E JUMPI POP PUSH1 0x0 SWAP4 SWAP3 POP POP POP JUMP JUMPDEST POP PUSH1 0x1 SWAP4 SWAP3 POP POP POP JUMP JUMPDEST PUSH1 0x0 DUP1 JUMPDEST PUSH2 0x639 PUSH1 0xE0 DUP5 ADD DUP5 PUSH2 0xB8B JUMP JUMPDEST SWAP1 POP DUP2 LT ISZERO PUSH2 0x6B1 JUMPI PUSH1 0x0 PUSH2 0x651 PUSH1 0xE0 DUP6 ADD DUP6 PUSH2 0xB8B JUMP JUMPDEST DUP4 DUP2 DUP2 LT PUSH2 0x661 JUMPI PUSH2 0x661 PUSH2 0xB37 JUMP JUMPDEST SWAP1 POP PUSH1 0x20 MUL ADD CALLDATALOAD PUSH1 0x0 SHR SWAP1 POP PUSH1 0x0 DUP1 MLOAD PUSH1 0x20 PUSH2 0xC00 DUP4 CODECOPY DUP2 MLOAD SWAP2 MSTORE DUP2 LT PUSH2 0x68C JUMPI POP PUSH1 0x0 SWAP4 SWAP3 POP POP POP JUMP JUMPDEST PUSH1 0x1 DUP2 GT PUSH2 0x69E JUMPI POP PUSH1 0x0 SWAP4 SWAP3 POP POP POP JUMP JUMPDEST POP DUP1 PUSH2 0x6A9 DUP2 PUSH2 0xB0B JUMP JUMPDEST SWAP2 POP POP PUSH2 0x62C JUMP JUMPDEST POP PUSH1 0x2 PUSH2 0x6C1 PUSH1 0xE0 DUP5 ADD DUP5 PUSH2 0xB8B JUMP JUMPDEST SWAP1 POP LT ISZERO SWAP1 POP SWAP2 SWAP1 POP JUMP JUMPDEST PUSH1 0x0 PUSH1 0x46 DUP4 GT ISZERO PUSH2 0x6DF JUMPI POP DUP1 ISZERO PUSH2 0x821 JUMP JUMPDEST DUP6 PUSH1 0x3 EQ DUP1 ISZERO PUSH2 0x6F0 JUMPI POP PUSH1 0x32 DUP6 GT ISZERO JUMPDEST DUP1 ISZERO PUSH2 0x6FC JUMPI POP PUSH1 0x1E DUP4 LT JUMPDEST ISZERO PUSH2 0x70B JUMPI POP PUSH1 0x1 DUP2 EQ PUSH2 0x821 JUMP JUMPDEST DUP6 PUSH1 0x2 EQ DUP1 ISZERO PUSH2 0x71B JUMPI POP PUSH1 0x1E DUP4 LT JUMPDEST DUP1 ISZERO PUSH2 0x728 JUMPI POP PUSH1 0x46 DUP6 GT ISZERO JUMPDEST ISZERO PUSH2 0x737 JUMPI POP PUSH1 0x1 DUP2 EQ PUSH2 0x821 JUMP JUMPDEST DUP6 PUSH1 0x1 SUB PUSH2 0x763 JUMPI PUSH1 0x14 DUP6 GT ISZERO PUSH2 0x750 JUMPI POP DUP1 ISZERO PUSH2 0x821 JUMP JUMPDEST PUSH1 0x14 DUP4 LT ISZERO PUSH2 0x763 JUMPI POP PUSH1 0x1 DUP2 EQ PUSH2 0x821 JUMP JUMPDEST DUP6 PUSH1 0x0 SUB PUSH2 0x773 JUMPI POP DUP1 ISZERO PUSH2 0x821 JUMP JUMPDEST PUSH1 0x50 DUP6 GT ISZERO PUSH2 0x784 JUMPI POP DUP1 ISZERO PUSH2 0x821 JUMP JUMPDEST PUSH1 0x1E DUP4 LT ISZERO DUP1 ISZERO PUSH2 0x796 JUMPI POP PUSH1 0x46 DUP4 GT ISZERO JUMPDEST DUP1 ISZERO PUSH2 0x7A3 JUMPI POP PUSH1 0x14 DUP6 LT ISZERO JUMPDEST DUP1 ISZERO PUSH2 0x7B0 JUMPI POP PUSH1 0x32 DUP6 GT ISZERO JUMPDEST ISZERO PUSH2 0x81D JUMPI PUSH1 0x0 PUSH2 0x7C2 DUP7 PUSH1 0x64 PUSH2 0xB24 JUMP JUMPDEST PUSH2 0x7CD DUP6 PUSH1 0x64 PUSH2 0xB24 JUMP JUMPDEST PUSH2 0x7D8 SWAP1 PUSH1 0x2 PUSH2 0xBD5 JUMP JUMPDEST PUSH2 0x7E2 SWAP2 SWAP1 PUSH2 0xBEC JUMP JUMPDEST SWAP1 POP PUSH1 0x0 PUSH2 0x7F1 DUP9 PUSH1 0x32 PUSH2 0xBD5 JUMP JUMPDEST PUSH2 0x7FC SWAP1 PUSH1 0x64 PUSH2 0xBEC JUMP JUMPDEST SWAP1 POP DUP1 DUP3 LT PUSH2 0x812 JUMPI DUP4 PUSH1 0x1 EQ SWAP3 POP POP POP PUSH2 0x821 JUMP JUMPDEST POP POP DUP2 ISZERO SWAP1 POP PUSH2 0x821 JUMP JUMPDEST POP DUP1 ISZERO JUMPDEST SWAP6 SWAP5 POP POP POP POP POP JUMP JUMPDEST PUSH1 0x0 DUP4 DUP4 DUP4 PUSH1 0x0 DUP1 MLOAD PUSH1 0x20 PUSH2 0xC00 DUP4 CODECOPY DUP2 MLOAD SWAP2 MSTORE DUP4 LT ISZERO DUP1 PUSH2 0x85A JUMPI POP PUSH1 0x0 DUP1 MLOAD PUSH1 0x20 PUSH2 0xC00 DUP4 CODECOPY DUP2 MLOAD SWAP2 MSTORE DUP3 LT ISZERO JUMPDEST DUP1 PUSH2 0x885 JUMPI POP PUSH32 0x30644E72E131A029B85045B68181585D2833E84879B9709143E1F593F0000001 DUP2 LT ISZERO JUMPDEST ISZERO PUSH2 0x896 JUMPI PUSH1 0x0 SWAP4 POP POP POP POP PUSH2 0x8BC JUMP JUMPDEST DUP3 ISZERO DUP1 PUSH2 0x8A3 JUMPI POP DUP3 PUSH1 0x1 EQ JUMPDEST ISZERO PUSH2 0x8B4 JUMPI PUSH1 0x0 SWAP4 POP POP POP POP PUSH2 0x8BC JUMP JUMPDEST PUSH1 0x1 SWAP4 POP POP POP POP JUMPDEST SWAP4 SWAP3 POP POP POP JUMP JUMPDEST PUSH1 0x0 DUP5 PUSH1 0x0 DUP1 MLOAD PUSH1 0x20 PUSH2 0xC00 DUP4 CODECOPY DUP2 MLOAD SWAP2 MSTORE DUP1 DUP5 DUP8 MULMOD DUP3 ADDMOD SWAP1 POP PUSH1 0x0 DUP1 MLOAD PUSH1 0x20 PUSH2 0xC00 DUP4 CODECOPY DUP2 MLOAD SWAP2 MSTORE DUP1 PUSH1 0x0 DUP1 MLOAD PUSH1 0x20 PUSH2 0xC00 DUP4 CODECOPY DUP2 MLOAD SWAP2 MSTORE DUP6 DUP7 MULMOD DUP7 MULMOD DUP3 ADDMOD SWAP7 SWAP6 POP POP POP POP POP POP JUMP JUMPDEST PUSH1 0x0 PUSH1 0x20 DUP3 DUP5 SUB SLT ISZERO PUSH2 0x91F JUMPI PUSH1 0x0 DUP1 REVERT JUMPDEST POP CALLDATALOAD SWAP2 SWAP1 POP JUMP JUMPDEST PUSH1 0x0 PUSH1 0x20 DUP3 DUP5 SUB SLT ISZERO PUSH2 0x938 JUMPI PUSH1 0x0 DUP1 REVERT JUMPDEST DUP2 CALLDATALOAD PUSH1 0x1 PUSH1 0x1 PUSH1 0xA0 SHL SUB DUP2 AND DUP2 EQ PUSH2 0x8BC JUMPI PUSH1 0x0 DUP1 REVERT JUMPDEST PUSH1 0x0 DUP1 DUP3 DUP5 SUB PUSH1 0xC0 DUP2 SLT ISZERO PUSH2 0x963 JUMPI PUSH1 0x0 DUP1 REVERT JUMPDEST DUP4 CALLDATALOAD PUSH8 0xFFFFFFFFFFFFFFFF DUP2 GT ISZERO PUSH2 0x97A JUMPI PUSH1 0x0 DUP1 REVERT JUMPDEST DUP5 ADD PUSH2 0x140 DUP2 DUP8 SUB SLT ISZERO PUSH2 0x98D JUMPI PUSH1 0x0 DUP1 REVERT JUMPDEST SWAP3 POP PUSH1 0xA0 PUSH1 0x1F NOT DUP3 ADD SLT ISZERO PUSH2 0x9A1 JUMPI PUSH1 0x0 DUP1 REVERT JUMPDEST POP PUSH1 0x20 DUP4 ADD SWAP1 POP SWAP3 POP SWAP3 SWAP1 POP JUMP JUMPDEST PUSH1 0x0 DUP1 DUP4 CALLDATALOAD PUSH1 0x1E NOT DUP5 CALLDATASIZE SUB ADD DUP2 SLT PUSH2 0x9C6 JUMPI PUSH1 0x0 DUP1 REVERT JUMPDEST DUP4 ADD PUSH1 0x20 DUP2 ADD SWAP3 POP CALLDATALOAD SWAP1 POP PUSH8 0xFFFFFFFFFFFFFFFF DUP2 GT ISZERO PUSH2 0x9E6 JUMPI PUSH1 0x0 DUP1 REVERT JUMPDEST DUP1 PUSH1 0x5 SHL CALLDATASIZE SUB DUP3 SGT ISZERO PUSH2 0x9F8 JUMPI PUSH1 0x0 DUP1 REVERT JUMPDEST SWAP3 POP SWAP3 SWAP1 POP JUMP JUMPDEST DUP2 DUP4 MSTORE PUSH1 0x0 PUSH1 0x1 PUSH1 0x1 PUSH1 0xFB SHL SUB DUP4 GT ISZERO PUSH2 0xA18 JUMPI PUSH1 0x0 DUP1 REVERT JUMPDEST DUP3 PUSH1 0x5 SHL DUP1 DUP4 PUSH1 0x20 DUP8 ADD CALLDATACOPY SWAP4 SWAP1 SWAP4 ADD PUSH1 0x20 ADD SWAP4 SWAP3 POP POP POP JUMP JUMPDEST PUSH1 0xC0 DUP2 MSTORE DUP3 CALLDATALOAD PUSH1 0xC0 DUP3 ADD MSTORE PUSH1 0x20 DUP4 ADD CALLDATALOAD PUSH1 0xE0 DUP3 ADD MSTORE PUSH1 0x0 PUSH2 0x100 PUSH1 0x40 DUP6 ADD CALLDATALOAD DUP2 DUP5 ADD MSTORE PUSH2 0x120 PUSH1 0x60 DUP7 ADD CALLDATALOAD DUP2 DUP6 ADD MSTORE PUSH2 0x140 PUSH1 0x80 DUP8 ADD CALLDATALOAD DUP2 DUP7 ADD MSTORE PUSH1 0xA0 DUP8 ADD CALLDATALOAD PUSH2 0x160 DUP7 ADD MSTORE PUSH1 0xC0 DUP8 ADD CALLDATALOAD PUSH2 0x180 DUP7 ADD MSTORE PUSH2 0xA8F PUSH1 0xE0 DUP9 ADD DUP9 PUSH2 0x9AF JUMP JUMPDEST DUP3 PUSH2 0x1A0 DUP9 ADD MSTORE PUSH2 0xAA5 PUSH2 0x200 DUP9 ADD DUP3 DUP5 PUSH2 0x9FF JUMP JUMPDEST SWAP5 DUP10 ADD CALLDATALOAD PUSH2 0x1C0 DUP9 ADD MSTORE POP POP POP DUP6 ADD CALLDATALOAD PUSH2 0x1E0 DUP5 ADD MSTORE SWAP1 POP PUSH2 0x8BC PUSH1 0x20 DUP4 ADD DUP5 DUP1 CALLDATALOAD DUP3 MSTORE PUSH1 0x20 DUP2 ADD CALLDATALOAD PUSH1 0x20 DUP4 ADD MSTORE PUSH1 0x40 DUP2 ADD CALLDATALOAD PUSH1 0x40 DUP4 ADD MSTORE PUSH1 0x60 DUP2 ADD CALLDATALOAD PUSH1 0x60 DUP4 ADD MSTORE PUSH1 0x80 DUP2 ADD CALLDATALOAD PUSH1 0x80 DUP4 ADD MSTORE POP POP JUMP JUMPDEST PUSH4 0x4E487B71 PUSH1 0xE0 SHL PUSH1 0x0 MSTORE PUSH1 0x11 PUSH1 0x4 MSTORE PUSH1 0x24 PUSH1 0x0 REVERT JUMPDEST PUSH1 0x0 PUSH1 0x1 DUP3 ADD PUSH2 0xB1D JUMPI PUSH2 0xB1D PUSH2 0xAF5 JUMP JUMPDEST POP PUSH1 0x1 ADD SWAP1 JUMP JUMPDEST DUP2 DUP2 SUB DUP2 DUP2 GT ISZERO PUSH2 0x47E JUMPI PUSH2 0x47E PUSH2 0xAF5 JUMP JUMPDEST PUSH4 0x4E487B71 PUSH1 0xE0 SHL PUSH1 0x0 MSTORE PUSH1 0x32 PUSH1 0x4 MSTORE PUSH1 0x24 PUSH1 0x0 REVERT JUMPDEST PUSH4 0x4E487B71 PUSH1 0xE0 SHL PUSH1 0x0 MSTORE PUSH1 0x12 PUSH1 0x4 MSTORE PUSH1 0x24 PUSH1 0x0 REVERT JUMPDEST PUSH1 0x0 DUP3 PUSH2 0xB72 JUMPI PUSH2 0xB72 PUSH2 0xB4D JUMP JUMPDEST POP MOD SWAP1 JUMP JUMPDEST PUSH1 0x0 DUP3 PUSH2 0xB86 JUMPI PUSH2 0xB86 PUSH2 0xB4D JUMP JUMPDEST POP DIV SWAP1 JUMP JUMPDEST PUSH1 0x0 DUP1 DUP4 CALLDATALOAD PUSH1 0x1E NOT DUP5 CALLDATASIZE SUB ADD DUP2 SLT PUSH2 0xBA2 JUMPI PUSH1 0x0 DUP1 REVERT JUMPDEST DUP4 ADD DUP1 CALLDATALOAD SWAP2 POP PUSH8 0xFFFFFFFFFFFFFFFF DUP3 GT ISZERO PUSH2 0xBBD JUMPI PUSH1 0x0 DUP1 REVERT JUMPDEST PUSH1 0x20 ADD SWAP2 POP PUSH1 0x5 DUP2 SWAP1 SHL CALLDATASIZE SUB DUP3 SGT ISZERO PUSH2 0x9F8 JUMPI PUSH1 0x0 DUP1 REVERT JUMPDEST DUP1 DUP3 MUL DUP2 ISZERO DUP3 DUP3 DIV DUP5 EQ OR PUSH2 0x47E JUMPI PUSH2 0x47E PUSH2 0xAF5 JUMP JUMPDEST DUP1 DUP3 ADD DUP1 DUP3 GT ISZERO PUSH2 0x47E JUMPI PUSH2 0x47E PUSH2 0xAF5 JUMP INVALID ADDRESS PUSH5 0x4E72E131A0 0x29 0xB8 POP GASLIMIT 0xB6 DUP2 DUP2 PC 0x5D SWAP8 DUP2 PUSH11 0x916871CA8D3C208C16D87C REVERT SELFBALANCE LOG2 PUSH5 0x6970667358 0x22 SLT KECCAK256 PUSH15 0x4567C5BD8EDAC7784A20C344659AF7 0x4D MLOAD SWAP12 0xB9 PUSH23 0x82E2D02A3CCE6838D123EB64736F6C6343000813003300 "},"methodIdentifiers":{"MODEL_COMMITMENT()":"5bbcfcd7","PEDERSEN_G()":"aa82a6aa","PEDERSEN_H()":"8b9e7373","agentAuthorizations(address)":"1808d79d","estimateVerificationGas()":"175e82f4","getAgentAuthCount(address)":"526480ff","getProofStatus(bytes32)":"3cced748","verifiedProofs(bytes32)":"176d80c4","verifyZKMLProof((bytes32,bytes32,bytes32,bytes32,bytes32,bytes32,bytes32,bytes32[],uint256,bytes32),(uint256,uint256,uint256,uint256,bytes32))":"472cb120"}}}}}