{"contracts/ZKMLNovaVerifier.sol":{"ZKMLNovaVerifier":{"abi":[{"anonymous":false,"inputs":[{"indexed":true,"internalType":"bytes32","name":"proofHash","type":"bytes32"},{"indexed":false,"internalType":"uint256","name":"timestamp","type":"uint256"}],"name":"ZKMLProofRegistered","type":"event"},{"anonymous":false,"inputs":[{"indexed":true,"internalType":"bytes32","name":"proofHash","type":"bytes32"},{"indexed":true,"internalType":"address","name":"submitter","type":"address"},{"indexed":false,"internalType":"bool","name":"authorized","type":"bool"},{"indexed":false,"internalType":"uint256","name":"agentType","type":"uint256"},{"indexed":false,"internalType":"uint256","name":"decision","type":"uint256"},{"indexed":false,"internalType":"uint256","name":"timestamp","type":"uint256"}],"name":"ZKMLProofVerified","type":"event"},{"inputs":[],"name":"CIRCUIT_DIGEST","outputs":[{"internalType":"bytes32","name":"","type":"bytes32"}],"stateMutability":"view","type":"function"},{"inputs":[{"internalType":"address","name":"","type":"address"}],"name":"authorizedAgents","outputs":[{"internalType":"bool","name":"","type":"bool"}],"stateMutability":"view","type":"function"},{"inputs":[{"internalType":"bytes[]","name":"proofDataArray","type":"bytes[]"},{"internalType":"uint256[4][]","name":"publicInputsArray","type":"uint256[4][]"}],"name":"batchVerifyZKMLProofs","outputs":[{"internalType":"bool[]","name":"results","type":"bool[]"}],"stateMutability":"nonpayable","type":"function"},{"inputs":[],"name":"estimateVerificationGas","outputs":[{"internalType":"uint256","name":"","type":"uint256"}],"stateMutability":"pure","type":"function"},{"inputs":[{"internalType":"address","name":"submitter","type":"address"}],"name":"getLatestProofForSubmitter","outputs":[{"internalType":"bytes32","name":"","type":"bytes32"}],"stateMutability":"view","type":"function"},{"inputs":[{"internalType":"uint256","name":"index","type":"uint256"}],"name":"getProofByIndex","outputs":[{"internalType":"bytes32","name":"","type":"bytes32"}],"stateMutability":"view","type":"function"},{"inputs":[],"name":"getProofCount","outputs":[{"internalType":"uint256","name":"","type":"uint256"}],"stateMutability":"view","type":"function"},{"inputs":[{"internalType":"bytes32","name":"proofHash","type":"bytes32"}],"name":"getProofStatus","outputs":[{"internalType":"bool","name":"isVerified","type":"bool"},{"internalType":"bool","name":"authorized","type":"bool"},{"internalType":"uint256","name":"agentType","type":"uint256"},{"internalType":"uint256","name":"decision","type":"uint256"},{"internalType":"uint256","name":"timestamp","type":"uint256"}],"stateMutability":"view","type":"function"},{"inputs":[{"internalType":"address","name":"agent","type":"address"}],"name":"isAgentAuthorized","outputs":[{"internalType":"bool","name":"","type":"bool"}],"stateMutability":"view","type":"function"},{"inputs":[{"internalType":"uint256","name":"","type":"uint256"}],"name":"proofHashes","outputs":[{"internalType":"bytes32","name":"","type":"bytes32"}],"stateMutability":"view","type":"function"},{"inputs":[{"internalType":"bytes","name":"proofData","type":"bytes"},{"internalType":"uint256[4]","name":"publicInputs","type":"uint256[4]"}],"name":"verifyZKMLProof","outputs":[{"internalType":"bool","name":"authorized","type":"bool"}],"stateMutability":"nonpayable","type":"function"},{"inputs":[{"internalType":"bytes32","name":"","type":"bytes32"}],"name":"zkmlProofs","outputs":[{"internalType":"bytes32","name":"proofHash","type":"bytes32"},{"internalType":"address","name":"submitter","type":"address"},{"internalType":"uint256","name":"agentType","type":"uint256"},{"internalType":"uint256","name":"amountNormalized","type":"uint256"},{"internalType":"uint256","name":"operationType","type":"uint256"},{"internalType":"uint256","name":"riskScore","type":"uint256"},{"internalType":"uint256","name":"decision","type":"uint256"},{"internalType":"bool","name":"authorized","type":"bool"},{"internalType":"uint256","name":"timestamp","type":"uint256"},{"internalType":"bool","name":"isVerified","type":"bool"}],"stateMutability":"view","type":"function"}],"evm":{"bytecode":{"linkReferences":{},"object":"608060405234801561001057600080fd5b50610c46806100206000396000f3fe608060405234801561001057600080fd5b50600436106100b45760003560e01c8063784c28f911610071578063784c28f9146102bd57806396867977146102e4578063a86e9715146102f7578063b326b99a1461030a578063de8f796214610336578063efd760651461034957600080fd5b806304a13df4146100b957806304e5f734146100e1578063175e82f4146101015780633cced748146101145780635be4ee1b146101ef578063710f36c2146101f7575b600080fd5b6100cc6100c736600461092e565b61036c565b60405190151581526020015b60405180910390f35b6100f46100ef3660046109b9565b610612565b6040516100d89190610a81565b620249f05b6040519081526020016100d8565b6101c5610122366004610ac7565b600081815260208181526040918290208251610140810184528154815260018201546001600160a01b03169281019290925260028101549282018390526003810154606083015260048101546080830152600581015460a0830152600681015460c08301819052600782015460ff908116151560e08501819052600884015461010086018190526009909401549091161515610120909401849052929590929450565b6040805195151586529315156020860152928401919091526060830152608082015260a0016100d8565b600254610106565b610267610205366004610ac7565b600060208190529081526040902080546001820154600283015460038401546004850154600586015460068701546007880154600889015460099099015497986001600160a01b03909716979596949593949293919260ff918216929091168a565b604080519a8b526001600160a01b0390991660208b0152978901969096526060880194909452608087019290925260a086015260c0850152151560e08401526101008301521515610120820152610140016100d8565b6101067f1234567890abcdef1234567890abcdef1234567890abcdef1234567890abcdef81565b6101066102f2366004610ac7565b610731565b610106610305366004610ac7565b6107a0565b6100cc610318366004610ae0565b6001600160a01b031660009081526001602052604090205460ff1690565b610106610344366004610ae0565b6107c1565b6100cc610357366004610ae0565b60016020526000908152604090205460ff1681565b60008084848460405160200161038493929190610b09565b60408051601f19818403018152918152815160209283012060008181529283905291206009015490915060ff16156103d25760009081526020819052604090206007015460ff16905061060b565b60006103df86868661084b565b60408051610140810182528481523360208201526001831495509192508101856000602002013581526020018560016004811061041e5761041e610b23565b602002013581526020018560026004811061043b5761043b610b23565b602002013581526020018560036004811061045857610458610b23565b6020908102919091013582528181018490528515801560408085019190915242606080860191909152600160809586018190526000898152808652838120885181559588015186830180546001600160a01b039092166001600160a01b03199092169190911790559287015160028087019190915591870151600386015594860151600485015560a0860151600585015560c0860151600685015560e086015160078501805491151560ff199283161790556101008701516008860155610120909601516009909401805494151594909616939093179094558154928301825592527f405787fa12a823e0f2b7631cc41b3ba8828b3321ca811111fa75cd3aa3bb5ace0183905561058157336000908152600160208190526040909120805460ff191690911790555b817f7a85867447f1a0143daaf82e0e63347172b6fa6f00266419c72a16f32ffb0fc5426040516105b391815260200190565b60405180910390a260408051841515815285356020820152908101829052426060820152339083907fb08ec16900cf36a838b92270a861a25d3ce443e8207fc4a1c878c9273059eba69060800160405180910390a350505b9392505050565b60608382146106605760405162461bcd60e51b8152602060048201526015602482015274082e4e4c2f240d8cadccee8d040dad2e6dac2e8c6d605b1b60448201526064015b60405180910390fd5b8367ffffffffffffffff81111561067957610679610b39565b6040519080825280602002602001820160405280156106a2578160200160208202803683370190505b50905060005b84811015610728576106f48686838181106106c5576106c5610b23565b90506020028101906106d79190610b4f565b8686858181106106e9576106e9610b23565b90506080020161036c565b82828151811061070657610706610b23565b911515602092830291909101909101528061072081610bb3565b9150506106a8565b50949350505050565b600254600090821061077b5760405162461bcd60e51b8152602060048201526013602482015272496e646578206f7574206f6620626f756e647360681b6044820152606401610657565b6002828154811061078e5761078e610b23565b90600052602060002001549050919050565b600281815481106107b057600080fd5b600091825260209091200154905081565b60025460009081906107d590600190610bcc565b90505b60008112610842576000600282815481106107f5576107f5610b23565b6000918252602080832090910154808352908290526040909120600101549091506001600160a01b0380861691160361082f579392505050565b508061083a81610bf3565b9150506107d8565b50600092915050565b6000813560208301356040840135606085013560038414801561086f575060328311155b1561088157600194505050505061060b565b8360021480156108915750601e81105b156108a357600194505050505061060b565b8360011480156108b4575060148311155b156108c657600194505050505061060b565b60468111156108dc57600094505050505061060b565b6032831180156108ec5750600284105b156108fe57600094505050505061060b565b60008411801561090e5750603281105b1561092057600194505050505061060b565b506000979650505050505050565b600080600060a0848603121561094357600080fd5b833567ffffffffffffffff8082111561095b57600080fd5b818601915086601f83011261096f57600080fd5b81358181111561097e57600080fd5b87602082850101111561099057600080fd5b6020830195508094505050508460a0850111156109ac57600080fd5b6020840190509250925092565b600080600080604085870312156109cf57600080fd5b843567ffffffffffffffff808211156109e757600080fd5b818701915087601f8301126109fb57600080fd5b813581811115610a0a57600080fd5b8860208260051b8501011115610a1f57600080fd5b602092830196509450908601359080821115610a3a57600080fd5b818701915087601f830112610a4e57600080fd5b813581811115610a5d57600080fd5b8860208260071b8501011115610a7257600080fd5b95989497505060200194505050565b6020808252825182820181905260009190848201906040850190845b81811015610abb578351151583529284019291840191600101610a9d565b50909695505050505050565b600060208284031215610ad957600080fd5b5035919050565b600060208284031215610af257600080fd5b81356001600160a01b038116811461060b57600080fd5b828482376000838201608084823760800195945050505050565b634e487b7160e01b600052603260045260246000fd5b634e487b7160e01b600052604160045260246000fd5b6000808335601e19843603018112610b6657600080fd5b83018035915067ffffffffffffffff821115610b8157600080fd5b602001915036819003821315610b9657600080fd5b9250929050565b634e487b7160e01b600052601160045260246000fd5b600060018201610bc557610bc5610b9d565b5060010190565b8181036000831280158383131683831282161715610bec57610bec610b9d565b5092915050565b6000600160ff1b8201610c0857610c08610b9d565b50600019019056fea2646970667358221220a0bccfbfab7b473da5c2569b63f247a163eec620ea2c47653e8b71a7d4b7bc5964736f6c63430008130033","opcodes":"PUSH1 0x80 PUSH1 0x40 MSTORE CALLVALUE DUP1 ISZERO PUSH2 0x10 JUMPI PUSH1 0x0 DUP1 REVERT JUMPDEST POP PUSH2 0xC46 DUP1 PUSH2 0x20 PUSH1 0x0 CODECOPY PUSH1 0x0 RETURN INVALID PUSH1 0x80 PUSH1 0x40 MSTORE CALLVALUE DUP1 ISZERO PUSH2 0x10 JUMPI PUSH1 0x0 DUP1 REVERT JUMPDEST POP PUSH1 0x4 CALLDATASIZE LT PUSH2 0xB4 JUMPI PUSH1 0x0 CALLDATALOAD PUSH1 0xE0 SHR DUP1 PUSH4 0x784C28F9 GT PUSH2 0x71 JUMPI DUP1 PUSH4 0x784C28F9 EQ PUSH2 0x2BD JUMPI DUP1 PUSH4 0x96867977 EQ PUSH2 0x2E4 JUMPI DUP1 PUSH4 0xA86E9715 EQ PUSH2 0x2F7 JUMPI DUP1 PUSH4 0xB326B99A EQ PUSH2 0x30A JUMPI DUP1 PUSH4 0xDE8F7962 EQ PUSH2 0x336 JUMPI DUP1 PUSH4 0xEFD76065 EQ PUSH2 0x349 JUMPI PUSH1 0x0 DUP1 REVERT JUMPDEST DUP1 PUSH4 0x4A13DF4 EQ PUSH2 0xB9 JUMPI DUP1 PUSH4 0x4E5F734 EQ PUSH2 0xE1 JUMPI DUP1 PUSH4 0x175E82F4 EQ PUSH2 0x101 JUMPI DUP1 PUSH4 0x3CCED748 EQ PUSH2 0x114 JUMPI DUP1 PUSH4 0x5BE4EE1B EQ PUSH2 0x1EF JUMPI DUP1 PUSH4 0x710F36C2 EQ PUSH2 0x1F7 JUMPI JUMPDEST PUSH1 0x0 DUP1 REVERT JUMPDEST PUSH2 0xCC PUSH2 0xC7 CALLDATASIZE PUSH1 0x4 PUSH2 0x92E JUMP JUMPDEST PUSH2 0x36C JUMP JUMPDEST PUSH1 0x40 MLOAD SWAP1 ISZERO ISZERO DUP2 MSTORE PUSH1 0x20 ADD JUMPDEST PUSH1 0x40 MLOAD DUP1 SWAP2 SUB SWAP1 RETURN JUMPDEST PUSH2 0xF4 PUSH2 0xEF CALLDATASIZE PUSH1 0x4 PUSH2 0x9B9 JUMP JUMPDEST PUSH2 0x612 JUMP JUMPDEST PUSH1 0x40 MLOAD PUSH2 0xD8 SWAP2 SWAP1 PUSH2 0xA81 JUMP JUMPDEST PUSH3 0x249F0 JUMPDEST PUSH1 0x40 MLOAD SWAP1 DUP2 MSTORE PUSH1 0x20 ADD PUSH2 0xD8 JUMP JUMPDEST PUSH2 0x1C5 PUSH2 0x122 CALLDATASIZE PUSH1 0x4 PUSH2 0xAC7 JUMP JUMPDEST PUSH1 0x0 DUP2 DUP2 MSTORE PUSH1 0x20 DUP2 DUP2 MSTORE PUSH1 0x40 SWAP2 DUP3 SWAP1 KECCAK256 DUP3 MLOAD PUSH2 0x140 DUP2 ADD DUP5 MSTORE DUP2 SLOAD DUP2 MSTORE PUSH1 0x1 DUP3 ADD SLOAD PUSH1 0x1 PUSH1 0x1 PUSH1 0xA0 SHL SUB AND SWAP3 DUP2 ADD SWAP3 SWAP1 SWAP3 MSTORE PUSH1 0x2 DUP2 ADD SLOAD SWAP3 DUP3 ADD DUP4 SWAP1 MSTORE PUSH1 0x3 DUP2 ADD SLOAD PUSH1 0x60 DUP4 ADD MSTORE PUSH1 0x4 DUP2 ADD SLOAD PUSH1 0x80 DUP4 ADD MSTORE PUSH1 0x5 DUP2 ADD SLOAD PUSH1 0xA0 DUP4 ADD MSTORE PUSH1 0x6 DUP2 ADD SLOAD PUSH1 0xC0 DUP4 ADD DUP2 SWAP1 MSTORE PUSH1 0x7 DUP3 ADD SLOAD PUSH1 0xFF SWAP1 DUP2 AND ISZERO ISZERO PUSH1 0xE0 DUP6 ADD DUP2 SWAP1 MSTORE PUSH1 0x8 DUP5 ADD SLOAD PUSH2 0x100 DUP7 ADD DUP2 SWAP1 MSTORE PUSH1 0x9 SWAP1 SWAP5 ADD SLOAD SWAP1 SWAP2 AND ISZERO ISZERO PUSH2 0x120 SWAP1 SWAP5 ADD DUP5 SWAP1 MSTORE SWAP3 SWAP6 SWAP1 SWAP3 SWAP5 POP JUMP JUMPDEST PUSH1 0x40 DUP1 MLOAD SWAP6 ISZERO ISZERO DUP7 MSTORE SWAP4 ISZERO ISZERO PUSH1 0x20 DUP7 ADD MSTORE SWAP3 DUP5 ADD SWAP2 SWAP1 SWAP2 MSTORE PUSH1 0x60 DUP4 ADD MSTORE PUSH1 0x80 DUP3 ADD MSTORE PUSH1 0xA0 ADD PUSH2 0xD8 JUMP JUMPDEST PUSH1 0x2 SLOAD PUSH2 0x106 JUMP JUMPDEST PUSH2 0x267 PUSH2 0x205 CALLDATASIZE PUSH1 0x4 PUSH2 0xAC7 JUMP JUMPDEST PUSH1 0x0 PUSH1 0x20 DUP2 SWAP1 MSTORE SWAP1 DUP2 MSTORE PUSH1 0x40 SWAP1 KECCAK256 DUP1 SLOAD PUSH1 0x1 DUP3 ADD SLOAD PUSH1 0x2 DUP4 ADD SLOAD PUSH1 0x3 DUP5 ADD SLOAD PUSH1 0x4 DUP6 ADD SLOAD PUSH1 0x5 DUP7 ADD SLOAD PUSH1 0x6 DUP8 ADD SLOAD PUSH1 0x7 DUP9 ADD SLOAD PUSH1 0x8 DUP10 ADD SLOAD PUSH1 0x9 SWAP1 SWAP10 ADD SLOAD SWAP8 SWAP9 PUSH1 0x1 PUSH1 0x1 PUSH1 0xA0 SHL SUB SWAP1 SWAP8 AND SWAP8 SWAP6 SWAP7 SWAP5 SWAP6 SWAP4 SWAP5 SWAP3 SWAP4 SWAP2 SWAP3 PUSH1 0xFF SWAP2 DUP3 AND SWAP3 SWAP1 SWAP2 AND DUP11 JUMP JUMPDEST PUSH1 0x40 DUP1 MLOAD SWAP11 DUP12 MSTORE PUSH1 0x1 PUSH1 0x1 PUSH1 0xA0 SHL SUB SWAP1 SWAP10 AND PUSH1 0x20 DUP12 ADD MSTORE SWAP8 DUP10 ADD SWAP7 SWAP1 SWAP7 MSTORE PUSH1 0x60 DUP9 ADD SWAP5 SWAP1 SWAP5 MSTORE PUSH1 0x80 DUP8 ADD SWAP3 SWAP1 SWAP3 MSTORE PUSH1 0xA0 DUP7 ADD MSTORE PUSH1 0xC0 DUP6 ADD MSTORE ISZERO ISZERO PUSH1 0xE0 DUP5 ADD MSTORE PUSH2 0x100 DUP4 ADD MSTORE ISZERO ISZERO PUSH2 0x120 DUP3 ADD MSTORE PUSH2 0x140 ADD PUSH2 0xD8 JUMP JUMPDEST PUSH2 0x106 PUSH32 0x1234567890ABCDEF1234567890ABCDEF1234567890ABCDEF1234567890ABCDEF DUP2 JUMP JUMPDEST PUSH2 0x106 PUSH2 0x2F2 CALLDATASIZE PUSH1 0x4 PUSH2 0xAC7 JUMP JUMPDEST PUSH2 0x731 JUMP JUMPDEST PUSH2 0x106 PUSH2 0x305 CALLDATASIZE PUSH1 0x4 PUSH2 0xAC7 JUMP JUMPDEST PUSH2 0x7A0 JUMP JUMPDEST PUSH2 0xCC PUSH2 0x318 CALLDATASIZE PUSH1 0x4 PUSH2 0xAE0 JUMP JUMPDEST PUSH1 0x1 PUSH1 0x1 PUSH1 0xA0 SHL SUB AND PUSH1 0x0 SWAP1 DUP2 MSTORE PUSH1 0x1 PUSH1 0x20 MSTORE PUSH1 0x40 SWAP1 KECCAK256 SLOAD PUSH1 0xFF AND SWAP1 JUMP JUMPDEST PUSH2 0x106 PUSH2 0x344 CALLDATASIZE PUSH1 0x4 PUSH2 0xAE0 JUMP JUMPDEST PUSH2 0x7C1 JUMP JUMPDEST PUSH2 0xCC PUSH2 0x357 CALLDATASIZE PUSH1 0x4 PUSH2 0xAE0 JUMP JUMPDEST PUSH1 0x1 PUSH1 0x20 MSTORE PUSH1 0x0 SWAP1 DUP2 MSTORE PUSH1 0x40 SWAP1 KECCAK256 SLOAD PUSH1 0xFF AND DUP2 JUMP JUMPDEST PUSH1 0x0 DUP1 DUP5 DUP5 DUP5 PUSH1 0x40 MLOAD PUSH1 0x20 ADD PUSH2 0x384 SWAP4 SWAP3 SWAP2 SWAP1 PUSH2 0xB09 JUMP JUMPDEST PUSH1 0x40 DUP1 MLOAD PUSH1 0x1F NOT DUP2 DUP5 SUB ADD DUP2 MSTORE SWAP2 DUP2 MSTORE DUP2 MLOAD PUSH1 0x20 SWAP3 DUP4 ADD KECCAK256 PUSH1 0x0 DUP2 DUP2 MSTORE SWAP3 DUP4 SWAP1 MSTORE SWAP2 KECCAK256 PUSH1 0x9 ADD SLOAD SWAP1 SWAP2 POP PUSH1 0xFF AND ISZERO PUSH2 0x3D2 JUMPI PUSH1 0x0 SWAP1 DUP2 MSTORE PUSH1 0x20 DUP2 SWAP1 MSTORE PUSH1 0x40 SWAP1 KECCAK256 PUSH1 0x7 ADD SLOAD PUSH1 0xFF AND SWAP1 POP PUSH2 0x60B JUMP JUMPDEST PUSH1 0x0 PUSH2 0x3DF DUP7 DUP7 DUP7 PUSH2 0x84B JUMP JUMPDEST PUSH1 0x40 DUP1 MLOAD PUSH2 0x140 DUP2 ADD DUP3 MSTORE DUP5 DUP2 MSTORE CALLER PUSH1 0x20 DUP3 ADD MSTORE PUSH1 0x1 DUP4 EQ SWAP6 POP SWAP2 SWAP3 POP DUP2 ADD DUP6 PUSH1 0x0 PUSH1 0x20 MUL ADD CALLDATALOAD DUP2 MSTORE PUSH1 0x20 ADD DUP6 PUSH1 0x1 PUSH1 0x4 DUP2 LT PUSH2 0x41E JUMPI PUSH2 0x41E PUSH2 0xB23 JUMP JUMPDEST PUSH1 0x20 MUL ADD CALLDATALOAD DUP2 MSTORE PUSH1 0x20 ADD DUP6 PUSH1 0x2 PUSH1 0x4 DUP2 LT PUSH2 0x43B JUMPI PUSH2 0x43B PUSH2 0xB23 JUMP JUMPDEST PUSH1 0x20 MUL ADD CALLDATALOAD DUP2 MSTORE PUSH1 0x20 ADD DUP6 PUSH1 0x3 PUSH1 0x4 DUP2 LT PUSH2 0x458 JUMPI PUSH2 0x458 PUSH2 0xB23 JUMP JUMPDEST PUSH1 0x20 SWAP1 DUP2 MUL SWAP2 SWAP1 SWAP2 ADD CALLDATALOAD DUP3 MSTORE DUP2 DUP2 ADD DUP5 SWAP1 MSTORE DUP6 ISZERO DUP1 ISZERO PUSH1 0x40 DUP1 DUP6 ADD SWAP2 SWAP1 SWAP2 MSTORE TIMESTAMP PUSH1 0x60 DUP1 DUP7 ADD SWAP2 SWAP1 SWAP2 MSTORE PUSH1 0x1 PUSH1 0x80 SWAP6 DUP7 ADD DUP2 SWAP1 MSTORE PUSH1 0x0 DUP10 DUP2 MSTORE DUP1 DUP7 MSTORE DUP4 DUP2 KECCAK256 DUP9 MLOAD DUP2 SSTORE SWAP6 DUP9 ADD MLOAD DUP7 DUP4 ADD DUP1 SLOAD PUSH1 0x1 PUSH1 0x1 PUSH1 0xA0 SHL SUB SWAP1 SWAP3 AND PUSH1 0x1 PUSH1 0x1 PUSH1 0xA0 SHL SUB NOT SWAP1 SWAP3 AND SWAP2 SWAP1 SWAP2 OR SWAP1 SSTORE SWAP3 DUP8 ADD MLOAD PUSH1 0x2 DUP1 DUP8 ADD SWAP2 SWAP1 SWAP2 SSTORE SWAP2 DUP8 ADD MLOAD PUSH1 0x3 DUP7 ADD SSTORE SWAP5 DUP7 ADD MLOAD PUSH1 0x4 DUP6 ADD SSTORE PUSH1 0xA0 DUP7 ADD MLOAD PUSH1 0x5 DUP6 ADD SSTORE PUSH1 0xC0 DUP7 ADD MLOAD PUSH1 0x6 DUP6 ADD SSTORE PUSH1 0xE0 DUP7 ADD MLOAD PUSH1 0x7 DUP6 ADD DUP1 SLOAD SWAP2 ISZERO ISZERO PUSH1 0xFF NOT SWAP3 DUP4 AND OR SWAP1 SSTORE PUSH2 0x100 DUP8 ADD MLOAD PUSH1 0x8 DUP7 ADD SSTORE PUSH2 0x120 SWAP1 SWAP7 ADD MLOAD PUSH1 0x9 SWAP1 SWAP5 ADD DUP1 SLOAD SWAP5 ISZERO ISZERO SWAP5 SWAP1 SWAP7 AND SWAP4 SWAP1 SWAP4 OR SWAP1 SWAP5 SSTORE DUP2 SLOAD SWAP3 DUP4 ADD DUP3 SSTORE SWAP3 MSTORE PUSH32 0x405787FA12A823E0F2B7631CC41B3BA8828B3321CA811111FA75CD3AA3BB5ACE ADD DUP4 SWAP1 SSTORE PUSH2 0x581 JUMPI CALLER PUSH1 0x0 SWAP1 DUP2 MSTORE PUSH1 0x1 PUSH1 0x20 DUP2 SWAP1 MSTORE PUSH1 0x40 SWAP1 SWAP2 KECCAK256 DUP1 SLOAD PUSH1 0xFF NOT AND SWAP1 SWAP2 OR SWAP1 SSTORE JUMPDEST DUP2 PUSH32 0x7A85867447F1A0143DAAF82E0E63347172B6FA6F00266419C72A16F32FFB0FC5 TIMESTAMP PUSH1 0x40 MLOAD PUSH2 0x5B3 SWAP2 DUP2 MSTORE PUSH1 0x20 ADD SWAP1 JUMP JUMPDEST PUSH1 0x40 MLOAD DUP1 SWAP2 SUB SWAP1 LOG2 PUSH1 0x40 DUP1 MLOAD DUP5 ISZERO ISZERO DUP2 MSTORE DUP6 CALLDATALOAD PUSH1 0x20 DUP3 ADD MSTORE SWAP1 DUP2 ADD DUP3 SWAP1 MSTORE TIMESTAMP PUSH1 0x60 DUP3 ADD MSTORE CALLER SWAP1 DUP4 SWAP1 PUSH32 0xB08EC16900CF36A838B92270A861A25D3CE443E8207FC4A1C878C9273059EBA6 SWAP1 PUSH1 0x80 ADD PUSH1 0x40 MLOAD DUP1 SWAP2 SUB SWAP1 LOG3 POP POP JUMPDEST SWAP4 SWAP3 POP POP POP JUMP JUMPDEST PUSH1 0x60 DUP4 DUP3 EQ PUSH2 0x660 JUMPI PUSH1 0x40 MLOAD PUSH3 0x461BCD PUSH1 0xE5 SHL DUP2 MSTORE PUSH1 0x20 PUSH1 0x4 DUP3 ADD MSTORE PUSH1 0x15 PUSH1 0x24 DUP3 ADD MSTORE PUSH21 0x82E4E4C2F240D8CADCCEE8D040DAD2E6DAC2E8C6D PUSH1 0x5B SHL PUSH1 0x44 DUP3 ADD MSTORE PUSH1 0x64 ADD JUMPDEST PUSH1 0x40 MLOAD DUP1 SWAP2 SUB SWAP1 REVERT JUMPDEST DUP4 PUSH8 0xFFFFFFFFFFFFFFFF DUP2 GT ISZERO PUSH2 0x679 JUMPI PUSH2 0x679 PUSH2 0xB39 JUMP JUMPDEST PUSH1 0x40 MLOAD SWAP1 DUP1 DUP3 MSTORE DUP1 PUSH1 0x20 MUL PUSH1 0x20 ADD DUP3 ADD PUSH1 0x40 MSTORE DUP1 ISZERO PUSH2 0x6A2 JUMPI DUP2 PUSH1 0x20 ADD PUSH1 0x20 DUP3 MUL DUP1 CALLDATASIZE DUP4 CALLDATACOPY ADD SWAP1 POP JUMPDEST POP SWAP1 POP PUSH1 0x0 JUMPDEST DUP5 DUP2 LT ISZERO PUSH2 0x728 JUMPI PUSH2 0x6F4 DUP7 DUP7 DUP4 DUP2 DUP2 LT PUSH2 0x6C5 JUMPI PUSH2 0x6C5 PUSH2 0xB23 JUMP JUMPDEST SWAP1 POP PUSH1 0x20 MUL DUP2 ADD SWAP1 PUSH2 0x6D7 SWAP2 SWAP1 PUSH2 0xB4F JUMP JUMPDEST DUP7 DUP7 DUP6 DUP2 DUP2 LT PUSH2 0x6E9 JUMPI PUSH2 0x6E9 PUSH2 0xB23 JUMP JUMPDEST SWAP1 POP PUSH1 0x80 MUL ADD PUSH2 0x36C JUMP JUMPDEST DUP3 DUP3 DUP2 MLOAD DUP2 LT PUSH2 0x706 JUMPI PUSH2 0x706 PUSH2 0xB23 JUMP JUMPDEST SWAP2 ISZERO ISZERO PUSH1 0x20 SWAP3 DUP4 MUL SWAP2 SWAP1 SWAP2 ADD SWAP1 SWAP2 ADD MSTORE DUP1 PUSH2 0x720 DUP2 PUSH2 0xBB3 JUMP JUMPDEST SWAP2 POP POP PUSH2 0x6A8 JUMP JUMPDEST POP SWAP5 SWAP4 POP POP POP POP JUMP JUMPDEST PUSH1 0x2 SLOAD PUSH1 0x0 SWAP1 DUP3 LT PUSH2 0x77B JUMPI PUSH1 0x40 MLOAD PUSH3 0x461BCD PUSH1 0xE5 SHL DUP2 MSTORE PUSH1 0x20 PUSH1 0x4 DUP3 ADD MSTORE PUSH1 0x13 PUSH1 0x24 DUP3 ADD MSTORE PUSH19 0x496E646578206F7574206F6620626F756E6473 PUSH1 0x68 SHL PUSH1 0x44 DUP3 ADD MSTORE PUSH1 0x64 ADD PUSH2 0x657 JUMP JUMPDEST PUSH1 0x2 DUP3 DUP2 SLOAD DUP2 LT PUSH2 0x78E JUMPI PUSH2 0x78E PUSH2 0xB23 JUMP JUMPDEST SWAP1 PUSH1 0x0 MSTORE PUSH1 0x20 PUSH1 0x0 KECCAK256 ADD SLOAD SWAP1 POP SWAP2 SWAP1 POP JUMP JUMPDEST PUSH1 0x2 DUP2 DUP2 SLOAD DUP2 LT PUSH2 0x7B0 JUMPI PUSH1 0x0 DUP1 REVERT JUMPDEST PUSH1 0x0 SWAP2 DUP3 MSTORE PUSH1 0x20 SWAP1 SWAP2 KECCAK256 ADD SLOAD SWAP1 POP DUP2 JUMP JUMPDEST PUSH1 0x2 SLOAD PUSH1 0x0 SWAP1 DUP2 SWAP1 PUSH2 0x7D5 SWAP1 PUSH1 0x1 SWAP1 PUSH2 0xBCC JUMP JUMPDEST SWAP1 POP JUMPDEST PUSH1 0x0 DUP2 SLT PUSH2 0x842 JUMPI PUSH1 0x0 PUSH1 0x2 DUP3 DUP2 SLOAD DUP2 LT PUSH2 0x7F5 JUMPI PUSH2 0x7F5 PUSH2 0xB23 JUMP JUMPDEST PUSH1 0x0 SWAP2 DUP3 MSTORE PUSH1 0x20 DUP1 DUP4 KECCAK256 SWAP1 SWAP2 ADD SLOAD DUP1 DUP4 MSTORE SWAP1 DUP3 SWAP1 MSTORE PUSH1 0x40 SWAP1 SWAP2 KECCAK256 PUSH1 0x1 ADD SLOAD SWAP1 SWAP2 POP PUSH1 0x1 PUSH1 0x1 PUSH1 0xA0 SHL SUB DUP1 DUP7 AND SWAP2 AND SUB PUSH2 0x82F JUMPI SWAP4 SWAP3 POP POP POP JUMP JUMPDEST POP DUP1 PUSH2 0x83A DUP2 PUSH2 0xBF3 JUMP JUMPDEST SWAP2 POP POP PUSH2 0x7D8 JUMP JUMPDEST POP PUSH1 0x0 SWAP3 SWAP2 POP POP JUMP JUMPDEST PUSH1 0x0 DUP2 CALLDATALOAD PUSH1 0x20 DUP4 ADD CALLDATALOAD PUSH1 0x40 DUP5 ADD CALLDATALOAD PUSH1 0x60 DUP6 ADD CALLDATALOAD PUSH1 0x3 DUP5 EQ DUP1 ISZERO PUSH2 0x86F JUMPI POP PUSH1 0x32 DUP4 GT ISZERO JUMPDEST ISZERO PUSH2 0x881 JUMPI PUSH1 0x1 SWAP5 POP POP POP POP POP PUSH2 0x60B JUMP JUMPDEST DUP4 PUSH1 0x2 EQ DUP1 ISZERO PUSH2 0x891 JUMPI POP PUSH1 0x1E DUP2 LT JUMPDEST ISZERO PUSH2 0x8A3 JUMPI PUSH1 0x1 SWAP5 POP POP POP POP POP PUSH2 0x60B JUMP JUMPDEST DUP4 PUSH1 0x1 EQ DUP1 ISZERO PUSH2 0x8B4 JUMPI POP PUSH1 0x14 DUP4 GT ISZERO JUMPDEST ISZERO PUSH2 0x8C6 JUMPI PUSH1 0x1 SWAP5 POP POP POP POP POP PUSH2 0x60B JUMP JUMPDEST PUSH1 0x46 DUP2 GT ISZERO PUSH2 0x8DC JUMPI PUSH1 0x0 SWAP5 POP POP POP POP POP PUSH2 0x60B JUMP JUMPDEST PUSH1 0x32 DUP4 GT DUP1 ISZERO PUSH2 0x8EC JUMPI POP PUSH1 0x2 DUP5 LT JUMPDEST ISZERO PUSH2 0x8FE JUMPI PUSH1 0x0 SWAP5 POP POP POP POP POP PUSH2 0x60B JUMP JUMPDEST PUSH1 0x0 DUP5 GT DUP1 ISZERO PUSH2 0x90E JUMPI POP PUSH1 0x32 DUP2 LT JUMPDEST ISZERO PUSH2 0x920 JUMPI PUSH1 0x1 SWAP5 POP POP POP POP POP PUSH2 0x60B JUMP JUMPDEST POP PUSH1 0x0 SWAP8 SWAP7 POP POP POP POP POP POP POP JUMP JUMPDEST PUSH1 0x0 DUP1 PUSH1 0x0 PUSH1 0xA0 DUP5 DUP7 SUB SLT ISZERO PUSH2 0x943 JUMPI PUSH1 0x0 DUP1 REVERT JUMPDEST DUP4 CALLDATALOAD PUSH8 0xFFFFFFFFFFFFFFFF DUP1 DUP3 GT ISZERO PUSH2 0x95B JUMPI PUSH1 0x0 DUP1 REVERT JUMPDEST DUP2 DUP7 ADD SWAP2 POP DUP7 PUSH1 0x1F DUP4 ADD SLT PUSH2 0x96F JUMPI PUSH1 0x0 DUP1 REVERT JUMPDEST DUP2 CALLDATALOAD DUP2 DUP2 GT ISZERO PUSH2 0x97E JUMPI PUSH1 0x0 DUP1 REVERT JUMPDEST DUP8 PUSH1 0x20 DUP3 DUP6 ADD ADD GT ISZERO PUSH2 0x990 JUMPI PUSH1 0x0 DUP1 REVERT JUMPDEST PUSH1 0x20 DUP4 ADD SWAP6 POP DUP1 SWAP5 POP POP POP POP DUP5 PUSH1 0xA0 DUP6 ADD GT ISZERO PUSH2 0x9AC JUMPI PUSH1 0x0 DUP1 REVERT JUMPDEST PUSH1 0x20 DUP5 ADD SWAP1 POP SWAP3 POP SWAP3 POP SWAP3 JUMP JUMPDEST PUSH1 0x0 DUP1 PUSH1 0x0 DUP1 PUSH1 0x40 DUP6 DUP8 SUB SLT ISZERO PUSH2 0x9CF JUMPI PUSH1 0x0 DUP1 REVERT JUMPDEST DUP5 CALLDATALOAD PUSH8 0xFFFFFFFFFFFFFFFF DUP1 DUP3 GT ISZERO PUSH2 0x9E7 JUMPI PUSH1 0x0 DUP1 REVERT JUMPDEST DUP2 DUP8 ADD SWAP2 POP DUP8 PUSH1 0x1F DUP4 ADD SLT PUSH2 0x9FB JUMPI PUSH1 0x0 DUP1 REVERT JUMPDEST DUP2 CALLDATALOAD DUP2 DUP2 GT ISZERO PUSH2 0xA0A JUMPI PUSH1 0x0 DUP1 REVERT JUMPDEST DUP9 PUSH1 0x20 DUP3 PUSH1 0x5 SHL DUP6 ADD ADD GT ISZERO PUSH2 0xA1F JUMPI PUSH1 0x0 DUP1 REVERT JUMPDEST PUSH1 0x20 SWAP3 DUP4 ADD SWAP7 POP SWAP5 POP SWAP1 DUP7 ADD CALLDATALOAD SWAP1 DUP1 DUP3 GT ISZERO PUSH2 0xA3A JUMPI PUSH1 0x0 DUP1 REVERT JUMPDEST DUP2 DUP8 ADD SWAP2 POP DUP8 PUSH1 0x1F DUP4 ADD SLT PUSH2 0xA4E JUMPI PUSH1 0x0 DUP1 REVERT JUMPDEST DUP2 CALLDATALOAD DUP2 DUP2 GT ISZERO PUSH2 0xA5D JUMPI PUSH1 0x0 DUP1 REVERT JUMPDEST DUP9 PUSH1 0x20 DUP3 PUSH1 0x7 SHL DUP6 ADD ADD GT ISZERO PUSH2 0xA72 JUMPI PUSH1 0x0 DUP1 REVERT JUMPDEST SWAP6 SWAP9 SWAP5 SWAP8 POP POP PUSH1 0x20 ADD SWAP5 POP POP POP JUMP JUMPDEST PUSH1 0x20 DUP1 DUP3 MSTORE DUP3 MLOAD DUP3 DUP3 ADD DUP2 SWAP1 MSTORE PUSH1 0x0 SWAP2 SWAP1 DUP5 DUP3 ADD SWAP1 PUSH1 0x40 DUP6 ADD SWAP1 DUP5 JUMPDEST DUP2 DUP2 LT ISZERO PUSH2 0xABB JUMPI DUP4 MLOAD ISZERO ISZERO DUP4 MSTORE SWAP3 DUP5 ADD SWAP3 SWAP2 DUP5 ADD SWAP2 PUSH1 0x1 ADD PUSH2 0xA9D JUMP JUMPDEST POP SWAP1 SWAP7 SWAP6 POP POP POP POP POP POP JUMP JUMPDEST PUSH1 0x0 PUSH1 0x20 DUP3 DUP5 SUB SLT ISZERO PUSH2 0xAD9 JUMPI PUSH1 0x0 DUP1 REVERT JUMPDEST POP CALLDATALOAD SWAP2 SWAP1 POP JUMP JUMPDEST PUSH1 0x0 PUSH1 0x20 DUP3 DUP5 SUB SLT ISZERO PUSH2 0xAF2 JUMPI PUSH1 0x0 DUP1 REVERT JUMPDEST DUP2 CALLDATALOAD PUSH1 0x1 PUSH1 0x1 PUSH1 0xA0 SHL SUB DUP2 AND DUP2 EQ PUSH2 0x60B JUMPI PUSH1 0x0 DUP1 REVERT JUMPDEST DUP3 DUP5 DUP3 CALLDATACOPY PUSH1 0x0 DUP4 DUP3 ADD PUSH1 0x80 DUP5 DUP3 CALLDATACOPY PUSH1 0x80 ADD SWAP6 SWAP5 POP POP POP POP POP JUMP JUMPDEST PUSH4 0x4E487B71 PUSH1 0xE0 SHL PUSH1 0x0 MSTORE PUSH1 0x32 PUSH1 0x4 MSTORE PUSH1 0x24 PUSH1 0x0 REVERT JUMPDEST PUSH4 0x4E487B71 PUSH1 0xE0 SHL PUSH1 0x0 MSTORE PUSH1 0x41 PUSH1 0x4 MSTORE PUSH1 0x24 PUSH1 0x0 REVERT JUMPDEST PUSH1 0x0 DUP1 DUP4 CALLDATALOAD PUSH1 0x1E NOT DUP5 CALLDATASIZE SUB ADD DUP2 SLT PUSH2 0xB66 JUMPI PUSH1 0x0 DUP1 REVERT JUMPDEST DUP4 ADD DUP1 CALLDATALOAD SWAP2 POP PUSH8 0xFFFFFFFFFFFFFFFF DUP3 GT ISZERO PUSH2 0xB81 JUMPI PUSH1 0x0 DUP1 REVERT JUMPDEST PUSH1 0x20 ADD SWAP2 POP CALLDATASIZE DUP2 SWAP1 SUB DUP3 SGT ISZERO PUSH2 0xB96 JUMPI PUSH1 0x0 DUP1 REVERT JUMPDEST SWAP3 POP SWAP3 SWAP1 POP JUMP JUMPDEST PUSH4 0x4E487B71 PUSH1 0xE0 SHL PUSH1 0x0 MSTORE PUSH1 0x11 PUSH1 0x4 MSTORE PUSH1 0x24 PUSH1 0x0 REVERT JUMPDEST PUSH1 0x0 PUSH1 0x1 DUP3 ADD PUSH2 0xBC5 JUMPI PUSH2 0xBC5 PUSH2 0xB9D JUMP JUMPDEST POP PUSH1 0x1 ADD SWAP1 JUMP JUMPDEST DUP2 DUP2 SUB PUSH1 0x0 DUP4 SLT DUP1 ISZERO DUP4 DUP4 SGT AND DUP4 DUP4 SLT DUP3 AND OR ISZERO PUSH2 0xBEC JUMPI PUSH2 0xBEC PUSH2 0xB9D JUMP JUMPDEST POP SWAP3 SWAP2 POP POP JUMP JUMPDEST PUSH1 0x0 PUSH1 0x1 PUSH1 0xFF SHL DUP3 ADD PUSH2 0xC08 JUMPI PUSH2 0xC08 PUSH2 0xB9D JUMP JUMPDEST POP PUSH1 0x0 NOT ADD SWAP1 JUMP INVALID LOG2 PUSH5 0x6970667358 0x22 SLT KECCAK256 LOG0 0xBC 0xCF 0xBF 0xAB PUSH28 0x473DA5C2569B63F247A163EEC620EA2C47653E8B71A7D4B7BC596473 PUSH16 0x6C634300081300330000000000000000 "},"methodIdentifiers":{"CIRCUIT_DIGEST()":"784c28f9","authorizedAgents(address)":"efd76065","batchVerifyZKMLProofs(bytes[],uint256[4][])":"04e5f734","estimateVerificationGas()":"175e82f4","getLatestProofForSubmitter(address)":"de8f7962","getProofByIndex(uint256)":"96867977","getProofCount()":"5be4ee1b","getProofStatus(bytes32)":"3cced748","isAgentAuthorized(address)":"b326b99a","proofHashes(uint256)":"a86e9715","verifyZKMLProof(bytes,uint256[4])":"04a13df4","zkmlProofs(bytes32)":"710f36c2"}}}}}