{
  "_format": "hh-sol-artifact-1",
  "contractName": "IoTeXNovaDecider",
  "sourceName": "contracts/IoTeXNovaDecider.sol",
  "abi": [
    {
      "anonymous": false,
      "inputs": [
        {
          "indexed": true,
          "internalType": "bytes32",
          "name": "deviceId",
          "type": "bytes32"
        },
        {
          "indexed": true,
          "internalType": "address",
          "name": "owner",
          "type": "address"
        }
      ],
      "name": "DeviceRegistered",
      "type": "event"
    },
    {
      "anonymous": false,
      "inputs": [
        {
          "indexed": true,
          "internalType": "bytes32",
          "name": "deviceId",
          "type": "bytes32"
        },
        {
          "indexed": false,
          "internalType": "uint256",
          "name": "proofId",
          "type": "uint256"
        },
        {
          "indexed": false,
          "internalType": "uint256",
          "name": "timestamp",
          "type": "uint256"
        }
      ],
      "name": "ProximityVerified",
      "type": "event"
    },
    {
      "anonymous": false,
      "inputs": [
        {
          "indexed": true,
          "internalType": "bytes32",
          "name": "deviceId",
          "type": "bytes32"
        },
        {
          "indexed": true,
          "internalType": "address",
          "name": "owner",
          "type": "address"
        },
        {
          "indexed": false,
          "internalType": "uint256",
          "name": "amount",
          "type": "uint256"
        }
      ],
      "name": "RewardsClaimed",
      "type": "event"
    },
    {
      "inputs": [
        {
          "internalType": "bytes32",
          "name": "deviceId",
          "type": "bytes32"
        }
      ],
      "name": "claimRewards",
      "outputs": [],
      "stateMutability": "nonpayable",
      "type": "function"
    },
    {
      "inputs": [
        {
          "internalType": "bytes32",
          "name": "",
          "type": "bytes32"
        }
      ],
      "name": "deviceRewards",
      "outputs": [
        {
          "internalType": "uint256",
          "name": "",
          "type": "uint256"
        }
      ],
      "stateMutability": "view",
      "type": "function"
    },
    {
      "inputs": [
        {
          "internalType": "bytes32",
          "name": "",
          "type": "bytes32"
        }
      ],
      "name": "devices",
      "outputs": [
        {
          "internalType": "address",
          "name": "owner",
          "type": "address"
        },
        {
          "internalType": "bool",
          "name": "registered",
          "type": "bool"
        },
        {
          "internalType": "uint256",
          "name": "registrationTime",
          "type": "uint256"
        },
        {
          "internalType": "uint256",
          "name": "lastProximityProof",
          "type": "uint256"
        }
      ],
      "stateMutability": "view",
      "type": "function"
    },
    {
      "inputs": [
        {
          "internalType": "bytes32",
          "name": "deviceId",
          "type": "bytes32"
        }
      ],
      "name": "getDeviceInfo",
      "outputs": [
        {
          "internalType": "address",
          "name": "owner",
          "type": "address"
        },
        {
          "internalType": "bool",
          "name": "registered",
          "type": "bool"
        },
        {
          "internalType": "uint256",
          "name": "registrationTime",
          "type": "uint256"
        },
        {
          "internalType": "uint256",
          "name": "lastProximityProof",
          "type": "uint256"
        },
        {
          "internalType": "uint256",
          "name": "pendingRewards",
          "type": "uint256"
        }
      ],
      "stateMutability": "view",
      "type": "function"
    },
    {
      "inputs": [
        {
          "internalType": "bytes32",
          "name": "deviceId",
          "type": "bytes32"
        },
        {
          "internalType": "uint256",
          "name": "proofId",
          "type": "uint256"
        }
      ],
      "name": "isProofVerified",
      "outputs": [
        {
          "internalType": "bool",
          "name": "",
          "type": "bool"
        }
      ],
      "stateMutability": "view",
      "type": "function"
    },
    {
      "inputs": [
        {
          "internalType": "bytes32",
          "name": "deviceId",
          "type": "bytes32"
        },
        {
          "internalType": "address",
          "name": "owner",
          "type": "address"
        }
      ],
      "name": "registerDevice",
      "outputs": [],
      "stateMutability": "nonpayable",
      "type": "function"
    },
    {
      "inputs": [
        {
          "internalType": "bytes32",
          "name": "",
          "type": "bytes32"
        },
        {
          "internalType": "uint256",
          "name": "",
          "type": "uint256"
        }
      ],
      "name": "verifiedProofs",
      "outputs": [
        {
          "internalType": "bool",
          "name": "",
          "type": "bool"
        }
      ],
      "stateMutability": "view",
      "type": "function"
    },
    {
      "inputs": [
        {
          "components": [
            {
              "internalType": "uint256[2]",
              "name": "a",
              "type": "uint256[2]"
            },
            {
              "internalType": "uint256[2][2]",
              "name": "b",
              "type": "uint256[2][2]"
            },
            {
              "internalType": "uint256[2]",
              "name": "c",
              "type": "uint256[2]"
            },
            {
              "internalType": "uint256[32]",
              "name": "publicInputs",
              "type": "uint256[32]"
            }
          ],
          "internalType": "struct IoTeXNovaDecider.NovaProof",
          "name": "proof",
          "type": "tuple"
        },
        {
          "internalType": "bytes32",
          "name": "deviceId",
          "type": "bytes32"
        },
        {
          "internalType": "uint256",
          "name": "proofId",
          "type": "uint256"
        },
        {
          "internalType": "bytes",
          "name": "signature",
          "type": "bytes"
        }
      ],
      "name": "verifyDeviceProximity",
      "outputs": [
        {
          "internalType": "bool",
          "name": "",
          "type": "bool"
        }
      ],
      "stateMutability": "nonpayable",
      "type": "function"
    },
    {
      "stateMutability": "payable",
      "type": "receive"
    }
  ],
  "bytecode": "0x608060405234801561001057600080fd5b50610ba8806100206000396000f3fe60806040526004361061007f5760003560e01c8063c5c400de1161004e578063c5c400de146101d2578063e10028ab1461024d578063f4da80df14610288578063fc202261146102a857600080fd5b806359d902ed1461008b5780636ea1b56a146101455780637790ddc6146101755780638e998fe91461019757600080fd5b3661008657005b600080fd5b34801561009757600080fd5b5061010e6100a6366004610830565b600081815260208181526040808320815160808101835281546001600160a01b038116808352600160a01b90910460ff161515828601819052600184015483860181905260029485015460609094018490529787529290945291909320549194929392909190565b604080516001600160a01b0390961686529315156020860152928401919091526060830152608082015260a0015b60405180910390f35b34801561015157600080fd5b506101656101603660046109f6565b6102c8565b604051901515815260200161013c565b34801561018157600080fd5b50610195610190366004610830565b61043a565b005b3480156101a357600080fd5b506101656101b2366004610af3565b600160209081526000928352604080842090915290825290205460ff1681565b3480156101de57600080fd5b506102236101ed366004610830565b6000602081905290815260409020805460018201546002909201546001600160a01b03821692600160a01b90920460ff16919084565b604080516001600160a01b039095168552921515602085015291830152606082015260800161013c565b34801561025957600080fd5b5061027a610268366004610830565b60026020526000908152604090205481565b60405190815260200161013c565b34801561029457600080fd5b506101656102a3366004610af3565b61061c565b3480156102b457600080fd5b506101956102c3366004610b15565b610640565b600083815260208190526040812054600160a01b900460ff1661032a5760405162461bcd60e51b815260206004820152601560248201527411195d9a58d9481b9bdd081c9959da5cdd195c9959605a1b60448201526064015b60405180910390fd5b600084815260016020908152604080832086845290915290205460ff161561038d5760405162461bcd60e51b8152602060048201526016602482015275141c9bdbd988185b1c9958591e481d995c9a599a595960521b6044820152606401610321565b60006103998686610796565b905080156104315760008581526001602081815260408084208885528252808420805460ff191690931790925587835282815281832042600291820155905281208054662386f26fc1000092906103f1908490610b51565b90915550506040805185815242602082015286917f267b87a089a59010a5f6487a568b9a98c82616014f9580beb9efb4d04467d257910160405180910390a25b95945050505050565b600081815260208190526040902054600160a01b900460ff166104975760405162461bcd60e51b815260206004820152601560248201527411195d9a58d9481b9bdd081c9959da5cdd195c9959605a1b6044820152606401610321565b6000818152602081905260409020546001600160a01b031633146104f05760405162461bcd60e51b815260206004820152601060248201526f2737ba103232bb34b1b29037bbb732b960811b6044820152606401610321565b600081815260026020526040902054806105425760405162461bcd60e51b81526020600482015260136024820152724e6f207265776172647320746f20636c61696d60681b6044820152606401610321565b60008281526002602052604080822082905551339083908381818185875af1925050503d8060008114610591576040519150601f19603f3d011682016040523d82523d6000602084013e610596565b606091505b50509050806105e05760405162461bcd60e51b815260206004820152601660248201527514995dd85c99081d1c985b9cd9995c8819985a5b195960521b6044820152606401610321565b604051828152339084907ffec539b3c42d74cd492c3ecf7966bf014b327beef98e935cdc3ec5e54a6901c79060200160405180910390a3505050565b600082815260016020908152604080832084845290915290205460ff165b92915050565b600082815260208190526040902054600160a01b900460ff16156106a65760405162461bcd60e51b815260206004820152601960248201527f44657669636520616c72656164792072656769737465726564000000000000006044820152606401610321565b6001600160a01b0381166106f45760405162461bcd60e51b8152602060048201526015602482015274496e76616c6964206f776e6572206164647265737360581b6044820152606401610321565b604080516080810182526001600160a01b0380841680835260016020808501828152428688019081526000606088018181528b8252938190528881209751885493511515600160a01b026001600160a81b03199094169716969096179190911786555191850191909155516002909301929092559151909184917fd87fed90c1b7378fc9b09cc6f641d001f9d1fdf09b533c90195d4204209d4b839190a35050565b60608201515160009081036107e25760405162461bcd60e51b8152602060048201526012602482015271496e76616c69642070726f6f66206461746160701b6044820152606401610321565b60008290036108275760405162461bcd60e51b8152602060048201526011602482015270125b9d985b1a590819195d9a58d9481251607a1b6044820152606401610321565b50600192915050565b60006020828403121561084257600080fd5b5035919050565b634e487b7160e01b600052604160045260246000fd5b6040516080810167ffffffffffffffff8111828210171561088257610882610849565b60405290565b6040805190810167ffffffffffffffff8111828210171561088257610882610849565b600082601f8301126108bc57600080fd5b6108c4610888565b8060408401858111156108d657600080fd5b845b818110156108f05780358452602093840193016108d8565b509095945050505050565b600082601f83011261090c57600080fd5b60405161040080820182811067ffffffffffffffff8211171561093157610931610849565b6040528301818582111561094457600080fd5b845b8281101561095e578035825260209182019101610946565b509195945050505050565b600082601f83011261097a57600080fd5b813567ffffffffffffffff8082111561099557610995610849565b604051601f8301601f19908116603f011681019082821181831017156109bd576109bd610849565b816040528381528660208588010111156109d657600080fd5b836020870160208301376000602085830101528094505050505092915050565b600080600080848603610560811215610a0e57600080fd5b61050080821215610a1e57600080fd5b610a2661085f565b9150610a3288886108ab565b8252604088605f890112610a4557600080fd5b610a4d610888565b8060c08a018b811115610a5f57600080fd5b838b015b81811015610a8457610a758d826108ab565b84526020909301928401610a63565b50816020870152610a958c826108ab565b8487015250505050610aab8861010089016108fb565b60608301529094508501359250610520850135915061054085013567ffffffffffffffff811115610adb57600080fd5b610ae787828801610969565b91505092959194509250565b60008060408385031215610b0657600080fd5b50508035926020909101359150565b60008060408385031215610b2857600080fd5b8235915060208301356001600160a01b0381168114610b4657600080fd5b809150509250929050565b8082018082111561063a57634e487b7160e01b600052601160045260246000fdfea2646970667358221220f340a7369d51e097148affafdc02692cb4d5ba17c6b5aeba198094b8a57ad6bd64736f6c63430008130033",
  "linkReferences": {},
  "deployedLinkReferences": {}
}