{
  "_format": "hh-sol-artifact-1",
  "contractName": "ZKMLNovaVerifier",
  "sourceName": "contracts/ZKMLNovaVerifier.sol",
  "abi": [
    {
      "anonymous": false,
      "inputs": [
        {
          "indexed": true,
          "internalType": "bytes32",
          "name": "proofHash",
          "type": "bytes32"
        },
        {
          "indexed": false,
          "internalType": "uint256",
          "name": "timestamp",
          "type": "uint256"
        }
      ],
      "name": "ZKMLProofRegistered",
      "type": "event"
    },
    {
      "anonymous": false,
      "inputs": [
        {
          "indexed": true,
          "internalType": "bytes32",
          "name": "proofHash",
          "type": "bytes32"
        },
        {
          "indexed": true,
          "internalType": "address",
          "name": "submitter",
          "type": "address"
        },
        {
          "indexed": false,
          "internalType": "bool",
          "name": "authorized",
          "type": "bool"
        },
        {
          "indexed": false,
          "internalType": "uint256",
          "name": "agentType",
          "type": "uint256"
        },
        {
          "indexed": false,
          "internalType": "uint256",
          "name": "decision",
          "type": "uint256"
        },
        {
          "indexed": false,
          "internalType": "uint256",
          "name": "timestamp",
          "type": "uint256"
        }
      ],
      "name": "ZKMLProofVerified",
      "type": "event"
    },
    {
      "inputs": [],
      "name": "CIRCUIT_DIGEST",
      "outputs": [
        {
          "internalType": "bytes32",
          "name": "",
          "type": "bytes32"
        }
      ],
      "stateMutability": "view",
      "type": "function"
    },
    {
      "inputs": [
        {
          "internalType": "address",
          "name": "",
          "type": "address"
        }
      ],
      "name": "authorizedAgents",
      "outputs": [
        {
          "internalType": "bool",
          "name": "",
          "type": "bool"
        }
      ],
      "stateMutability": "view",
      "type": "function"
    },
    {
      "inputs": [
        {
          "internalType": "bytes[]",
          "name": "proofDataArray",
          "type": "bytes[]"
        },
        {
          "internalType": "uint256[4][]",
          "name": "publicInputsArray",
          "type": "uint256[4][]"
        }
      ],
      "name": "batchVerifyZKMLProofs",
      "outputs": [
        {
          "internalType": "bool[]",
          "name": "results",
          "type": "bool[]"
        }
      ],
      "stateMutability": "nonpayable",
      "type": "function"
    },
    {
      "inputs": [],
      "name": "estimateVerificationGas",
      "outputs": [
        {
          "internalType": "uint256",
          "name": "",
          "type": "uint256"
        }
      ],
      "stateMutability": "pure",
      "type": "function"
    },
    {
      "inputs": [
        {
          "internalType": "address",
          "name": "submitter",
          "type": "address"
        }
      ],
      "name": "getLatestProofForSubmitter",
      "outputs": [
        {
          "internalType": "bytes32",
          "name": "",
          "type": "bytes32"
        }
      ],
      "stateMutability": "view",
      "type": "function"
    },
    {
      "inputs": [
        {
          "internalType": "uint256",
          "name": "index",
          "type": "uint256"
        }
      ],
      "name": "getProofByIndex",
      "outputs": [
        {
          "internalType": "bytes32",
          "name": "",
          "type": "bytes32"
        }
      ],
      "stateMutability": "view",
      "type": "function"
    },
    {
      "inputs": [],
      "name": "getProofCount",
      "outputs": [
        {
          "internalType": "uint256",
          "name": "",
          "type": "uint256"
        }
      ],
      "stateMutability": "view",
      "type": "function"
    },
    {
      "inputs": [
        {
          "internalType": "bytes32",
          "name": "proofHash",
          "type": "bytes32"
        }
      ],
      "name": "getProofStatus",
      "outputs": [
        {
          "internalType": "bool",
          "name": "isVerified",
          "type": "bool"
        },
        {
          "internalType": "bool",
          "name": "authorized",
          "type": "bool"
        },
        {
          "internalType": "uint256",
          "name": "agentType",
          "type": "uint256"
        },
        {
          "internalType": "uint256",
          "name": "decision",
          "type": "uint256"
        },
        {
          "internalType": "uint256",
          "name": "timestamp",
          "type": "uint256"
        }
      ],
      "stateMutability": "view",
      "type": "function"
    },
    {
      "inputs": [
        {
          "internalType": "address",
          "name": "agent",
          "type": "address"
        }
      ],
      "name": "isAgentAuthorized",
      "outputs": [
        {
          "internalType": "bool",
          "name": "",
          "type": "bool"
        }
      ],
      "stateMutability": "view",
      "type": "function"
    },
    {
      "inputs": [
        {
          "internalType": "uint256",
          "name": "",
          "type": "uint256"
        }
      ],
      "name": "proofHashes",
      "outputs": [
        {
          "internalType": "bytes32",
          "name": "",
          "type": "bytes32"
        }
      ],
      "stateMutability": "view",
      "type": "function"
    },
    {
      "inputs": [
        {
          "internalType": "bytes",
          "name": "proofData",
          "type": "bytes"
        },
        {
          "internalType": "uint256[4]",
          "name": "publicInputs",
          "type": "uint256[4]"
        }
      ],
      "name": "verifyZKMLProof",
      "outputs": [
        {
          "internalType": "bool",
          "name": "authorized",
          "type": "bool"
        }
      ],
      "stateMutability": "nonpayable",
      "type": "function"
    },
    {
      "inputs": [
        {
          "internalType": "bytes32",
          "name": "",
          "type": "bytes32"
        }
      ],
      "name": "zkmlProofs",
      "outputs": [
        {
          "internalType": "bytes32",
          "name": "proofHash",
          "type": "bytes32"
        },
        {
          "internalType": "address",
          "name": "submitter",
          "type": "address"
        },
        {
          "internalType": "uint256",
          "name": "agentType",
          "type": "uint256"
        },
        {
          "internalType": "uint256",
          "name": "amountNormalized",
          "type": "uint256"
        },
        {
          "internalType": "uint256",
          "name": "operationType",
          "type": "uint256"
        },
        {
          "internalType": "uint256",
          "name": "riskScore",
          "type": "uint256"
        },
        {
          "internalType": "uint256",
          "name": "decision",
          "type": "uint256"
        },
        {
          "internalType": "bool",
          "name": "authorized",
          "type": "bool"
        },
        {
          "internalType": "uint256",
          "name": "timestamp",
          "type": "uint256"
        },
        {
          "internalType": "bool",
          "name": "isVerified",
          "type": "bool"
        }
      ],
      "stateMutability": "view",
      "type": "function"
    }
  ],
  "bytecode": "0x608060405234801561001057600080fd5b50610c46806100206000396000f3fe608060405234801561001057600080fd5b50600436106100b45760003560e01c8063784c28f911610071578063784c28f9146102bd57806396867977146102e4578063a86e9715146102f7578063b326b99a1461030a578063de8f796214610336578063efd760651461034957600080fd5b806304a13df4146100b957806304e5f734146100e1578063175e82f4146101015780633cced748146101145780635be4ee1b146101ef578063710f36c2146101f7575b600080fd5b6100cc6100c736600461092e565b61036c565b60405190151581526020015b60405180910390f35b6100f46100ef3660046109b9565b610612565b6040516100d89190610a81565b620249f05b6040519081526020016100d8565b6101c5610122366004610ac7565b600081815260208181526040918290208251610140810184528154815260018201546001600160a01b03169281019290925260028101549282018390526003810154606083015260048101546080830152600581015460a0830152600681015460c08301819052600782015460ff908116151560e08501819052600884015461010086018190526009909401549091161515610120909401849052929590929450565b6040805195151586529315156020860152928401919091526060830152608082015260a0016100d8565b600254610106565b610267610205366004610ac7565b600060208190529081526040902080546001820154600283015460038401546004850154600586015460068701546007880154600889015460099099015497986001600160a01b03909716979596949593949293919260ff918216929091168a565b604080519a8b526001600160a01b0390991660208b0152978901969096526060880194909452608087019290925260a086015260c0850152151560e08401526101008301521515610120820152610140016100d8565b6101067f1234567890abcdef1234567890abcdef1234567890abcdef1234567890abcdef81565b6101066102f2366004610ac7565b610731565b610106610305366004610ac7565b6107a0565b6100cc610318366004610ae0565b6001600160a01b031660009081526001602052604090205460ff1690565b610106610344366004610ae0565b6107c1565b6100cc610357366004610ae0565b60016020526000908152604090205460ff1681565b60008084848460405160200161038493929190610b09565b60408051601f19818403018152918152815160209283012060008181529283905291206009015490915060ff16156103d25760009081526020819052604090206007015460ff16905061060b565b60006103df86868661084b565b60408051610140810182528481523360208201526001831495509192508101856000602002013581526020018560016004811061041e5761041e610b23565b602002013581526020018560026004811061043b5761043b610b23565b602002013581526020018560036004811061045857610458610b23565b6020908102919091013582528181018490528515801560408085019190915242606080860191909152600160809586018190526000898152808652838120885181559588015186830180546001600160a01b039092166001600160a01b03199092169190911790559287015160028087019190915591870151600386015594860151600485015560a0860151600585015560c0860151600685015560e086015160078501805491151560ff199283161790556101008701516008860155610120909601516009909401805494151594909616939093179094558154928301825592527f405787fa12a823e0f2b7631cc41b3ba8828b3321ca811111fa75cd3aa3bb5ace0183905561058157336000908152600160208190526040909120805460ff191690911790555b817f7a85867447f1a0143daaf82e0e63347172b6fa6f00266419c72a16f32ffb0fc5426040516105b391815260200190565b60405180910390a260408051841515815285356020820152908101829052426060820152339083907fb08ec16900cf36a838b92270a861a25d3ce443e8207fc4a1c878c9273059eba69060800160405180910390a350505b9392505050565b60608382146106605760405162461bcd60e51b8152602060048201526015602482015274082e4e4c2f240d8cadccee8d040dad2e6dac2e8c6d605b1b60448201526064015b60405180910390fd5b8367ffffffffffffffff81111561067957610679610b39565b6040519080825280602002602001820160405280156106a2578160200160208202803683370190505b50905060005b84811015610728576106f48686838181106106c5576106c5610b23565b90506020028101906106d79190610b4f565b8686858181106106e9576106e9610b23565b90506080020161036c565b82828151811061070657610706610b23565b911515602092830291909101909101528061072081610bb3565b9150506106a8565b50949350505050565b600254600090821061077b5760405162461bcd60e51b8152602060048201526013602482015272496e646578206f7574206f6620626f756e647360681b6044820152606401610657565b6002828154811061078e5761078e610b23565b90600052602060002001549050919050565b600281815481106107b057600080fd5b600091825260209091200154905081565b60025460009081906107d590600190610bcc565b90505b60008112610842576000600282815481106107f5576107f5610b23565b6000918252602080832090910154808352908290526040909120600101549091506001600160a01b0380861691160361082f579392505050565b508061083a81610bf3565b9150506107d8565b50600092915050565b6000813560208301356040840135606085013560038414801561086f575060328311155b1561088157600194505050505061060b565b8360021480156108915750601e81105b156108a357600194505050505061060b565b8360011480156108b4575060148311155b156108c657600194505050505061060b565b60468111156108dc57600094505050505061060b565b6032831180156108ec5750600284105b156108fe57600094505050505061060b565b60008411801561090e5750603281105b1561092057600194505050505061060b565b506000979650505050505050565b600080600060a0848603121561094357600080fd5b833567ffffffffffffffff8082111561095b57600080fd5b818601915086601f83011261096f57600080fd5b81358181111561097e57600080fd5b87602082850101111561099057600080fd5b6020830195508094505050508460a0850111156109ac57600080fd5b6020840190509250925092565b600080600080604085870312156109cf57600080fd5b843567ffffffffffffffff808211156109e757600080fd5b818701915087601f8301126109fb57600080fd5b813581811115610a0a57600080fd5b8860208260051b8501011115610a1f57600080fd5b602092830196509450908601359080821115610a3a57600080fd5b818701915087601f830112610a4e57600080fd5b813581811115610a5d57600080fd5b8860208260071b8501011115610a7257600080fd5b95989497505060200194505050565b6020808252825182820181905260009190848201906040850190845b81811015610abb578351151583529284019291840191600101610a9d565b50909695505050505050565b600060208284031215610ad957600080fd5b5035919050565b600060208284031215610af257600080fd5b81356001600160a01b038116811461060b57600080fd5b828482376000838201608084823760800195945050505050565b634e487b7160e01b600052603260045260246000fd5b634e487b7160e01b600052604160045260246000fd5b6000808335601e19843603018112610b6657600080fd5b83018035915067ffffffffffffffff821115610b8157600080fd5b602001915036819003821315610b9657600080fd5b9250929050565b634e487b7160e01b600052601160045260246000fd5b600060018201610bc557610bc5610b9d565b5060010190565b8181036000831280158383131683831282161715610bec57610bec610b9d565b5092915050565b6000600160ff1b8201610c0857610c08610b9d565b50600019019056fea2646970667358221220a0bccfbfab7b473da5c2569b63f247a163eec620ea2c47653e8b71a7d4b7bc5964736f6c63430008130033",
  "linkReferences": {},
  "deployedLinkReferences": {}
}