{
  "_format": "hh-sol-artifact-1",
  "contractName": "MockVerifier",
  "sourceName": "contracts/MockVerifier.sol",
  "abi": [
    {
      "anonymous": false,
      "inputs": [
        {
          "indexed": true,
          "internalType": "bytes32",
          "name": "proofId",
          "type": "bytes32"
        },
        {
          "indexed": true,
          "internalType": "address",
          "name": "verifier",
          "type": "address"
        },
        {
          "indexed": false,
          "internalType": "uint256",
          "name": "timestamp",
          "type": "uint256"
        },
        {
          "indexed": false,
          "internalType": "bool",
          "name": "isValid",
          "type": "bool"
        }
      ],
      "name": "ProofVerified",
      "type": "event"
    },
    {
      "inputs": [
        {
          "internalType": "bytes32",
          "name": "proofId",
          "type": "bytes32"
        }
      ],
      "name": "getProofStatus",
      "outputs": [
        {
          "internalType": "bool",
          "name": "isVerified",
          "type": "bool"
        },
        {
          "internalType": "uint256",
          "name": "timestamp",
          "type": "uint256"
        }
      ],
      "stateMutability": "view",
      "type": "function"
    },
    {
      "inputs": [
        {
          "internalType": "bytes32",
          "name": "",
          "type": "bytes32"
        }
      ],
      "name": "proofTimestamps",
      "outputs": [
        {
          "internalType": "uint256",
          "name": "",
          "type": "uint256"
        }
      ],
      "stateMutability": "view",
      "type": "function"
    },
    {
      "inputs": [
        {
          "internalType": "bytes32",
          "name": "",
          "type": "bytes32"
        }
      ],
      "name": "verifiedProofs",
      "outputs": [
        {
          "internalType": "bool",
          "name": "",
          "type": "bool"
        }
      ],
      "stateMutability": "view",
      "type": "function"
    },
    {
      "inputs": [
        {
          "internalType": "uint256[2]",
          "name": "a",
          "type": "uint256[2]"
        },
        {
          "internalType": "uint256[2][2]",
          "name": "b",
          "type": "uint256[2][2]"
        },
        {
          "internalType": "uint256[2]",
          "name": "c",
          "type": "uint256[2]"
        },
        {
          "internalType": "uint256[]",
          "name": "publicSignals",
          "type": "uint256[]"
        }
      ],
      "name": "verifyProof",
      "outputs": [
        {
          "internalType": "bool",
          "name": "",
          "type": "bool"
        }
      ],
      "stateMutability": "nonpayable",
      "type": "function"
    }
  ],
  "bytecode": "0x608060405234801561001057600080fd5b506104ae806100206000396000f3fe608060405234801561001057600080fd5b506004361061004c5760003560e01c8063176d80c4146100515780633cced748146100895780636cd0684a146100cf578063c32e370e146100fd575b600080fd5b61007461005f3660046101a8565b60006020819052908152604090205460ff1681565b60405190151581526020015b60405180910390f35b6100b86100973660046101a8565b6000908152602081815260408083205460019092529091205460ff90911691565b604080519215158352602083019190915201610080565b6100ef6100dd3660046101a8565b60016020526000908152604090205481565b604051908152602001610080565b61007461010b3660046102eb565b6000808585858560405160200161012594939291906103ce565b60408051601f1981840301815282825280516020918201206000818152808352838120805460ff191660019081179091558084529084902042908190558552918401919091529250339183917f0c18d565a7febe35e08639fd1d1879e6a9e9f033a6d1f8340448b35e4fd342ef910160405180910390a350600195945050505050565b6000602082840312156101ba57600080fd5b5035919050565b634e487b7160e01b600052604160045260246000fd5b6040805190810167ffffffffffffffff811182821017156101fa576101fa6101c1565b60405290565b600082601f83011261021157600080fd5b6102196101d7565b80604084018581111561022b57600080fd5b845b8181101561024557803584526020938401930161022d565b509095945050505050565b600082601f83011261026157600080fd5b8135602067ffffffffffffffff8083111561027e5761027e6101c1565b8260051b604051601f19603f830116810181811084821117156102a3576102a36101c1565b6040529384528581018301938381019250878511156102c157600080fd5b83870191505b848210156102e0578135835291830191908301906102c7565b979650505050505050565b600080600080610120858703121561030257600080fd5b61030c8686610200565b9350604086605f87011261031f57600080fd5b6103276101d7565b8060c088018981111561033957600080fd5b8389015b8181101561035e5761034f8b82610200565b8452602090930192840161033d565b5081965061036c8a82610200565b95505050505061010085013567ffffffffffffffff81111561038d57600080fd5b61039987828801610250565b91505092959194509250565b8060005b60028110156103c85781518452602093840193909101906001016103a9565b50505050565b6103d881866103a5565b600060408083018660005b60028082106103f2575061042d565b82518460005b838110156104165782518252602092830192909101906001016103f8565b5050509284019250602091909101906001016103e3565b5050505061043e60c08301856103a5565b61010082018351602080860160005b838110156104695781518552938201939082019060010161044d565b5092999850505050505050505056fea26469706673582212205d181964ca9795ff230bfb5c48a3cf8274edef8d27e392b6b2f697600aa09c7464736f6c63430008130033",
  "linkReferences": {},
  "deployedLinkReferences": {}
}