{
  "_format": "hh-sol-artifact-1",
  "contractName": "MockNovaVerifier",
  "sourceName": "contracts/MockNovaVerifier.sol",
  "abi": [
    {
      "inputs": [],
      "stateMutability": "nonpayable",
      "type": "constructor"
    },
    {
      "anonymous": false,
      "inputs": [
        {
          "indexed": true,
          "internalType": "bytes32",
          "name": "proofHash",
          "type": "bytes32"
        },
        {
          "indexed": false,
          "internalType": "string",
          "name": "proofType",
          "type": "string"
        },
        {
          "indexed": false,
          "internalType": "uint256",
          "name": "timestamp",
          "type": "uint256"
        }
      ],
      "name": "ProofRegistered",
      "type": "event"
    },
    {
      "anonymous": false,
      "inputs": [
        {
          "indexed": true,
          "internalType": "bytes32",
          "name": "proofHash",
          "type": "bytes32"
        },
        {
          "indexed": true,
          "internalType": "address",
          "name": "verifier",
          "type": "address"
        },
        {
          "indexed": false,
          "internalType": "bool",
          "name": "isValid",
          "type": "bool"
        },
        {
          "indexed": false,
          "internalType": "uint256",
          "name": "timestamp",
          "type": "uint256"
        }
      ],
      "name": "ProofVerified",
      "type": "event"
    },
    {
      "inputs": [],
      "name": "estimateVerificationGas",
      "outputs": [
        {
          "internalType": "uint256",
          "name": "",
          "type": "uint256"
        }
      ],
      "stateMutability": "pure",
      "type": "function"
    },
    {
      "inputs": [
        {
          "internalType": "uint256",
          "name": "index",
          "type": "uint256"
        }
      ],
      "name": "getProofByIndex",
      "outputs": [
        {
          "internalType": "bytes32",
          "name": "",
          "type": "bytes32"
        }
      ],
      "stateMutability": "view",
      "type": "function"
    },
    {
      "inputs": [],
      "name": "getProofCount",
      "outputs": [
        {
          "internalType": "uint256",
          "name": "",
          "type": "uint256"
        }
      ],
      "stateMutability": "view",
      "type": "function"
    },
    {
      "inputs": [
        {
          "internalType": "bytes32",
          "name": "proofHash",
          "type": "bytes32"
        }
      ],
      "name": "getProofStatus",
      "outputs": [
        {
          "internalType": "bool",
          "name": "isVerified",
          "type": "bool"
        },
        {
          "internalType": "bool",
          "name": "isValid",
          "type": "bool"
        },
        {
          "internalType": "string",
          "name": "proofType",
          "type": "string"
        },
        {
          "internalType": "uint256",
          "name": "timestamp",
          "type": "uint256"
        }
      ],
      "stateMutability": "view",
      "type": "function"
    },
    {
      "inputs": [
        {
          "internalType": "address",
          "name": "user",
          "type": "address"
        }
      ],
      "name": "isKycVerified",
      "outputs": [
        {
          "internalType": "bool",
          "name": "",
          "type": "bool"
        }
      ],
      "stateMutability": "view",
      "type": "function"
    },
    {
      "inputs": [
        {
          "internalType": "address",
          "name": "",
          "type": "address"
        }
      ],
      "name": "kycVerified",
      "outputs": [
        {
          "internalType": "bool",
          "name": "",
          "type": "bool"
        }
      ],
      "stateMutability": "view",
      "type": "function"
    },
    {
      "inputs": [],
      "name": "owner",
      "outputs": [
        {
          "internalType": "address",
          "name": "",
          "type": "address"
        }
      ],
      "stateMutability": "view",
      "type": "function"
    },
    {
      "inputs": [
        {
          "internalType": "uint256",
          "name": "",
          "type": "uint256"
        }
      ],
      "name": "proofHashes",
      "outputs": [
        {
          "internalType": "bytes32",
          "name": "",
          "type": "bytes32"
        }
      ],
      "stateMutability": "view",
      "type": "function"
    },
    {
      "inputs": [
        {
          "internalType": "bytes32",
          "name": "",
          "type": "bytes32"
        }
      ],
      "name": "proofs",
      "outputs": [
        {
          "internalType": "bytes32",
          "name": "proofHash",
          "type": "bytes32"
        },
        {
          "internalType": "string",
          "name": "proofType",
          "type": "string"
        },
        {
          "internalType": "address",
          "name": "submitter",
          "type": "address"
        },
        {
          "internalType": "uint256",
          "name": "timestamp",
          "type": "uint256"
        },
        {
          "internalType": "bool",
          "name": "isVerified",
          "type": "bool"
        },
        {
          "internalType": "bool",
          "name": "isValid",
          "type": "bool"
        }
      ],
      "stateMutability": "view",
      "type": "function"
    },
    {
      "inputs": [
        {
          "internalType": "bytes",
          "name": "proofData",
          "type": "bytes"
        },
        {
          "internalType": "bytes",
          "name": "publicInputs",
          "type": "bytes"
        },
        {
          "internalType": "string",
          "name": "proofType",
          "type": "string"
        }
      ],
      "name": "verifyProof",
      "outputs": [
        {
          "internalType": "bool",
          "name": "",
          "type": "bool"
        }
      ],
      "stateMutability": "nonpayable",
      "type": "function"
    }
  ],
  "bytecode": "0x608060405234801561001057600080fd5b50600380546001600160a01b03191633179055610b09806100326000396000f3fe608060405234801561001057600080fd5b506004361061009e5760003560e01c806396867977116100665780639686797714610136578063a5410a6614610149578063a86e97151461017c578063acbd857f1461018f578063d5c0561e146101bb57600080fd5b8063175e82f4146100a35780633cced748146100bb578063444d95b0146100de5780635be4ee1b146101035780638da5cb5b1461010b575b600080fd5b620186a05b6040519081526020015b60405180910390f35b6100ce6100c93660046106bf565b6101ce565b6040516100b2949392919061071e565b6100f16100ec3660046106bf565b6102f7565b6040516100b296959493929190610752565b6002546100a8565b60035461011e906001600160a01b031681565b6040516001600160a01b0390911681526020016100b2565b6100a86101443660046106bf565b6103c6565b61016c61015736600461079b565b60016020526000908152604090205460ff1681565b60405190151581526020016100b2565b6100a861018a3660046106bf565b610439565b61016c61019d36600461079b565b6001600160a01b031660009081526001602052604090205460ff1690565b61016c6101c936600461082a565b61045a565b60008060606000806000808781526020019081526020016000206040518060c00160405290816000820154815260200160018201805461020d90610930565b80601f016020809104026020016040519081016040528092919081815260200182805461023990610930565b80156102865780601f1061025b57610100808354040283529160200191610286565b820191906000526020600020905b81548152906001019060200180831161026957829003601f168201915b505050918352505060028201546001600160a01b03166020808301919091526003830154604083015260049092015460ff80821615156060808501919091526101009092041615156080928301529083015160a0840151928401519390910151909991985091965090945092505050565b6000602081905290815260409020805460018201805491929161031990610930565b80601f016020809104026020016040519081016040528092919081815260200182805461034590610930565b80156103925780601f1061036757610100808354040283529160200191610392565b820191906000526020600020905b81548152906001019060200180831161037557829003601f168201915b505050506002830154600384015460049094015492936001600160a01b039091169290915060ff8082169161010090041686565b60025460009082106104145760405162461bcd60e51b8152602060048201526013602482015272496e646578206f7574206f6620626f756e647360681b604482015260640160405180910390fd5b600282815481106104275761042761096a565b90600052602060002001549050919050565b6002818154811061044957600080fd5b600091825260209091200154905081565b600080868686866040516020016104749493929190610980565b60408051601f19818403018152918152815160209283012060008181529283905291206004015490915060ff16156104c757600090815260208190526040902060040154610100900460ff1690506106b6565b60006064871180156104d857508415155b6040805160c0810182528481526020808201888152338385015242606084015260016080840181905285151560a0850152600088815292839052939091208251815590519394509092909182019061053090826109f1565b506040820151600282810180546001600160a01b0319166001600160a01b03909316929092179091556060830151600383015560808301516004909201805460a09094015161ffff1990941692151561ff001916929092176101009315159390930292909217905580546001810182556000919091527f405787fa12a823e0f2b7631cc41b3ba8828b3321ca811111fa75cd3aa3bb5ace0182905580801561061757506040805180820190915260038152626b796360e81b6020918201528451908501207fa29cad97d4110e8822dedef32879f84a8e8889bf965ff9c57998689e2fdafbc4145b1561063a57336000908152600160208190526040909120805460ff191690911790555b817fe9201ccef7102237d27ce1483c5b7c624b303de6b0c76faed30c105340af7c65854260405161066c929190610ab1565b60405180910390a2604080518215158152426020820152339184917fd70445ae79bfa82bd8c52e90ca89940dff8279c6c39f91265be2f4ae43e4cae2910160405180910390a39150505b95945050505050565b6000602082840312156106d157600080fd5b5035919050565b6000815180845260005b818110156106fe576020818501810151868301820152016106e2565b506000602082860101526020601f19601f83011685010191505092915050565b8415158152831515602082015260806040820152600061074160808301856106d8565b905082606083015295945050505050565b86815260c06020820152600061076b60c08301886106d8565b6001600160a01b039690961660408301525060608101939093529015156080830152151560a09091015292915050565b6000602082840312156107ad57600080fd5b81356001600160a01b03811681146107c457600080fd5b9392505050565b60008083601f8401126107dd57600080fd5b50813567ffffffffffffffff8111156107f557600080fd5b60208301915083602082850101111561080d57600080fd5b9250929050565b634e487b7160e01b600052604160045260246000fd5b60008060008060006060868803121561084257600080fd5b853567ffffffffffffffff8082111561085a57600080fd5b61086689838a016107cb565b9097509550602088013591508082111561087f57600080fd5b61088b89838a016107cb565b909550935060408801359150808211156108a457600080fd5b818801915088601f8301126108b857600080fd5b8135818111156108ca576108ca610814565b604051601f8201601f19908116603f011681019083821181831017156108f2576108f2610814565b816040528281528b602084870101111561090b57600080fd5b8260208601602083013760006020848301015280955050505050509295509295909350565b600181811c9082168061094457607f821691505b60208210810361096457634e487b7160e01b600052602260045260246000fd5b50919050565b634e487b7160e01b600052603260045260246000fd5b8385823760008482016000815283858237600093019283525090949350505050565b601f8211156109ec57600081815260208120601f850160051c810160208610156109c95750805b601f850160051c820191505b818110156109e8578281556001016109d5565b5050505b505050565b815167ffffffffffffffff811115610a0b57610a0b610814565b610a1f81610a198454610930565b846109a2565b602080601f831160018114610a545760008415610a3c5750858301515b600019600386901b1c1916600185901b1785556109e8565b600085815260208120601f198616915b82811015610a8357888601518255948401946001909101908401610a64565b5085821015610aa15787850151600019600388901b60f8161c191681555b5050505050600190811b01905550565b604081526000610ac460408301856106d8565b9050826020830152939250505056fea2646970667358221220f0a05c9e5f914729fb2aba8601ad98b63c5029dfdc2b061fc3af38165983d07c64736f6c63430008130033",
  "linkReferences": {},
  "deployedLinkReferences": {}
}