{
  "_format": "hh-sol-artifact-1",
  "contractName": "AIPredictionCommitment",
  "sourceName": "contracts/AIPredictionCommitment_Base.sol",
  "abi": [
    {
      "anonymous": false,
      "inputs": [
        {
          "indexed": true,
          "internalType": "bytes32",
          "name": "commitmentId",
          "type": "bytes32"
        },
        {
          "indexed": true,
          "internalType": "address",
          "name": "predictor",
          "type": "address"
        },
        {
          "indexed": false,
          "internalType": "uint256",
          "name": "blockNumber",
          "type": "uint256"
        },
        {
          "indexed": false,
          "internalType": "uint256",
          "name": "timestamp",
          "type": "uint256"
        }
      ],
      "name": "PredictionCommitted",
      "type": "event"
    },
    {
      "anonymous": false,
      "inputs": [
        {
          "indexed": true,
          "internalType": "bytes32",
          "name": "commitmentId",
          "type": "bytes32"
        },
        {
          "indexed": false,
          "internalType": "string",
          "name": "prompt",
          "type": "string"
        },
        {
          "indexed": false,
          "internalType": "string",
          "name": "response",
          "type": "string"
        },
        {
          "indexed": false,
          "internalType": "uint256",
          "name": "revealBlock",
          "type": "uint256"
        },
        {
          "indexed": false,
          "internalType": "uint256",
          "name": "commitBlock",
          "type": "uint256"
        }
      ],
      "name": "PredictionRevealed",
      "type": "event"
    },
    {
      "inputs": [
        {
          "internalType": "bytes32",
          "name": "promptHash",
          "type": "bytes32"
        },
        {
          "internalType": "bytes32",
          "name": "responseHash",
          "type": "bytes32"
        }
      ],
      "name": "commitPrediction",
      "outputs": [
        {
          "internalType": "bytes32",
          "name": "commitmentId",
          "type": "bytes32"
        }
      ],
      "stateMutability": "nonpayable",
      "type": "function"
    },
    {
      "inputs": [
        {
          "internalType": "bytes32",
          "name": "",
          "type": "bytes32"
        }
      ],
      "name": "commitments",
      "outputs": [
        {
          "internalType": "bytes32",
          "name": "promptHash",
          "type": "bytes32"
        },
        {
          "internalType": "bytes32",
          "name": "responseHash",
          "type": "bytes32"
        },
        {
          "internalType": "uint256",
          "name": "blockNumber",
          "type": "uint256"
        },
        {
          "internalType": "uint256",
          "name": "timestamp",
          "type": "uint256"
        },
        {
          "internalType": "address",
          "name": "predictor",
          "type": "address"
        },
        {
          "internalType": "bool",
          "name": "revealed",
          "type": "bool"
        }
      ],
      "stateMutability": "view",
      "type": "function"
    },
    {
      "inputs": [
        {
          "internalType": "bytes32",
          "name": "commitmentId",
          "type": "bytes32"
        }
      ],
      "name": "getCommitment",
      "outputs": [
        {
          "internalType": "bytes32",
          "name": "promptHash",
          "type": "bytes32"
        },
        {
          "internalType": "bytes32",
          "name": "responseHash",
          "type": "bytes32"
        },
        {
          "internalType": "uint256",
          "name": "blockNumber",
          "type": "uint256"
        },
        {
          "internalType": "uint256",
          "name": "timestamp",
          "type": "uint256"
        },
        {
          "internalType": "address",
          "name": "predictor",
          "type": "address"
        },
        {
          "internalType": "bool",
          "name": "revealed",
          "type": "bool"
        }
      ],
      "stateMutability": "view",
      "type": "function"
    },
    {
      "inputs": [
        {
          "internalType": "string",
          "name": "prompt",
          "type": "string"
        },
        {
          "internalType": "string",
          "name": "response",
          "type": "string"
        },
        {
          "internalType": "string",
          "name": "nonce",
          "type": "string"
        },
        {
          "internalType": "bytes",
          "name": "zkProof",
          "type": "bytes"
        }
      ],
      "name": "revealPrediction",
      "outputs": [],
      "stateMutability": "nonpayable",
      "type": "function"
    },
    {
      "inputs": [
        {
          "internalType": "bytes32",
          "name": "commitmentId",
          "type": "bytes32"
        }
      ],
      "name": "verifyTemporalOrdering",
      "outputs": [
        {
          "internalType": "bool",
          "name": "",
          "type": "bool"
        }
      ],
      "stateMutability": "view",
      "type": "function"
    }
  ],
  "bytecode": "0x608060405234801561001057600080fd5b50610925806100206000396000f3fe608060405234801561001057600080fd5b50600436106100575760003560e01c80637795820c1461005c578063818108e81461011c578063839df9451461013f578063963c7fff14610191578063cda719cb146101b2575b600080fd5b6100df61006a36600461068f565b60009081526020818152604091829020825160c0810184528154808252600183015493820184905260028301549482018590526003830154606083018190526004909301546001600160a01b03811660808401819052600160a01b90910460ff16151560a09093018390529095939493909190565b6040805196875260208701959095529385019290925260608401526001600160a01b03166080830152151560a082015260c0015b60405180910390f35b61012f61012a36600461068f565b6101c7565b6040519015158152602001610113565b6100df61014d36600461068f565b60006020819052908152604090208054600182015460028301546003840154600490940154929391929091906001600160a01b03811690600160a01b900460ff1686565b6101a461019f3660046106a8565b610244565b604051908152602001610113565b6101c56101c0366004610776565b6103c0565b005b600081815260208181526040808320815160c081018352815481526001820154938101939093526002810154918301919091526003810154606083018190526004909101546001600160a01b0381166080840152600160a01b900460ff16151560a08301521580159061023d5750428160600151105b9392505050565b604080516020810184905290810182905233606090811b6bffffffffffffffffffffffff19169082015243607482015260009060940160408051601f198184030181529181528151602092830120600081815292839052912060030154909150156102ea5760405162461bcd60e51b8152602060048201526011602482015270105b1c9958591e4818dbdb5b5a5d1d1959607a1b60448201526064015b60405180910390fd5b6040805160c08101825284815260208082018581524383850181815242606086018181523360808801818152600060a08a018181528c8252988190528a902098518955955160018901559251600288015551600387015592516004909501805494511515600160a01b026001600160a81b03199095166001600160a01b039690961695909517939093179093559251909284927fc500da2985fc93de6d0b04aed8c6a2206b8ba952d51825c92844cf016728a783926103b29290918252602082015260400190565b60405180910390a392915050565b600084836040516020016103d592919061085b565b6040516020818303038152906040528051906020012090506000848460405160200161040292919061085b565b60408051808303601f19018152828252805160209182012090830185905290820181905233606090811b6bffffffffffffffffffffffff191690830152436074830152915060009060940160408051601f19818403018152918152815160209283012060008181529283905291206003810154919250906104bb5760405162461bcd60e51b8152602060048201526013602482015272139bc818dbdb5b5a5d1b595b9d08199bdd5b99606a1b60448201526064016102e1565b60048101546001600160a01b0316331461050d5760405162461bcd60e51b8152602060048201526013602482015272139bdd081e5bdd5c8818dbdb5b5a5d1b595b9d606a1b60448201526064016102e1565b6004810154600160a01b900460ff161561055c5760405162461bcd60e51b815260206004820152601060248201526f105b1c9958591e481c995d99585b195960821b60448201526064016102e1565b8054841461059e5760405162461bcd60e51b815260206004820152600f60248201526e0a0e4dedae0e840dad2e6dac2e8c6d608b1b60448201526064016102e1565b828160010154146105e55760405162461bcd60e51b81526020600482015260116024820152700a4cae6e0dedce6ca40dad2e6dac2e8c6d607b1b60448201526064016102e1565b8060020154431161062d5760405162461bcd60e51b8152602060048201526012602482015271151bdbc81cdbdbdb881d1bc81c995d99585b60721b60448201526064016102e1565b60048101805460ff60a01b1916600160a01b179055600281015460405183917f4b9252b553aa1050135264fbf28abb42aa98605f0681a44906b46211b57767e29161067d918c918c9143916108b6565b60405180910390a25050505050505050565b6000602082840312156106a157600080fd5b5035919050565b600080604083850312156106bb57600080fd5b50508035926020909101359150565b634e487b7160e01b600052604160045260246000fd5b600067ffffffffffffffff808411156106fb576106fb6106ca565b604051601f8501601f19908116603f01168101908282118183101715610723576107236106ca565b8160405280935085815286868601111561073c57600080fd5b858560208301376000602087830101525050509392505050565b600082601f83011261076757600080fd5b61023d838335602085016106e0565b6000806000806080858703121561078c57600080fd5b843567ffffffffffffffff808211156107a457600080fd5b6107b088838901610756565b955060208701359150808211156107c657600080fd5b6107d288838901610756565b945060408701359150808211156107e857600080fd5b6107f488838901610756565b9350606087013591508082111561080a57600080fd5b508501601f8101871361081c57600080fd5b61082b878235602084016106e0565b91505092959194509250565b60005b8381101561085257818101518382015260200161083a565b50506000910152565b6000835161086d818460208801610837565b835190830190610881818360208801610837565b01949350505050565b600081518084526108a2816020860160208601610837565b601f01601f19169290920160200192915050565b6080815260006108c9608083018761088a565b82810360208401526108db818761088a565b60408401959095525050606001529291505056fea26469706673582212200128d2e232a8db1f02970d37b69c2b1cdb3f624f3c14174c37c863c2938ff71964736f6c63430008130033",
  "linkReferences": {},
  "deployedLinkReferences": {}
}