{
  "_format": "hh-sol-artifact-1",
  "contractName": "RealZKVerifier",
  "sourceName": "contracts/RealZKVerifier.sol",
  "abi": [
    {
      "inputs": [],
      "stateMutability": "nonpayable",
      "type": "constructor"
    },
    {
      "anonymous": false,
      "inputs": [
        {
          "indexed": true,
          "internalType": "bytes32",
          "name": "proofId",
          "type": "bytes32"
        },
        {
          "indexed": true,
          "internalType": "address",
          "name": "verifier",
          "type": "address"
        },
        {
          "indexed": false,
          "internalType": "bool",
          "name": "isValid",
          "type": "bool"
        },
        {
          "indexed": false,
          "internalType": "uint256",
          "name": "proofType",
          "type": "uint256"
        },
        {
          "indexed": false,
          "internalType": "uint256",
          "name": "gasUsed",
          "type": "uint256"
        }
      ],
      "name": "ProofVerified",
      "type": "event"
    },
    {
      "inputs": [
        {
          "internalType": "address",
          "name": "user",
          "type": "address"
        },
        {
          "internalType": "uint256",
          "name": "proofType",
          "type": "uint256"
        }
      ],
      "name": "getUserVerificationTime",
      "outputs": [
        {
          "internalType": "uint256",
          "name": "",
          "type": "uint256"
        }
      ],
      "stateMutability": "view",
      "type": "function"
    },
    {
      "inputs": [
        {
          "internalType": "address",
          "name": "user",
          "type": "address"
        },
        {
          "internalType": "uint256",
          "name": "proofType",
          "type": "uint256"
        }
      ],
      "name": "isUserVerified",
      "outputs": [
        {
          "internalType": "bool",
          "name": "",
          "type": "bool"
        }
      ],
      "stateMutability": "view",
      "type": "function"
    },
    {
      "inputs": [
        {
          "internalType": "address",
          "name": "",
          "type": "address"
        },
        {
          "internalType": "uint256",
          "name": "",
          "type": "uint256"
        }
      ],
      "name": "userVerifications",
      "outputs": [
        {
          "internalType": "uint256",
          "name": "",
          "type": "uint256"
        }
      ],
      "stateMutability": "view",
      "type": "function"
    },
    {
      "inputs": [
        {
          "internalType": "bytes32",
          "name": "",
          "type": "bytes32"
        }
      ],
      "name": "verifiedProofs",
      "outputs": [
        {
          "internalType": "bool",
          "name": "",
          "type": "bool"
        }
      ],
      "stateMutability": "view",
      "type": "function"
    },
    {
      "inputs": [
        {
          "components": [
            {
              "components": [
                {
                  "internalType": "uint256",
                  "name": "x",
                  "type": "uint256"
                },
                {
                  "internalType": "uint256",
                  "name": "y",
                  "type": "uint256"
                }
              ],
              "internalType": "struct RealZKVerifier.G1Point",
              "name": "a",
              "type": "tuple"
            },
            {
              "components": [
                {
                  "internalType": "uint256[2]",
                  "name": "x",
                  "type": "uint256[2]"
                },
                {
                  "internalType": "uint256[2]",
                  "name": "y",
                  "type": "uint256[2]"
                }
              ],
              "internalType": "struct RealZKVerifier.G2Point",
              "name": "b",
              "type": "tuple"
            },
            {
              "components": [
                {
                  "internalType": "uint256",
                  "name": "x",
                  "type": "uint256"
                },
                {
                  "internalType": "uint256",
                  "name": "y",
                  "type": "uint256"
                }
              ],
              "internalType": "struct RealZKVerifier.G1Point",
              "name": "c",
              "type": "tuple"
            }
          ],
          "internalType": "struct RealZKVerifier.Proof",
          "name": "proof",
          "type": "tuple"
        },
        {
          "internalType": "uint256[]",
          "name": "publicInputs",
          "type": "uint256[]"
        },
        {
          "internalType": "bytes32",
          "name": "proofId",
          "type": "bytes32"
        },
        {
          "internalType": "uint256",
          "name": "proofType",
          "type": "uint256"
        }
      ],
      "name": "verifyProof",
      "outputs": [
        {
          "internalType": "bool",
          "name": "",
          "type": "bool"
        }
      ],
      "stateMutability": "nonpayable",
      "type": "function"
    }
  ],
  "bytecode": "0x60806040523480156200001157600080fd5b506040805180820182527f2d4d9aa7e302d9df41749d5507949d05dbea33fbb16c643b22f599a2be6df2e28082527f14bedd503c37ceb061d8ec60209fe345ce89830a19230301f076caff004d19266020928301819052600291825560035582516080810184527f0967032fcbf776d1afc985f88877f182d38480a653f2decaa9794cbc3bf3060c8185019081527f0e6d3bda6dd28df42849231319f3b3c5bdb1c8d737e44bc80256236284cc4ede6060830152815283518085019094527f13b4608c4c305fb36ac2bbf0ca161456017159ad574961bb38dd17e82f871f7884527f261233b11ca0627e6c9833d22ccf805a2c73680296f50604260306fa16d093828484015291820192909252805190916004916200013391839190620003d5565b5060208201516200014b9060028084019190620003d5565b5050604080516080810182527f024b040b0cc896a59b6be8c6567c4c69ea08224ed8215e2fb7a8f100b47a67568183019081527f19e9a684fdf6632d060a299e8a091290121b1028369b4804fcea882eccd36a4e6060830152815281518083019092527f21112b4f88d0e8e104b05ea7f0ffa45574a3fd5f278b92ce8e9e3b4668ed255f82527f1f9cb9e11c80ba35264f7a2c7e0c80e8c5378ebf9dd78648bcb8dd29718bffba6020838101919091528101919091528051909150600890620002189082906002620003d5565b506020820151620002309060028084019190620003d5565b5050604080516080810182527f1a84a3b6e171802b08d37281d04b34bb2bef08488a7cce00ff459e2d7f5c41458183019081527f05bf0fcdede619243c9bb4e5d7168aaf1a6926a24a2b23515bdd7630bbf796976060830152815281518083019092527f0f27c3c5b8d4e0e3603d0ba734fb463d73e3e1be4c5e4806e5de78f2b4ce8db682527f2e68882a1988ae33b0d977cd5108a83dedc1c7ac227d6d5d85ffc439c557c14a6020838101919091528101919091528051909150600c90620002fd9082906002620003d5565b506020820151620003159060028084019190620003d5565b5050604080518082019091527f05af5d4d61ea13dfd1b3df858e7c1ad60b0912954d675f20fb25ce205e0c410381527f0aec73cd24acf16de73017f7702e16e8ebaf595ada3517a486cec3cc816962f8602082019081526010805460018101825560009190915291517f1b6847dc741a1b0cd08d278845f9d819d87b734759afb55fe2de5cb82a9ae672600290930292830155517f1b6847dc741a1b0cd08d278845f9d819d87b734759afb55fe2de5cb82a9ae67390910155506200042f565b826002810192821562000406579160200282015b8281111562000406578251825591602001919060010190620003e9565b506200041492915062000418565b5090565b5b8082111562000414576000815560010162000419565b610c96806200043f6000396000f3fe608060405234801561001057600080fd5b50600436106100575760003560e01c8063024968ca1461005c5780630fd7b56a14610084578063176d80c4146100bd57806319f234bc146100e0578063b5316a0d14610116575b600080fd5b61006f61006a36600461091c565b610129565b60405190151581526020015b60405180910390f35b6100af61009236600461091c565b600160209081526000928352604080842090915290825290205481565b60405190815260200161007b565b61006f6100cb366004610954565b60006020819052908152604090205460ff1681565b6100af6100ee36600461091c565b6001600160a01b03919091166000908152600160209081526040808320938352929052205490565b61006f610124366004610aea565b610156565b6001600160a01b038216600090815260016020908152604080832084845290915290205415155b92915050565b6000805a60008581526020819052604090205490915060ff16156101ba5760405162461bcd60e51b8152602060048201526016602482015275141c9bdbd988185b1c9958591e481d995c9a599a595960521b60448201526064015b60405180910390fd5b6010546101c990600190610bd2565b8551146102185760405162461bcd60e51b815260206004820152601c60248201527f496e76616c6964207075626c696320696e70757473206c656e6774680000000060448201526064016101b1565b600061022487876102bc565b905080156102b257600085815260208181526040808320805460ff19166001908117909155338452825280832087845290915281204290555a6102679084610bd2565b604080516001815260208101889052908101829052909150339087907f87cf6a5ca22210f59cff7fb87aa858bdc2685a1eae1f92f60a22afc7552f4f709060600160405180910390a3505b9695505050505050565b6000806002600e016000815481106102d6576102d6610be5565b600091825260208083206040805180820190915260029093020180548352600101549082015291505b83518110156103915761037d82610378601061031c856001610bfb565b8154811061032c5761032c610be5565b90600052602060002090600202016040518060400160405290816000820154815260200160018201548152505087858151811061036b5761036b610be5565b6020026020010151610527565b610556565b91508061038981610c0e565b9150506102ff565b5061051f6103a2856000015161057c565b6020868101516040805180820182526002805482526003549482019490945281516080810180845293949193909260049284929183019184919082845b8154815260200190600101908083116103df57505050918352505060408051808201918290526020909201919060028481019182845b81548152602001906001019080831161041557505050919092525050604080516080810180835289935090916008918391820190839060029082845b81548152602001906001019080831161045157505050918352505060408051808201918290526020909201919060028481019182845b81548152602001906001019080831161048757505050919092525050506040808c015181516080810183529091600c90829081018260028282826020028201915b8154815260200190600101908083116104c857505050918352505060408051808201918290526020909201919060028481019182845b8154815260200190600101908083116104fe57505050505081525050610621565b949350505050565b6040805180820182526000808252602082015290816060856007611770fa8061054f57600080fd5b5092915050565b604080518082018252600080825260208201529081818560066096fa8061054f57600080fd5b604080518082019091526000808252602082015281511580156105a157506020820151155b156105aa575090565b6040518060400160405280836000015181526020017f30644e72e131a029b85045b68181585d97816a916871ca8d3c208c16d87cfd4784602001516105ef9190610c27565b610619907f30644e72e131a029b85045b68181585d97816a916871ca8d3c208c16d87cfd47610bd2565b905292915050565b60008060405180608001604052808b8152602001898152602001878152602001858152509050600060405180608001604052808b81526020018981526020018781526020018581525090506106746108df565b60005b600481101561086b5783816004811061069257610692610be5565b602002015151826106a4836006610c49565b6106af906000610bfb565b601881106106bf576106bf610be5565b60200201528381600481106106d6576106d6610be5565b602002015160200151828260066106ed9190610c49565b6106f8906001610bfb565b6018811061070857610708610be5565b602002015282816004811061071f5761071f610be5565b6020020151515182610732836006610c49565b61073d906002610bfb565b6018811061074d5761074d610be5565b602002015282816004811061076457610764610be5565b602002015151600160200201518261077d836006610c49565b610788906003610bfb565b6018811061079857610798610be5565b60200201528281600481106107af576107af610be5565b6020020151602001516000600281106107ca576107ca610be5565b6020020151826107db836006610c49565b6107e6906004610bfb565b601881106107f6576107f6610be5565b602002015282816004811061080d5761080d610be5565b60200201516020015160016002811061082857610828610be5565b602002015182610839836006610c49565b610844906005610bfb565b6018811061085457610854610be5565b60200201528061086381610c0e565b915050610677565b506108746108fe565b60006020826103008560086201c138fa9050806108ca5760405162461bcd60e51b815260206004820152601460248201527314185a5c9a5b99c818da1958dac819985a5b195960621b60448201526064016101b1565b50516001149c9b505050505050505050505050565b6040518061030001604052806018906020820280368337509192915050565b60405180602001604052806001906020820280368337509192915050565b6000806040838503121561092f57600080fd5b82356001600160a01b038116811461094657600080fd5b946020939093013593505050565b60006020828403121561096657600080fd5b5035919050565b634e487b7160e01b600052604160045260246000fd5b6040805190810167ffffffffffffffff811182821017156109a6576109a661096d565b60405290565b6040516060810167ffffffffffffffff811182821017156109a6576109a661096d565b6000604082840312156109e157600080fd5b6109e9610983565b9050813581526020820135602082015292915050565b600082601f830112610a1057600080fd5b610a18610983565b806040840185811115610a2a57600080fd5b845b81811015610a44578035845260209384019301610a2c565b509095945050505050565b600082601f830112610a6057600080fd5b8135602067ffffffffffffffff80831115610a7d57610a7d61096d565b8260051b604051601f19603f83011681018181108482111715610aa257610aa261096d565b604052938452858101830193838101925087851115610ac057600080fd5b83870191505b84821015610adf57813583529183019190830190610ac6565b979650505050505050565b600080600080848603610160811215610b0257600080fd5b61010080821215610b1257600080fd5b610b1a6109ac565b610b2489896109cf565b81526080603f1984011215610b3857600080fd5b610b40610983565b9250610b4f8960408a016109ff565b8352610b5e8960808a016109ff565b6020840152826020820152610b768960c08a016109cf565b60408201529550860135905067ffffffffffffffff811115610b9757600080fd5b610ba387828801610a4f565b9497949650505050610120830135926101400135919050565b634e487b7160e01b600052601160045260246000fd5b8181038181111561015057610150610bbc565b634e487b7160e01b600052603260045260246000fd5b8082018082111561015057610150610bbc565b600060018201610c2057610c20610bbc565b5060010190565b600082610c4457634e487b7160e01b600052601260045260246000fd5b500690565b808202811582820484141761015057610150610bbc56fea264697066735822122086faba17529574be3c9e8720cabd97d64f3ac0a3a1305ee27076b698b49a697e64736f6c63430008130033",
  "linkReferences": {},
  "deployedLinkReferences": {}
}