{
  "_format": "hh-sol-artifact-1",
  "contractName": "ProximityNovaDeciderSimple",
  "sourceName": "contracts/ProximityNovaDeciderSimple.sol",
  "abi": [
    {
      "anonymous": false,
      "inputs": [
        {
          "indexed": false,
          "internalType": "uint256",
          "name": "x",
          "type": "uint256"
        },
        {
          "indexed": false,
          "internalType": "uint256",
          "name": "y",
          "type": "uint256"
        },
        {
          "indexed": false,
          "internalType": "bool",
          "name": "expectedResult",
          "type": "bool"
        },
        {
          "indexed": false,
          "internalType": "bool",
          "name": "actualResult",
          "type": "bool"
        }
      ],
      "name": "ProximityChecked",
      "type": "event"
    },
    {
      "inputs": [
        {
          "internalType": "uint256",
          "name": "x",
          "type": "uint256"
        },
        {
          "internalType": "uint256",
          "name": "y",
          "type": "uint256"
        }
      ],
      "name": "checkProximity",
      "outputs": [
        {
          "internalType": "bool",
          "name": "",
          "type": "bool"
        }
      ],
      "stateMutability": "pure",
      "type": "function"
    },
    {
      "inputs": [
        {
          "internalType": "uint256[3]",
          "name": "i_z0_zi",
          "type": "uint256[3]"
        },
        {
          "internalType": "uint256[4]",
          "name": "U_i_cmW_U_i_cmE",
          "type": "uint256[4]"
        },
        {
          "internalType": "uint256[2]",
          "name": "u_i_cmW",
          "type": "uint256[2]"
        },
        {
          "internalType": "uint256[3]",
          "name": "cmT_r",
          "type": "uint256[3]"
        },
        {
          "internalType": "uint256[2]",
          "name": "pA",
          "type": "uint256[2]"
        },
        {
          "internalType": "uint256[2][2]",
          "name": "pB",
          "type": "uint256[2][2]"
        },
        {
          "internalType": "uint256[2]",
          "name": "pC",
          "type": "uint256[2]"
        },
        {
          "internalType": "uint256[4]",
          "name": "challenge_W_challenge_E_kzg_evals",
          "type": "uint256[4]"
        },
        {
          "internalType": "uint256[2][2]",
          "name": "kzg_proof",
          "type": "uint256[2][2]"
        }
      ],
      "name": "verifyNovaProof",
      "outputs": [
        {
          "internalType": "bool",
          "name": "",
          "type": "bool"
        }
      ],
      "stateMutability": "view",
      "type": "function"
    }
  ],
  "bytecode": "0x608060405234801561001057600080fd5b506105a0806100206000396000f3fe608060405234801561001057600080fd5b50600436106100365760003560e01c80636b8a2b241461003b578063fc3d76fa14610062575b600080fd5b61004e61004936600461040c565b610075565b604051901515815260200160405180910390f35b61004e610070366004610461565b61008a565b6000610081838361033a565b90505b92915050565b6000893560208b013560408c013560018111156100ed5760405162461bcd60e51b815260206004820152601860248201527f496e76616c69642070726f78696d69747920726573756c740000000000000000604482015260640160405180910390fd5b60006100f9848461033a565b90506001821481151581146101165760009550505050505061032d565b60006103248f6004806020026040519081016040528092919082600460200280828437600081840152601f19601f8201169050808301925050505050508f6002806020026040519081016040528092919082600260200280828437600081840152601f19601f8201169050808301925050505050508f6003806020026040519081016040528092919082600360200280828437600081840152601f19601f8201169050808301925050505050508f6002806020026040519081016040528092919082600260200280828437600081840152601f19601f8201169050808301925050505050508f600280602002604051908101604052809291906000905b828210156102515760408051808201825290808402860190600290839083908082843760009201919091525050508152600190910190602001610213565b505050508f6002806020026040519081016040528092919082600260200280828437600081840152601f19601f8201169050808301925050505050508f6004806020026040519081016040528092919082600460200280828437600081840152601f19601f8201169050808301925050505050508f600280602002604051908101604052809291906000905b8282101561031b57604080518082018252908084028601906002908390839080828437600092019190915250505081526001909101906020016102dd565b505050506103bf565b96505050505050505b9998505050505050505050565b60006113888060648382871161035957610354878561052d565b610363565b610363848861052d565b9050600083871161037d57610378878561052d565b610387565b610387848861052d565b90506103938380610540565b61039d8280610540565b6103a78480610540565b6103b19190610557565b111598975050505050505050565b845160009015806103d257506020860151155b156103df57506000610400565b835115806103ef57506020840151155b156103fc57506000610400565b5060015b98975050505050505050565b6000806040838503121561041f57600080fd5b50508035926020909101359150565b806060810183101561008457600080fd5b806080810183101561008457600080fd5b806040810183101561008457600080fd5b60008060008060008060008060006103808a8c03121561048057600080fd5b61048a8b8b61042e565b98506104998b60608c0161043f565b97506104a88b60e08c01610450565b96506104b88b6101208c0161042e565b95506104c88b6101808c01610450565b94506104d88b6101c08c0161043f565b93506104e88b6102408c01610450565b92506104f88b6102808c0161043f565b91506105088b6103008c0161043f565b90509295985092959850929598565b634e487b7160e01b600052601160045260246000fd5b8181038181111561008457610084610517565b808202811582820484141761008457610084610517565b808201808211156100845761008461051756fea26469706673582212202895868c600d640ae517617219ba152e4d00986b48ee223c6d5a54919ecc09ad64736f6c63430008130033",
  "linkReferences": {},
  "deployedLinkReferences": {}
}