{
  "_format": "hh-sol-artifact-1",
  "contractName": "AvalancheGroth16Verifier",
  "sourceName": "contracts/AvalancheGroth16Verifier.sol",
  "abi": [
    {
      "anonymous": false,
      "inputs": [
        {
          "indexed": true,
          "internalType": "bytes32",
          "name": "proofId",
          "type": "bytes32"
        },
        {
          "indexed": true,
          "internalType": "address",
          "name": "verifier",
          "type": "address"
        },
        {
          "indexed": false,
          "internalType": "bool",
          "name": "isValid",
          "type": "bool"
        },
        {
          "indexed": false,
          "internalType": "uint256",
          "name": "timestamp",
          "type": "uint256"
        }
      ],
      "name": "ProofVerified",
      "type": "event"
    },
    {
      "inputs": [
        {
          "internalType": "address",
          "name": "user",
          "type": "address"
        },
        {
          "internalType": "uint256",
          "name": "proofType",
          "type": "uint256"
        }
      ],
      "name": "isUserVerified",
      "outputs": [
        {
          "internalType": "bool",
          "name": "",
          "type": "bool"
        }
      ],
      "stateMutability": "view",
      "type": "function"
    },
    {
      "inputs": [
        {
          "internalType": "bytes32",
          "name": "proofId",
          "type": "bytes32"
        },
        {
          "internalType": "address",
          "name": "user",
          "type": "address"
        },
        {
          "internalType": "uint256",
          "name": "proofType",
          "type": "uint256"
        }
      ],
      "name": "recordVerification",
      "outputs": [],
      "stateMutability": "nonpayable",
      "type": "function"
    },
    {
      "inputs": [
        {
          "internalType": "address",
          "name": "",
          "type": "address"
        },
        {
          "internalType": "uint256",
          "name": "",
          "type": "uint256"
        }
      ],
      "name": "userVerifications",
      "outputs": [
        {
          "internalType": "bool",
          "name": "",
          "type": "bool"
        }
      ],
      "stateMutability": "view",
      "type": "function"
    },
    {
      "inputs": [
        {
          "internalType": "bytes32",
          "name": "",
          "type": "bytes32"
        }
      ],
      "name": "verifiedProofs",
      "outputs": [
        {
          "internalType": "bool",
          "name": "",
          "type": "bool"
        }
      ],
      "stateMutability": "view",
      "type": "function"
    },
    {
      "inputs": [
        {
          "internalType": "uint256[2]",
          "name": "_pA",
          "type": "uint256[2]"
        },
        {
          "internalType": "uint256[2][2]",
          "name": "_pB",
          "type": "uint256[2][2]"
        },
        {
          "internalType": "uint256[2]",
          "name": "_pC",
          "type": "uint256[2]"
        },
        {
          "internalType": "uint256[6]",
          "name": "_pubSignals",
          "type": "uint256[6]"
        }
      ],
      "name": "verifyProof",
      "outputs": [
        {
          "internalType": "bool",
          "name": "",
          "type": "bool"
        }
      ],
      "stateMutability": "view",
      "type": "function"
    }
  ],
  "bytecode": "0x608060405234801561001057600080fd5b506106a9806100206000396000f3fe608060405234801561001057600080fd5b50600436106100575760003560e01c8063024968ca1461005c5780630fd7b56a146100a9578063176d80c4146100d757806333be2fdc146100fa578063f398789b1461010f575b600080fd5b61009561006a36600461037d565b6001600160a01b03919091166000908152600160209081526040808320938352929052205460ff1690565b604051901515815260200160405180910390f35b6100956100b736600461037d565b600160209081526000928352604080842090915290825290205460ff1681565b6100956100e53660046103a7565b60006020819052908152604090205460ff1681565b61010d6101083660046103c0565b610122565b005b61009561011d3660046104a7565b6101a4565b6000838152602081815260408083208054600160ff1991821681179092556001600160a01b0387168086528285528386208787528552948390208054909116821790558151908152429281019290925285917fd70445ae79bfa82bd8c52e90ca89940dff8279c6c39f91265be2f4ae43e4cae2910160405180910390a3505050565b83516000906000805160206106548339815191521115806101d75750602085015160008051602061065483398151915211155b156101e457506000610359565b82516000805160206106548339815191521115806102145750602083015160008051602061065483398151915211155b1561022157506000610359565b835151600080516020610654833981519152111580610253575083516020015160008051602061065483398151915211155b80610271575060208401515160008051602061065483398151915211155b806102915750602080850151015160008051602061065483398151915211155b1561029e57506000610359565b60005b60068110156102f1576000805160206106548339815191528382600681106102cb576102cb610585565b6020020151106102df576000915050610359565b806102e98161059b565b9150506102a1565b50845160208087015186518051908301518884015180519085015189518a87015160405160009961032d999098979695949392918d91016105c2565b60408051601f1981840301815291905280516020909101209050605f610354606483610631565b109150505b949350505050565b80356001600160a01b038116811461037857600080fd5b919050565b6000806040838503121561039057600080fd5b61039983610361565b946020939093013593505050565b6000602082840312156103b957600080fd5b5035919050565b6000806000606084860312156103d557600080fd5b833592506103e560208501610361565b9150604084013590509250925092565b634e487b7160e01b600052604160045260246000fd5b6040805190810167ffffffffffffffff8111828210171561042e5761042e6103f5565b60405290565b60405160c0810167ffffffffffffffff8111828210171561042e5761042e6103f5565b600082601f83011261046857600080fd5b61047061040b565b80604084018581111561048257600080fd5b845b8181101561049c578035845260209384019301610484565b509095945050505050565b6000806000806101c08086880312156104bf57600080fd5b6104c98787610457565b9450604087605f8801126104dc57600080fd5b6104e461040b565b8060c089018a8111156104f657600080fd5b838a015b8181101561051b5761050c8c82610457565b845260209093019284016104fa565b508197506105298b82610457565b9650505050508661011f87011261053f57600080fd5b610547610434565b90860190808883111561055957600080fd5b61010088015b8381101561057757803583526020928301920161055f565b509598949750929550505050565b634e487b7160e01b600052603260045260246000fd5b6000600182016105bb57634e487b7160e01b600052601160045260246000fd5b5060010190565b898152600060208a818401528960408401528860608401528760808401528660a08401528560c08401528460e084015261010083018460005b6006811015610618578151835291830191908301906001016105fb565b505050506101c0820190509a9950505050505050505050565b60008261064e57634e487b7160e01b600052601260045260246000fd5b50069056fe30644e72e131a029b85045b68181585d97816a916871ca8d3c208c16d87cfd47a26469706673582212208856d16452415eab22c7fce1a2fdac667c41bcfdc14a63b95d6ce7613201467a64736f6c63430008130033",
  "linkReferences": {},
  "deployedLinkReferences": {}
}