{
  "_format": "hh-sol-artifact-1",
  "contractName": "Groth16Verifier",
  "sourceName": "contracts/ProofOfProofVerifier.sol",
  "abi": [
    {
      "inputs": [
        {
          "internalType": "uint256[2]",
          "name": "_pA",
          "type": "uint256[2]"
        },
        {
          "internalType": "uint256[2][2]",
          "name": "_pB",
          "type": "uint256[2][2]"
        },
        {
          "internalType": "uint256[2]",
          "name": "_pC",
          "type": "uint256[2]"
        },
        {
          "internalType": "uint256[6]",
          "name": "_pubSignals",
          "type": "uint256[6]"
        }
      ],
      "name": "verifyProof",
      "outputs": [
        {
          "internalType": "bool",
          "name": "",
          "type": "bool"
        }
      ],
      "stateMutability": "view",
      "type": "function"
    }
  ],
  "bytecode": "0x608060405234801561001057600080fd5b5061072f806100206000396000f3fe608060405234801561001057600080fd5b506004361061002b5760003560e01c8063f398789b14610030575b600080fd5b61004361003e366004610693565b610057565b604051901515815260200160405180910390f35b600061060a565b7f30644e72e131a029b85045b68181585d2833e84879b9709143e1f593f0000001811061008f576000805260206000f35b50565b600060405183815284602082015285604082015260408160608360076107d05a03fa9150816100c5576000805260206000f35b825160408201526020830151606082015260408360808360066107d05a03fa915050806100f6576000805260206000f35b5050505050565b7f01def763c63ef6306e11eea07321569b01fdfc94ca193d170ba2ac494933c66785527f02252ddb42bada6e4797ce45364d98490ddc463a672fd23f08b0b83baed604e160208601526000608086018661019a87357f102351bac02b91ced9ca4cbff55079583a370b65ee071e13e845f11120148d467f0d92dd3aee7db66caac189372fb0950a1534fdd61a901c5afb3f375208aa7e0e84610092565b6101ea60208801357f020b62d991df4d6894a9473e1197c782fe6462a45bdbe021d864e2192edcf6b57f1f27882c3ae4d932deb2b102291da58e23d98bd126fa48fd20fc0b83678c6e3184610092565b61023a60408801357f3020a6944a9a0d677bef28024a73f0d3850dfe481030200e45729fa84cf974147f30634979d310980bcb12354c429ace87dadc0d1fbdc493552c0d981bccd2e4d584610092565b61028a60608801357f0c64ec427512fb16f5418baae36696dd1cf6db2f4480f0b39ebf204e7e9abe547f0d1782ec9dfefe3f0277acecf80be98262e697216e5e02590998d83660e3b8b884610092565b6102da60808801357f24f02eb8a7af84c04c488bcc042ab44e22595cfcc4dae2dcc394e6f5809ddc297f1c1b45021d166fc43904a2cca235c1f568e8cb182872e1fad7d82df86e64e5a984610092565b61032a60a08801357f24a5ba62248efa2b9e81528e8ca2efd581777c7b7820b3616a61c890e9f198557f1601114b5cd4d0e6fce00d380082922bad577eafc944cbfb5d5ebe8cfe8187d984610092565b50823581527f30644e72e131a029b85045b68181585d97816a916871ca8d3c208c16d87cfd4760208401357f30644e72e131a029b85045b68181585d97816a916871ca8d3c208c16d87cfd4703066020820152833560408201526020840135606082015260408401356080820152606084013560a08201527f2d4d9aa7e302d9df41749d5507949d05dbea33fbb16c643b22f599a2be6df2e260c08201527f14bedd503c37ceb061d8ec60209fe345ce89830a19230301f076caff004d192660e08201527f0967032fcbf776d1afc985f88877f182d38480a653f2decaa9794cbc3bf3060c6101008201527f0e187847ad4c798374d0d6732bf501847dd68bc0e071241e0213bc7fc13db7ab6101208201527f304cfbd1e08a704a99f5e847d93f8c3caafddec46b7a0d379da69a4d112346a76101408201527f1739c1b1a457a8c7313123d24d2f9192f896b7c63eea05a9d57f06547ad0cec8610160820152600087015161018082015260206000018701516101a08201527f198e9393920d483a7260bfb731fb5d25f1aa493335a9e71297e485b7aef312c26101c08201527f1800deef121f1e76426a00665e5c4479674322d4f75edadd46debd5cd992f6ed6101e08201527f090689d0585ff075ec9e99ad690c3395bc4b313370b38ef355acdadcd122975b6102008201527f12c85ea5db8c6deb4aab71808dcb408fe3d1e7690c43d37b4ce6cc0166fa7daa610220820152843561024082015260208501356102608201527f07bee3c97f41f1d670b6226ec156f1763c433f6c277e774585a275e7474023c16102808201527f1b78fbc5db75b35f76bd22785074e6a3aa5515b7c86f873708a869e3c28dbae36102a08201527f2b967009401857ed3c51e3af98d06b43bcaa5d42b5f5f76054d365d01c55b10c6102c08201527f1cca544a846e3649907574b67cf044165370c89691dfc15fc8256ea00da1b4de6102e08201526020816103008360086107d05a03fa9051169695505050505050565b6040516103808101604052610622600084013561005e565b61062f602084013561005e565b61063c604084013561005e565b610649606084013561005e565b610656608084013561005e565b61066360a084013561005e565b610670818486888a6100fd565b90508060005260206000f35b806040810183101561068d57600080fd5b92915050565b6000806000806101c08086880312156106ab57600080fd5b6106b5878761067c565b945060c08601878111156106c857600080fd5b6040870194506106d8888261067c565b9350508681870111156106ea57600080fd5b5092959194509261010001915056fea2646970667358221220330851d99a9c60c4fa7095b5ad4ac6ddab5fae93e60668701be5cfa44e8d11a664736f6c63430008130033",
  "linkReferences": {},
  "deployedLinkReferences": {}
}