{
  "_format": "hh-sol-artifact-1",
  "contractName": "SimplifiedZKVerifier",
  "sourceName": "contracts/SimplifiedZKVerifier.sol",
  "abi": [
    {
      "anonymous": false,
      "inputs": [
        {
          "indexed": true,
          "internalType": "bytes32",
          "name": "proofId",
          "type": "bytes32"
        },
        {
          "indexed": true,
          "internalType": "address",
          "name": "verifier",
          "type": "address"
        },
        {
          "indexed": false,
          "internalType": "bool",
          "name": "isValid",
          "type": "bool"
        },
        {
          "indexed": false,
          "internalType": "uint256",
          "name": "timestamp",
          "type": "uint256"
        }
      ],
      "name": "ProofVerified",
      "type": "event"
    },
    {
      "inputs": [],
      "name": "getProofTypes",
      "outputs": [
        {
          "internalType": "string[3]",
          "name": "",
          "type": "string[3]"
        }
      ],
      "stateMutability": "pure",
      "type": "function"
    },
    {
      "inputs": [
        {
          "internalType": "address",
          "name": "user",
          "type": "address"
        },
        {
          "internalType": "uint256",
          "name": "proofType",
          "type": "uint256"
        }
      ],
      "name": "isUserVerified",
      "outputs": [
        {
          "internalType": "bool",
          "name": "",
          "type": "bool"
        }
      ],
      "stateMutability": "view",
      "type": "function"
    },
    {
      "inputs": [
        {
          "internalType": "address",
          "name": "",
          "type": "address"
        },
        {
          "internalType": "uint256",
          "name": "",
          "type": "uint256"
        }
      ],
      "name": "userVerifications",
      "outputs": [
        {
          "internalType": "bool",
          "name": "",
          "type": "bool"
        }
      ],
      "stateMutability": "view",
      "type": "function"
    },
    {
      "inputs": [
        {
          "internalType": "bytes32",
          "name": "",
          "type": "bytes32"
        }
      ],
      "name": "verifiedProofs",
      "outputs": [
        {
          "internalType": "bool",
          "name": "",
          "type": "bool"
        }
      ],
      "stateMutability": "view",
      "type": "function"
    },
    {
      "inputs": [
        {
          "components": [
            {
              "internalType": "uint256[2]",
              "name": "a",
              "type": "uint256[2]"
            },
            {
              "internalType": "uint256[2][2]",
              "name": "b",
              "type": "uint256[2][2]"
            },
            {
              "internalType": "uint256[2]",
              "name": "c",
              "type": "uint256[2]"
            }
          ],
          "internalType": "struct SimplifiedZKVerifier.Proof",
          "name": "proof",
          "type": "tuple"
        },
        {
          "components": [
            {
              "internalType": "uint256",
              "name": "commitment",
              "type": "uint256"
            },
            {
              "internalType": "uint256",
              "name": "proofType",
              "type": "uint256"
            },
            {
              "internalType": "uint256",
              "name": "timestamp",
              "type": "uint256"
            }
          ],
          "internalType": "struct SimplifiedZKVerifier.PublicInputs",
          "name": "inputs",
          "type": "tuple"
        },
        {
          "internalType": "bytes32",
          "name": "proofId",
          "type": "bytes32"
        }
      ],
      "name": "verifyProof",
      "outputs": [
        {
          "internalType": "bool",
          "name": "",
          "type": "bool"
        }
      ],
      "stateMutability": "nonpayable",
      "type": "function"
    }
  ],
  "bytecode": "0x608060405234801561001057600080fd5b50610a09806100206000396000f3fe608060405234801561001057600080fd5b50600436106100575760003560e01c8063024968ca1461005c5780630fd7b56a146100aa578063176d80c4146100d8578063ca601640146100fb578063f8cf710414610110575b600080fd5b61009561006a36600461064d565b6001600160a01b03919091166000908152600160209081526040808320938352929052205460ff1690565b60405190151581526020015b60405180910390f35b6100956100b836600461064d565b600160209081526000928352604080842090915290825290205460ff1681565b6100956100e6366004610685565b60006020819052908152604090205460ff1681565b610103610123565b6040516100a1919061069e565b61009561011e366004610807565b6101b9565b61012b610608565b60405180606001604052806040518060400160405280600e81526020016d4b594320436f6d706c69616e636560901b81525081526020016040518060400160405280600e81526020016d2637b1b0ba34b7b710283937b7b360911b81525081526020016040518060400160405280600a81526020016910524810dbdb9d195b9d60b21b815250815250905090565b60008181526020819052604081205460ff16156101d857506001610267565b60006101e4858561026e565b90508015610264576000838152602081815260408083208054600160ff199182168117909255338086528285528386208a86015187528552948390208054909116821790558151908152429281019290925285917fd70445ae79bfa82bd8c52e90ca89940dff8279c6c39f91265be2f4ae43e4cae2910160405180910390a35b90505b9392505050565b6040805180820182527f2d4d9aa7e302d9df41749d5507949d05dbea33fbb16c643b22f599a2be6df2e281527f14bedd503c37ceb061d8ec60209fe345ce89830a19230301f076caff004d19266020808301919091528251608080820185527f0967032fcbf776d1afc985f88877f182d38480a653f2decaa9794cbc3bf3060c8286019081527f0e6d3bda6dd28df42849231319f3b3c5bdb1c8d737e44bc80256236284cc4ede606080850191909152908352855180870187527f13b4608c4c305fb36ac2bbf0ca161456017159ad574961bb38dd17e82f871f7881527f261233b11ca0627e6c9833d22ccf805a2c73680296f50604260306fa16d093828186015283850152855191820186527f2b1299bc2abd70795ec6e7b0eb3a5a3f7aee9d5bccef0665ae42483ec54e8f0f8287019081527f2b5c08de9a24b0db4902fbf2c1c82022f8c8fb072ed19a9f54b3bdecc1d8ecde91830191909152815284518086019095527f1ea00a73471177eb2ec32f322f6bdb8cf8a072b2f8e06a7242c560aa0262ff3b85527f023ff302075d733aef01e5370a11783a066ef615b492fcbc686925b19993f63d858401529182019390935260009290836104318661044b565b905061044087858585856104c9565b979650505050505050565b61045361062f565b815160208084015160408086015181519384019490945282015260608101919091526000906000805160206109b4833981519152906080016040516020818303038152906040528051906020012060001c6104ae91906108cf565b60408051808201909152908152600160208201529392505050565b8451516000906000805160206109b48339815191521180156104fd57508551602001516000805160206109b4833981519152115b6105405760405162461bcd60e51b815260206004820152600f60248201526e496e76616c69642070726f6f662e6160881b60448201526064015b60405180910390fd5b6040860151516000805160206109b483398151915211801561057757506040860151602001516000805160206109b4833981519152115b6105b55760405162461bcd60e51b815260206004820152600f60248201526e496e76616c69642070726f6f662e6360881b6044820152606401610537565b6000866000015187602001518860400151888888886040516020016105e09796959493929190610948565b60408051808303601f19018152919052805160209091012061ffff1615979650505050505050565b60405180606001604052806003905b60608152602001906001900390816106175790505090565b60405180604001604052806002906020820280368337509192915050565b6000806040838503121561066057600080fd5b82356001600160a01b038116811461067757600080fd5b946020939093013593505050565b60006020828403121561069757600080fd5b5035919050565b6020808252600090608083018382018584805b600381101561070e57601f198089870301855283518051808852845b818110156106e8578281018a01518982018b015289016106cd565b508781018901859052601f019091169095018601945092850192918501916001016106b1565b5092979650505050505050565b634e487b7160e01b600052604160045260246000fd5b6040516060810167ffffffffffffffff811182821017156107545761075461071b565b60405290565b6040805190810167ffffffffffffffff811182821017156107545761075461071b565b600082601f83011261078e57600080fd5b61079661075a565b8060408401858111156107a857600080fd5b845b818110156107c25780358452602093840193016107aa565b509095945050505050565b6000606082840312156107df57600080fd5b6107e7610731565b905081358152602082013560208201526040820135604082015292915050565b600080600083850361018081121561081e57600080fd5b6101008082121561082e57600080fd5b610836610731565b9150610842878761077d565b8252604087605f88011261085557600080fd5b61085d61075a565b8060c089018a81111561086f57600080fd5b838a015b81811015610894576108858c8261077d565b84526020909301928401610873565b508160208701526108a58b8261077d565b84870152505050508194506108bc878288016107cd565b9350505061016084013590509250925092565b6000826108ec57634e487b7160e01b600052601260045260246000fd5b500690565b8060005b60028110156109145781518452602093840193909101906001016108f5565b50505050565b8060005b6002811015610914576109328483516108f1565b604093909301926020919091019060010161091e565b61095281896108f1565b61095f604082018861091a565b61096c60c08201876108f1565b61097a6101008201866108f1565b61098861014082018561091a565b6109966101c082018461091a565b6109a46102408201836108f1565b6102800197965050505050505056fe30644e72e131a029b85045b68181585d97816a916871ca8d3c208c16d87cfd47a264697066735822122056d7034599a75967e32a4c72339b62dde0e1c84765baa6c9ff72e4dbcadbf4f164736f6c63430008130033",
  "linkReferences": {},
  "deployedLinkReferences": {}
}