{
  "_format": "hh-sol-artifact-1",
  "contractName": "IoTeXDeviceVerifierV2",
  "sourceName": "contracts/IoTeXDeviceVerifierV2.sol",
  "abi": [
    {
      "anonymous": false,
      "inputs": [
        {
          "indexed": true,
          "internalType": "bytes32",
          "name": "deviceId",
          "type": "bytes32"
        },
        {
          "indexed": true,
          "internalType": "address",
          "name": "owner",
          "type": "address"
        }
      ],
      "name": "DeviceRegistered",
      "type": "event"
    },
    {
      "anonymous": false,
      "inputs": [
        {
          "indexed": true,
          "internalType": "bytes32",
          "name": "deviceId",
          "type": "bytes32"
        },
        {
          "indexed": false,
          "internalType": "uint256",
          "name": "proofId",
          "type": "uint256"
        },
        {
          "indexed": false,
          "internalType": "uint256",
          "name": "timestamp",
          "type": "uint256"
        }
      ],
      "name": "ProximityVerified",
      "type": "event"
    },
    {
      "anonymous": false,
      "inputs": [
        {
          "indexed": true,
          "internalType": "bytes32",
          "name": "deviceId",
          "type": "bytes32"
        },
        {
          "indexed": true,
          "internalType": "address",
          "name": "owner",
          "type": "address"
        },
        {
          "indexed": false,
          "internalType": "uint256",
          "name": "amount",
          "type": "uint256"
        }
      ],
      "name": "RewardsClaimed",
      "type": "event"
    },
    {
      "inputs": [
        {
          "internalType": "bytes32",
          "name": "deviceId",
          "type": "bytes32"
        }
      ],
      "name": "claimRewards",
      "outputs": [],
      "stateMutability": "nonpayable",
      "type": "function"
    },
    {
      "inputs": [
        {
          "internalType": "bytes32",
          "name": "",
          "type": "bytes32"
        }
      ],
      "name": "deviceRewards",
      "outputs": [
        {
          "internalType": "uint256",
          "name": "",
          "type": "uint256"
        }
      ],
      "stateMutability": "view",
      "type": "function"
    },
    {
      "inputs": [
        {
          "internalType": "bytes32",
          "name": "",
          "type": "bytes32"
        }
      ],
      "name": "devices",
      "outputs": [
        {
          "internalType": "address",
          "name": "owner",
          "type": "address"
        },
        {
          "internalType": "bool",
          "name": "registered",
          "type": "bool"
        },
        {
          "internalType": "uint256",
          "name": "registrationTime",
          "type": "uint256"
        },
        {
          "internalType": "uint256",
          "name": "lastProximityProof",
          "type": "uint256"
        }
      ],
      "stateMutability": "view",
      "type": "function"
    },
    {
      "inputs": [
        {
          "internalType": "bytes32",
          "name": "deviceId",
          "type": "bytes32"
        }
      ],
      "name": "getDeviceInfo",
      "outputs": [
        {
          "internalType": "address",
          "name": "owner",
          "type": "address"
        },
        {
          "internalType": "bool",
          "name": "registered",
          "type": "bool"
        },
        {
          "internalType": "uint256",
          "name": "registrationTime",
          "type": "uint256"
        },
        {
          "internalType": "uint256",
          "name": "lastProximityProof",
          "type": "uint256"
        },
        {
          "internalType": "uint256",
          "name": "pendingRewards",
          "type": "uint256"
        }
      ],
      "stateMutability": "view",
      "type": "function"
    },
    {
      "inputs": [
        {
          "internalType": "bytes32",
          "name": "deviceId",
          "type": "bytes32"
        },
        {
          "internalType": "address",
          "name": "owner",
          "type": "address"
        }
      ],
      "name": "registerDevice",
      "outputs": [],
      "stateMutability": "nonpayable",
      "type": "function"
    },
    {
      "inputs": [
        {
          "internalType": "bytes32",
          "name": "",
          "type": "bytes32"
        },
        {
          "internalType": "uint256",
          "name": "",
          "type": "uint256"
        }
      ],
      "name": "verifiedProofs",
      "outputs": [
        {
          "internalType": "bool",
          "name": "",
          "type": "bool"
        }
      ],
      "stateMutability": "view",
      "type": "function"
    },
    {
      "inputs": [
        {
          "internalType": "uint256[3]",
          "name": "i_z0_zi",
          "type": "uint256[3]"
        },
        {
          "internalType": "uint256[4]",
          "name": "U_i_cmW_U_i_cmE",
          "type": "uint256[4]"
        },
        {
          "internalType": "uint256[2]",
          "name": "u_i_cmW",
          "type": "uint256[2]"
        },
        {
          "internalType": "uint256[3]",
          "name": "cmT_r",
          "type": "uint256[3]"
        },
        {
          "internalType": "uint256[2]",
          "name": "pA",
          "type": "uint256[2]"
        },
        {
          "internalType": "uint256[2][2]",
          "name": "pB",
          "type": "uint256[2][2]"
        },
        {
          "internalType": "uint256[2]",
          "name": "pC",
          "type": "uint256[2]"
        },
        {
          "internalType": "uint256[4]",
          "name": "challenge_W_challenge_E_kzg_evals",
          "type": "uint256[4]"
        },
        {
          "internalType": "uint256[2][2]",
          "name": "kzg_proof",
          "type": "uint256[2][2]"
        },
        {
          "internalType": "bytes32",
          "name": "deviceId",
          "type": "bytes32"
        },
        {
          "internalType": "uint256",
          "name": "proofId",
          "type": "uint256"
        }
      ],
      "name": "verifyDeviceProximity",
      "outputs": [
        {
          "internalType": "bool",
          "name": "",
          "type": "bool"
        }
      ],
      "stateMutability": "nonpayable",
      "type": "function"
    },
    {
      "stateMutability": "payable",
      "type": "receive"
    }
  ],
  "bytecode": "0x608060405234801561001057600080fd5b50610a63806100206000396000f3fe6080604052600436106100745760003560e01c80638e998fe91161004e5780638e998fe91461018c578063c5c400de146101c7578063e10028ab14610242578063fc2022611461027d57600080fd5b80635843802c1461008057806359d902ed146100b55780637790ddc61461016a57600080fd5b3661007b57005b600080fd5b34801561008c57600080fd5b506100a061009b36600461080e565b61029d565b60405190151581526020015b60405180910390f35b3480156100c157600080fd5b506101386100d03660046108da565b600081815260208181526040808320815160808101835281546001600160a01b038116808352600160a01b90910460ff161515828601819052600184015483860181905260029485015460609094018490529787529290945291909320549194929392909190565b604080516001600160a01b0390961686529315156020860152928401919091526060830152608082015260a0016100ac565b34801561017657600080fd5b5061018a6101853660046108da565b61049d565b005b34801561019857600080fd5b506100a06101a73660046108f3565b600160209081526000928352604080842090915290825290205460ff1681565b3480156101d357600080fd5b506102186101e23660046108da565b6000602081905290815260409020805460018201546002909201546001600160a01b03821692600160a01b90920460ff16919084565b604080516001600160a01b03909516855292151560208501529183015260608201526080016100ac565b34801561024e57600080fd5b5061026f61025d3660046108da565b60026020526000908152604090205481565b6040519081526020016100ac565b34801561028957600080fd5b5061018a610298366004610915565b61067f565b600082815260208190526040812054600160a01b900460ff166102ff5760405162461bcd60e51b815260206004820152601560248201527411195d9a58d9481b9bdd081c9959da5cdd195c9959605a1b60448201526064015b60405180910390fd5b600083815260016020908152604080832085845290915290205460ff16156103625760405162461bcd60e51b8152602060048201526016602482015275141c9bdbd988185b1c9958591e481d995c9a599a595960521b60448201526064016102f6565b600073ad5f0101b94f581979aa22f123b7efd9501bfeb36001600160a01b031663fc3d76fa8e8e8e8e8e8e8e8e8e6040518a63ffffffff1660e01b81526004016103b49998979695949392919061097b565b602060405180830381865afa1580156103d1573d6000803e3d6000fd5b505050506040513d601f19601f820116820180604052508101906103f591906109e3565b9050801561048d5760008481526001602081815260408084208785528252808420805460ff191690931790925586835282815281832042600291820155905281208054662386f26fc10000929061044d908490610a0c565b90915550506040805184815242602082015285917f267b87a089a59010a5f6487a568b9a98c82616014f9580beb9efb4d04467d257910160405180910390a25b9c9b505050505050505050505050565b600081815260208190526040902054600160a01b900460ff166104fa5760405162461bcd60e51b815260206004820152601560248201527411195d9a58d9481b9bdd081c9959da5cdd195c9959605a1b60448201526064016102f6565b6000818152602081905260409020546001600160a01b031633146105535760405162461bcd60e51b815260206004820152601060248201526f2737ba103232bb34b1b29037bbb732b960811b60448201526064016102f6565b600081815260026020526040902054806105a55760405162461bcd60e51b81526020600482015260136024820152724e6f207265776172647320746f20636c61696d60681b60448201526064016102f6565b60008281526002602052604080822082905551339083908381818185875af1925050503d80600081146105f4576040519150601f19603f3d011682016040523d82523d6000602084013e6105f9565b606091505b50509050806106435760405162461bcd60e51b815260206004820152601660248201527514995dd85c99081d1c985b9cd9995c8819985a5b195960521b60448201526064016102f6565b604051828152339084907ffec539b3c42d74cd492c3ecf7966bf014b327beef98e935cdc3ec5e54a6901c79060200160405180910390a3505050565b600082815260208190526040902054600160a01b900460ff16156106e55760405162461bcd60e51b815260206004820152601960248201527f44657669636520616c726561647920726567697374657265640000000000000060448201526064016102f6565b6001600160a01b0381166107335760405162461bcd60e51b8152602060048201526015602482015274496e76616c6964206f776e6572206164647265737360581b60448201526064016102f6565b604080516080810182526001600160a01b0380841680835260016020808501828152428688019081526000606088018181528b8252938190528881209751885493511515600160a01b026001600160a81b03199094169716969096179190911786555191850191909155516002909301929092559151909184917fd87fed90c1b7378fc9b09cc6f641d001f9d1fdf09b533c90195d4204209d4b839190a35050565b80606081018310156107e657600080fd5b92915050565b80608081018310156107e657600080fd5b80604081018310156107e657600080fd5b60008060008060008060008060008060006103c08c8e03121561083057600080fd5b61083a8d8d6107d5565b9a506108498d60608e016107ec565b99506108588d60e08e016107fd565b98506108688d6101208e016107d5565b97506108788d6101808e016107fd565b96506108888d6101c08e016107ec565b95506108988d6102408e016107fd565b94506108a88d6102808e016107ec565b93506108b88d6103008e016107ec565b92506103808c013591506103a08c013590509295989b509295989b9093969950565b6000602082840312156108ec57600080fd5b5035919050565b6000806040838503121561090657600080fd5b50508035926020909101359150565b6000806040838503121561092857600080fd5b8235915060208301356001600160a01b038116811461094657600080fd5b809150509250929050565b8060005b600281101561097557604080838637938401939190910190600101610955565b50505050565b610380810160608b833760808a606084013760408960e08401376060886101208401376040876101808401376109b56101c0830187610951565b6040856102408401376080846102808401376109d5610300830184610951565b9a9950505050505050505050565b6000602082840312156109f557600080fd5b81518015158114610a0557600080fd5b9392505050565b808201808211156107e657634e487b7160e01b600052601160045260246000fdfea264697066735822122004b5197b446f48f9bc93b59794052c479a425c5537bb910fb5be5b88e603e92e64736f6c63430008130033",
  "linkReferences": {},
  "deployedLinkReferences": {}
}