{
  "_format": "hh-sol-artifact-1",
  "contractName": "ProximityNovaDecider",
  "sourceName": "contracts/ProximityNovaDecider.sol",
  "abi": [
    {
      "inputs": [],
      "stateMutability": "nonpayable",
      "type": "constructor"
    },
    {
      "anonymous": false,
      "inputs": [
        {
          "indexed": false,
          "internalType": "bool",
          "name": "success",
          "type": "bool"
        },
        {
          "indexed": false,
          "internalType": "uint256[3]",
          "name": "publicInputs",
          "type": "uint256[3]"
        }
      ],
      "name": "ProofVerified",
      "type": "event"
    },
    {
      "inputs": [
        {
          "internalType": "uint256[3]",
          "name": "i_z0_zi",
          "type": "uint256[3]"
        },
        {
          "internalType": "uint256[4]",
          "name": "U_i_cmW_U_i_cmE",
          "type": "uint256[4]"
        },
        {
          "internalType": "uint256[2]",
          "name": "u_i_cmW",
          "type": "uint256[2]"
        },
        {
          "internalType": "uint256[3]",
          "name": "cmT_r",
          "type": "uint256[3]"
        },
        {
          "internalType": "uint256[2]",
          "name": "pA",
          "type": "uint256[2]"
        },
        {
          "internalType": "uint256[2][2]",
          "name": "pB",
          "type": "uint256[2][2]"
        },
        {
          "internalType": "uint256[2]",
          "name": "pC",
          "type": "uint256[2]"
        },
        {
          "internalType": "uint256[4]",
          "name": "challenge_W_challenge_E_kzg_evals",
          "type": "uint256[4]"
        },
        {
          "internalType": "uint256[2][2]",
          "name": "kzg_proof",
          "type": "uint256[2][2]"
        }
      ],
      "name": "verifyNovaProof",
      "outputs": [
        {
          "internalType": "bool",
          "name": "",
          "type": "bool"
        }
      ],
      "stateMutability": "view",
      "type": "function"
    }
  ],
  "bytecode": "0x60806040523480156200001157600080fd5b506200001c62000022565b6200030d565b6040805180820190915260018152600260208201819052620000479160009162000244565b5060408051608081018252600381830190815260046060830152815281518083019092526005825260066020838101919091528101919091526200008f90600290816200028c565b50604080516080810182526007818301908152600860608301528152815180830190925260098252600a602083810191909152810191909152620000d89060069060026200028c565b5060408051608081018252600b818301908152600c606083015281528151808301909252600d8252600e6020838101919091528101919091526200012190600a9060026200028c565b5060408051808201909152600f815260106020820152600e80546001810182556000919091526200016991600291820260008051602062000df1833981519152019162000244565b50604080518082019091526011815260126020820152600e8054600181018255600091909152620001b191600291820260008051602062000df1833981519152019162000244565b50604080518082019091526013815260146020820152600e8054600181018255600091909152620001f991600291820260008051602062000df1833981519152019162000244565b50604080518082019091526015815260166020820152600e80546001810182556000919091526200024191600291820260008051602062000df1833981519152019162000244565b50565b82600281019282156200027a579160200282015b828111156200027a578251829060ff1690559160200191906001019062000258565b5062000288929150620002da565b5090565b600483019183908215620002cc579160200282015b82811115620002cc578251620002bb908390600262000244565b5091602001919060020190620002a1565b5062000288929150620002f1565b5b80821115620002885760008155600101620002db565b80821115620002885760008082556001820155600201620002f1565b610ad4806200031d6000396000f3fe608060405234801561001057600080fd5b506004361061002b5760003560e01c8063fc3d76fa14610030575b600080fd5b61004361003e366004610930565b610057565b604051901515815260200160405180910390f35b6000600080516020610a7f8339815191528a351080156100885750600080516020610a7f83398151915260208b0135105b6100cf5760405162461bcd60e51b8152602060048201526013602482015272496e76616c696420636f6f7264696e6174657360681b60448201526064015b60405180910390fd5b600160408b013511156101245760405162461bcd60e51b815260206004820152601860248201527f496e76616c69642070726f78696d69747920726573756c74000000000000000060448201526064016100c6565b60006101358b3560208d013561034c565b9050600160408c0135148115151461015157600091505061033f565b600061023560405180604001604052808a600060028110610174576101746109e6565b602002013581526020018a600160028110610191576101916109e6565b60209081029190910135909152604080516080810182528b358183019081528c84013560608301528152815180830190925291820190808c6001604002013581526020018c600160206040918202929092018201359092529190925281518083019092528a35825281018a600160200201358152508f60038060200260405190810160405280929190826003602002808284376000920191909152506103d3915050565b9050806102475760009250505061033f565b60006103398c60048060200260405190810160405280929190826004602002808284376000920191909152505060408051808201825291508e9060029083908390808284376000920191909152505060408051606081810190925291508e9060039083908390808284376000920191909152505060408051608081810190925291508b90600490839083908082843760009201829052506040805180820190915292508c9150600290835b8282101561033057604080518082018252908084028601906002908390839080828437600092019190915250505081526001909101906020016102f2565b5050505061064c565b93505050505b9998505050505050505050565b60006113888060648382871161036b576103668785610a12565b610375565b6103758488610a12565b9050600083871161038f5761038a8785610a12565b610399565b6103998488610a12565b90506103a58380610a25565b6103af8280610a25565b6103b98480610a25565b6103c39190610a3c565b1115955050505050505b92915050565b6000806000600e016000815481106103ed576103ed6109e6565b600091825260209091206040805180820191829052926002908102909201919082845b815481526020019060010190808311610410575050505050905060005b60038110801561044a5750600e5461044790600190610a12565b81105b156104ea5760006104c8600e610461846001610a3c565b81548110610471576104716109e6565b600091825260209091206040805180820191829052926002908102909201919082845b8154815260200190600101908083116104945750505050508684600381106104be576104be6109e6565b6020020151610715565b90506104d48382610770565b92505080806104e290610a4f565b91505061042d565b50604080518082019182905261064291889188918891869160009060029082845b81548152602001906001019080831161050b575050604080518082019091529250600291508190506000835b8282101561057d57604080518082019182905290600284810287019182845b81548152602001906001019080831161055657505050505081526020019060010190610537565b50506040805180820190915291506006905060026000835b828210156105db57604080518082019182905290600284810287019182845b8154815260200190600101908083116105b457505050505081526020019060010190610595565b5050604080518082019091529150600a905060026000835b8282101561063957604080518082019182905290600284810287019182845b815481526020019060010190808311610612575050505050815260200190600101906105f3565b505050506107d2565b9695505050505050565b6000805b60048110156106a057600080516020610a7f83398151915287826004811061067a5761067a6109e6565b60200201511061068e57600091505061070c565b8061069881610a4f565b915050610650565b5060005b6004811015610706577f30644e72e131a029b85045b68181585d2833e84879b9709143e1f593f00000018482600481106106e0576106e06109e6565b6020020151106106f457600091505061070c565b806106fe81610a4f565b9150506106a4565b50600190505b95945050505050565b61071d6108a2565b6040518060400160405280600080516020610a7f8339815191528061074457610744610a68565b85518590098152602001600080516020610a7f8339815191528486600160200201510990529392505050565b6107786108a2565b6040518060400160405280600080516020610a7f8339815191528061079f5761079f610a68565b84518651088152602001600080516020610a7f833981519152846001602002015186600160200201510890529392505050565b60006107dc6108c0565b8951815260208a01516107fd90600080516020610a7f833981519152610a12565b602080830191909152895151604083015289518101516060830152898101805151608084015251015160a08201526108336108df565b60006020826101808560085afa905080801561085d57508b51600080516020610a7f833981519152115b801561087857508a5151600080516020610a7f833981519152115b801561089257508951600080516020610a7f833981519152115b9c9b505050505050505050505050565b60405180604001604052806002906020820280368337509192915050565b604051806101800160405280600c906020820280368337509192915050565b60405180602001604052806001906020820280368337509192915050565b80606081018310156103cd57600080fd5b80608081018310156103cd57600080fd5b80604081018310156103cd57600080fd5b60008060008060008060008060006103808a8c03121561094f57600080fd5b6109598b8b6108fd565b98506109688b60608c0161090e565b97506109778b60e08c0161091f565b96506109878b6101208c016108fd565b95506109978b6101808c0161091f565b94506109a78b6101c08c0161090e565b93506109b78b6102408c0161091f565b92506109c78b6102808c0161090e565b91506109d78b6103008c0161090e565b90509295985092959850929598565b634e487b7160e01b600052603260045260246000fd5b634e487b7160e01b600052601160045260246000fd5b818103818111156103cd576103cd6109fc565b80820281158282048414176103cd576103cd6109fc565b808201808211156103cd576103cd6109fc565b600060018201610a6157610a616109fc565b5060010190565b634e487b7160e01b600052601260045260246000fdfe30644e72e131a029b85045b68181585d97816a916871ca8d3c208c16d87cfd47a2646970667358221220a217ad7d1005876abb7ab35f9661ae700cbbbc8203d6f6ba6798fa7ef9df8f3f64736f6c63430008130033bb7b4a454dc3493923482f07822329ed19e8244eff582cc204f8554c3620c3fd",
  "linkReferences": {},
  "deployedLinkReferences": {}
}