{
  "_format": "hh-sol-artifact-1",
  "contractName": "Groth16Verifier",
  "sourceName": "contracts/Groth16Verifier.sol",
  "abi": [
    {
      "anonymous": false,
      "inputs": [
        {
          "indexed": true,
          "internalType": "bytes32",
          "name": "proofId",
          "type": "bytes32"
        },
        {
          "indexed": true,
          "internalType": "address",
          "name": "verifier",
          "type": "address"
        },
        {
          "indexed": false,
          "internalType": "bool",
          "name": "isValid",
          "type": "bool"
        },
        {
          "indexed": false,
          "internalType": "uint256",
          "name": "timestamp",
          "type": "uint256"
        }
      ],
      "name": "ProofVerified",
      "type": "event"
    },
    {
      "inputs": [
        {
          "internalType": "address",
          "name": "user",
          "type": "address"
        },
        {
          "internalType": "uint256",
          "name": "proofType",
          "type": "uint256"
        }
      ],
      "name": "isUserVerified",
      "outputs": [
        {
          "internalType": "bool",
          "name": "",
          "type": "bool"
        }
      ],
      "stateMutability": "view",
      "type": "function"
    },
    {
      "inputs": [
        {
          "internalType": "bytes32",
          "name": "",
          "type": "bytes32"
        }
      ],
      "name": "verifiedProofs",
      "outputs": [
        {
          "internalType": "bool",
          "name": "",
          "type": "bool"
        }
      ],
      "stateMutability": "view",
      "type": "function"
    },
    {
      "inputs": [
        {
          "internalType": "uint256[2]",
          "name": "_pA",
          "type": "uint256[2]"
        },
        {
          "internalType": "uint256[2][2]",
          "name": "_pB",
          "type": "uint256[2][2]"
        },
        {
          "internalType": "uint256[2]",
          "name": "_pC",
          "type": "uint256[2]"
        },
        {
          "internalType": "uint256[6]",
          "name": "_pubSignals",
          "type": "uint256[6]"
        }
      ],
      "name": "verifyProof",
      "outputs": [
        {
          "internalType": "bool",
          "name": "",
          "type": "bool"
        }
      ],
      "stateMutability": "view",
      "type": "function"
    }
  ],
  "bytecode": "0x608060405234801561001057600080fd5b506102c2806100206000396000f3fe608060405234801561001057600080fd5b50600436106100415760003560e01c8063024968ca14610046578063176d80c414610070578063f398789b14610093575b600080fd5b61005c6100543660046100ab565b600092915050565b604051901515815260200160405180910390f35b61005c61007e3660046100e3565b60006020819052908152604090205460ff1681565b61005c6100a13660046101ae565b6001949350505050565b600080604083850312156100be57600080fd5b82356001600160a01b03811681146100d557600080fd5b946020939093013593505050565b6000602082840312156100f557600080fd5b5035919050565b634e487b7160e01b600052604160045260246000fd5b6040805190810167ffffffffffffffff81118282101715610135576101356100fc565b60405290565b60405160c0810167ffffffffffffffff81118282101715610135576101356100fc565b600082601f83011261016f57600080fd5b610177610112565b80604084018581111561018957600080fd5b845b818110156101a357803584526020938401930161018b565b509095945050505050565b6000806000806101c08086880312156101c657600080fd5b6101d0878761015e565b9450604087605f8801126101e357600080fd5b6101eb610112565b8060c089018a8111156101fd57600080fd5b838a015b81811015610222576102138c8261015e565b84526020909301928401610201565b508197506102308b8261015e565b9650505050508661011f87011261024657600080fd5b61024e61013b565b90860190808883111561026057600080fd5b61010088015b8381101561027e578035835260209283019201610266565b50959894975092955050505056fea2646970667358221220e28ee262faa132a2d7bf3bc6007bffca1c98757aaedd3cf9fceb53c0f7f3d5b264736f6c63430008130033",
  "linkReferences": {},
  "deployedLinkReferences": {}
}