{
  "_format": "hh-sol-artifact-1",
  "contractName": "IoTeXProximityVerifier",
  "sourceName": "contracts/IoTeXProximityVerifier.sol",
  "abi": [
    {
      "inputs": [],
      "stateMutability": "nonpayable",
      "type": "constructor"
    },
    {
      "anonymous": false,
      "inputs": [
        {
          "indexed": true,
          "internalType": "bytes32",
          "name": "deviceId",
          "type": "bytes32"
        },
        {
          "indexed": true,
          "internalType": "address",
          "name": "owner",
          "type": "address"
        },
        {
          "indexed": false,
          "internalType": "uint256",
          "name": "timestamp",
          "type": "uint256"
        },
        {
          "indexed": false,
          "internalType": "string",
          "name": "ioId",
          "type": "string"
        },
        {
          "indexed": false,
          "internalType": "string",
          "name": "did",
          "type": "string"
        }
      ],
      "name": "DeviceRegistered",
      "type": "event"
    },
    {
      "anonymous": false,
      "inputs": [
        {
          "indexed": true,
          "internalType": "bytes32",
          "name": "deviceId",
          "type": "bytes32"
        },
        {
          "indexed": true,
          "internalType": "address",
          "name": "verifier",
          "type": "address"
        },
        {
          "indexed": false,
          "internalType": "bool",
          "name": "withinProximity",
          "type": "bool"
        },
        {
          "indexed": false,
          "internalType": "uint256",
          "name": "reward",
          "type": "uint256"
        },
        {
          "indexed": false,
          "internalType": "uint256",
          "name": "timestamp",
          "type": "uint256"
        }
      ],
      "name": "ProximityVerified",
      "type": "event"
    },
    {
      "anonymous": false,
      "inputs": [
        {
          "indexed": true,
          "internalType": "bytes32",
          "name": "deviceId",
          "type": "bytes32"
        },
        {
          "indexed": true,
          "internalType": "address",
          "name": "claimer",
          "type": "address"
        },
        {
          "indexed": false,
          "internalType": "uint256",
          "name": "amount",
          "type": "uint256"
        }
      ],
      "name": "RewardsClaimed",
      "type": "event"
    },
    {
      "inputs": [],
      "name": "CENTER_X",
      "outputs": [
        {
          "internalType": "uint256",
          "name": "",
          "type": "uint256"
        }
      ],
      "stateMutability": "view",
      "type": "function"
    },
    {
      "inputs": [],
      "name": "CENTER_Y",
      "outputs": [
        {
          "internalType": "uint256",
          "name": "",
          "type": "uint256"
        }
      ],
      "stateMutability": "view",
      "type": "function"
    },
    {
      "inputs": [],
      "name": "PROXIMITY_RADIUS",
      "outputs": [
        {
          "internalType": "uint256",
          "name": "",
          "type": "uint256"
        }
      ],
      "stateMutability": "view",
      "type": "function"
    },
    {
      "inputs": [
        {
          "internalType": "bytes32",
          "name": "deviceId",
          "type": "bytes32"
        }
      ],
      "name": "claimRewards",
      "outputs": [
        {
          "internalType": "uint256",
          "name": "amount",
          "type": "uint256"
        }
      ],
      "stateMutability": "nonpayable",
      "type": "function"
    },
    {
      "inputs": [
        {
          "internalType": "bytes32",
          "name": "",
          "type": "bytes32"
        }
      ],
      "name": "deviceRewards",
      "outputs": [
        {
          "internalType": "uint256",
          "name": "",
          "type": "uint256"
        }
      ],
      "stateMutability": "view",
      "type": "function"
    },
    {
      "inputs": [
        {
          "internalType": "bytes32",
          "name": "",
          "type": "bytes32"
        }
      ],
      "name": "devices",
      "outputs": [
        {
          "internalType": "address",
          "name": "owner",
          "type": "address"
        },
        {
          "internalType": "bool",
          "name": "registered",
          "type": "bool"
        },
        {
          "internalType": "uint256",
          "name": "registrationTime",
          "type": "uint256"
        },
        {
          "internalType": "string",
          "name": "ioId",
          "type": "string"
        },
        {
          "internalType": "string",
          "name": "did",
          "type": "string"
        },
        {
          "internalType": "uint256",
          "name": "totalRewards",
          "type": "uint256"
        },
        {
          "internalType": "bool",
          "name": "isVerified",
          "type": "bool"
        }
      ],
      "stateMutability": "view",
      "type": "function"
    },
    {
      "inputs": [],
      "name": "getContractBalance",
      "outputs": [
        {
          "internalType": "uint256",
          "name": "",
          "type": "uint256"
        }
      ],
      "stateMutability": "view",
      "type": "function"
    },
    {
      "inputs": [
        {
          "internalType": "bytes32",
          "name": "deviceId",
          "type": "bytes32"
        }
      ],
      "name": "getDevice",
      "outputs": [
        {
          "components": [
            {
              "internalType": "address",
              "name": "owner",
              "type": "address"
            },
            {
              "internalType": "bool",
              "name": "registered",
              "type": "bool"
            },
            {
              "internalType": "uint256",
              "name": "registrationTime",
              "type": "uint256"
            },
            {
              "internalType": "string",
              "name": "ioId",
              "type": "string"
            },
            {
              "internalType": "string",
              "name": "did",
              "type": "string"
            },
            {
              "internalType": "uint256",
              "name": "totalRewards",
              "type": "uint256"
            },
            {
              "internalType": "bool",
              "name": "isVerified",
              "type": "bool"
            }
          ],
          "internalType": "struct IoTeXProximityVerifier.Device",
          "name": "",
          "type": "tuple"
        }
      ],
      "stateMutability": "view",
      "type": "function"
    },
    {
      "inputs": [
        {
          "internalType": "address",
          "name": "user",
          "type": "address"
        }
      ],
      "name": "getUserDevices",
      "outputs": [
        {
          "internalType": "bytes32[]",
          "name": "",
          "type": "bytes32[]"
        }
      ],
      "stateMutability": "view",
      "type": "function"
    },
    {
      "inputs": [],
      "name": "owner",
      "outputs": [
        {
          "internalType": "address",
          "name": "",
          "type": "address"
        }
      ],
      "stateMutability": "view",
      "type": "function"
    },
    {
      "inputs": [
        {
          "internalType": "bytes32",
          "name": "deviceId",
          "type": "bytes32"
        },
        {
          "internalType": "string",
          "name": "deviceType",
          "type": "string"
        }
      ],
      "name": "registerDevice",
      "outputs": [
        {
          "internalType": "string",
          "name": "ioId",
          "type": "string"
        },
        {
          "internalType": "string",
          "name": "did",
          "type": "string"
        }
      ],
      "stateMutability": "payable",
      "type": "function"
    },
    {
      "inputs": [],
      "name": "registrationFee",
      "outputs": [
        {
          "internalType": "uint256",
          "name": "",
          "type": "uint256"
        }
      ],
      "stateMutability": "view",
      "type": "function"
    },
    {
      "inputs": [],
      "name": "rewardAmount",
      "outputs": [
        {
          "internalType": "uint256",
          "name": "",
          "type": "uint256"
        }
      ],
      "stateMutability": "view",
      "type": "function"
    },
    {
      "inputs": [],
      "name": "totalDevicesRegistered",
      "outputs": [
        {
          "internalType": "uint256",
          "name": "",
          "type": "uint256"
        }
      ],
      "stateMutability": "view",
      "type": "function"
    },
    {
      "inputs": [],
      "name": "totalVerifications",
      "outputs": [
        {
          "internalType": "uint256",
          "name": "",
          "type": "uint256"
        }
      ],
      "stateMutability": "view",
      "type": "function"
    },
    {
      "inputs": [
        {
          "internalType": "uint256",
          "name": "_registrationFee",
          "type": "uint256"
        },
        {
          "internalType": "uint256",
          "name": "_verificationFee",
          "type": "uint256"
        },
        {
          "internalType": "uint256",
          "name": "_rewardAmount",
          "type": "uint256"
        }
      ],
      "name": "updateFees",
      "outputs": [],
      "stateMutability": "nonpayable",
      "type": "function"
    },
    {
      "inputs": [
        {
          "internalType": "address",
          "name": "",
          "type": "address"
        },
        {
          "internalType": "uint256",
          "name": "",
          "type": "uint256"
        }
      ],
      "name": "userDevices",
      "outputs": [
        {
          "internalType": "bytes32",
          "name": "",
          "type": "bytes32"
        }
      ],
      "stateMutability": "view",
      "type": "function"
    },
    {
      "inputs": [],
      "name": "verificationFee",
      "outputs": [
        {
          "internalType": "uint256",
          "name": "",
          "type": "uint256"
        }
      ],
      "stateMutability": "view",
      "type": "function"
    },
    {
      "inputs": [
        {
          "internalType": "bytes32",
          "name": "deviceId",
          "type": "bytes32"
        },
        {
          "components": [
            {
              "internalType": "uint256[3]",
              "name": "i_z0_zi",
              "type": "uint256[3]"
            },
            {
              "internalType": "uint256[4]",
              "name": "U_i_cmW_U_i_cmE",
              "type": "uint256[4]"
            },
            {
              "internalType": "uint256[2]",
              "name": "u_i_cmW",
              "type": "uint256[2]"
            },
            {
              "internalType": "uint256[3]",
              "name": "cmT_r",
              "type": "uint256[3]"
            },
            {
              "internalType": "uint256[2]",
              "name": "pA",
              "type": "uint256[2]"
            },
            {
              "internalType": "uint256[2][2]",
              "name": "pB",
              "type": "uint256[2][2]"
            },
            {
              "internalType": "uint256[2]",
              "name": "pC",
              "type": "uint256[2]"
            },
            {
              "internalType": "uint256[4]",
              "name": "challenge_W_challenge_E_kzg_evals",
              "type": "uint256[4]"
            },
            {
              "internalType": "uint256[2][2]",
              "name": "kzg_proof",
              "type": "uint256[2][2]"
            }
          ],
          "internalType": "struct IoTeXProximityVerifier.NovaProof",
          "name": "proof",
          "type": "tuple"
        },
        {
          "internalType": "uint256[4]",
          "name": "publicInputs",
          "type": "uint256[4]"
        }
      ],
      "name": "verifyDeviceProximity",
      "outputs": [
        {
          "internalType": "bool",
          "name": "verified",
          "type": "bool"
        },
        {
          "internalType": "uint256",
          "name": "reward",
          "type": "uint256"
        }
      ],
      "stateMutability": "payable",
      "type": "function"
    },
    {
      "inputs": [],
      "name": "withdraw",
      "outputs": [],
      "stateMutability": "nonpayable",
      "type": "function"
    },
    {
      "stateMutability": "payable",
      "type": "receive"
    }
  ],
  "bytecode": "0x6080604052662386f26fc1000060035566038d7ea4c6800060045567016345785d8a000060055534801561003257600080fd5b50600680546001600160a01b03191633179055611bf2806100546000396000f3fe6080604052600436106101235760003560e01c8063a8c278a2116100a0578063e10028ab11610064578063e10028ab14610324578063e22546c714610351578063eff0eff714610366578063f1309fbc146101ed578063f7b2a7be1461039057600080fd5b8063a8c278a21461028f578063ac90c140146102a5578063c5c400de146102bb578063d221eeb2146102ee578063d5928be91461030457600080fd5b80636c67ae2e116100e75780636c67ae2e146101ed5780636f9fb98a146102035780637790ddc61461021657806384e3c5c9146102365780638da5cb5b1461025757600080fd5b806305f395321461012f57806314c44e091461016557806322429085146101895780633ccfd60b146101ab5780636a7f745e146101c057600080fd5b3661012a57005b600080fd5b34801561013b57600080fd5b5061014f61014a366004611273565b6103a6565b60405161015c9190611295565b60405180910390f35b34801561017157600080fd5b5061017b60035481565b60405190815260200161015c565b34801561019557600080fd5b506101a96101a43660046112d9565b610412565b005b3480156101b757600080fd5b506101a9610453565b3480156101cc57600080fd5b506101e06101db366004611305565b6104b9565b60405161015c919061136e565b3480156101f957600080fd5b5061017b61138881565b34801561020f57600080fd5b504761017b565b34801561022257600080fd5b5061017b610231366004611305565b610682565b610249610244366004611487565b6108af565b60405161015c929190611526565b34801561026357600080fd5b50600654610277906001600160a01b031681565b6040516001600160a01b03909116815260200161015c565b34801561029b57600080fd5b5061017b60045481565b3480156102b157600080fd5b5061017b60085481565b3480156102c757600080fd5b506102db6102d6366004611305565b610b09565b60405161015c9796959493929190611554565b3480156102fa57600080fd5b5061017b60075481565b34801561031057600080fd5b5061017b61031f3660046115b1565b610c67565b34801561033057600080fd5b5061017b61033f366004611305565b60016020526000908152604090205481565b34801561035d57600080fd5b5061017b606481565b610379610374366004611731565b610c98565b60408051921515835260208301919091520161015c565b34801561039c57600080fd5b5061017b60055481565b6001600160a01b03811660009081526002602090815260409182902080548351818402810184019094528084526060939283018282801561040657602002820191906000526020600020905b8154815260200190600101908083116103f2575b50505050509050919050565b6006546001600160a01b031633146104455760405162461bcd60e51b815260040161043c90611827565b60405180910390fd5b600392909255600455600555565b6006546001600160a01b0316331461047d5760405162461bcd60e51b815260040161043c90611827565b6006546040516001600160a01b03909116904780156108fc02916000818181858888f193505050501580156104b6573d6000803e3d6000fd5b50565b6040805160e0810182526000808252602082018190529181018290526060808201819052608082015260a0810182905260c081019190915260008281526020818152604091829020825160e08101845281546001600160a01b0381168252600160a01b900460ff1615159281019290925260018101549282019290925260028201805491929160608401919061054e90611868565b80601f016020809104026020016040519081016040528092919081815260200182805461057a90611868565b80156105c75780601f1061059c576101008083540402835291602001916105c7565b820191906000526020600020905b8154815290600101906020018083116105aa57829003601f168201915b505050505081526020016003820180546105e090611868565b80601f016020809104026020016040519081016040528092919081815260200182805461060c90611868565b80156106595780601f1061062e57610100808354040283529160200191610659565b820191906000526020600020905b81548152906001019060200180831161063c57829003601f168201915b50505091835250506004820154602082015260059091015460ff16151560409091015292915050565b6000818152602081905260408120548290600160a01b900460ff166106e15760405162461bcd60e51b815260206004820152601560248201527411195d9a58d9481b9bdd081c9959da5cdd195c9959605a1b604482015260640161043c565b6000838152602081905260409020546001600160a01b0316331461073a5760405162461bcd60e51b815260206004820152601060248201526f2737ba103232bb34b1b29037bbb732b960811b604482015260640161043c565b60008381526020819052604090206005015460ff166107915760405162461bcd60e51b815260206004820152601360248201527211195d9a58d9481b9bdd081d995c9a599a5959606a1b604482015260640161043c565b6000838152600160205260409020549150816107e55760405162461bcd60e51b81526020600482015260136024820152724e6f207265776172647320746f20636c61696d60681b604482015260640161043c565b814710156108355760405162461bcd60e51b815260206004820152601d60248201527f496e73756666696369656e7420636f6e74726163742062616c616e6365000000604482015260640161043c565b60008381526001602052604080822082905551339184156108fc02918591818181858888f19350505050158015610870573d6000803e3d6000fd5b50604051828152339084907ffec539b3c42d74cd492c3ecf7966bf014b327beef98e935cdc3ec5e54a6901c79060200160405180910390a35b50919050565b6060806003543410156109045760405162461bcd60e51b815260206004820152601d60248201527f496e73756666696369656e7420726567697374726174696f6e20666565000000604482015260640161043c565b600084815260208190526040902054600160a01b900460ff161561096a5760405162461bcd60e51b815260206004820152601960248201527f44657669636520616c7265616479207265676973746572656400000000000000604482015260640161043c565b4261097481610f32565b61097f86600661105e565b60405160200161099092919061189c565b6040516020818303038152906040529250826040516020016109b291906118e9565b60408051601f1981840301815260e08301825233835260016020848101828152858501878152606087018a815260808801869052600060a0890181905260c089018190528d815293849052959092208651815492511515600160a01b026001600160a81b03199093166001600160a01b03919091161791909117815590519181019190915591519094506002820190610a4b908261196c565b5060808201516003820190610a60908261196c565b5060a0820151600482015560c0909101516005909101805460ff191691151591909117905533600090815260026020908152604082208054600181018255908352908220018690556007805491610ab683611a42565b9190505550336001600160a01b0316857f0d18544f38c8d77edc56940f19647a52292275af52b8988f930f487ecda32915838686604051610af993929190611a5b565b60405180910390a3509250929050565b6000602081905290815260409020805460018201546002830180546001600160a01b03841694600160a01b90940460ff16939190610b4690611868565b80601f0160208091040260200160405190810160405280929190818152602001828054610b7290611868565b8015610bbf5780601f10610b9457610100808354040283529160200191610bbf565b820191906000526020600020905b815481529060010190602001808311610ba257829003601f168201915b505050505090806003018054610bd490611868565b80601f0160208091040260200160405190810160405280929190818152602001828054610c0090611868565b8015610c4d5780601f10610c2257610100808354040283529160200191610c4d565b820191906000526020600020905b815481529060010190602001808311610c3057829003601f168201915b50505050600483015460059093015491929160ff16905087565b60026020528160005260406000208181548110610c8357600080fd5b90600052602060002001600091509150505481565b60008381526020819052604081205481908590600160a01b900460ff16610cf95760405162461bcd60e51b815260206004820152601560248201527411195d9a58d9481b9bdd081c9959da5cdd195c9959605a1b604482015260640161043c565b600454341015610d4b5760405162461bcd60e51b815260206004820152601d60248201527f496e73756666696369656e7420766572696669636174696f6e20666565000000604482015260640161043c565b8351602085015160408601516060870151898414610da05760405162461bcd60e51b8152602060048201526012602482015271088caecd2c6ca40928840dad2e6dac2e8c6d60731b604482015260640161043c565b6000610dac8a8a61111d565b905080610df05760405162461bcd60e51b815260206004820152601260248201527124b73b30b634b2102737bb3090383937b7b360711b604482015260640161043c565b6000610dfc84846111f9565b90508015156001861414610e525760405162461bcd60e51b815260206004820152601e60248201527f50726f78696d69747920636f6e73747261696e742076696f6c6174696f6e0000604482015260640161043c565b60008c8152602081905260408120600501805460ff191660011790556008805491610e7c83611a42565b91905055508015610eda576005549750876000808e81526020019081526020016000206004016000828254610eb19190611aa6565b909155505060008c815260016020526040812080548a9290610ed4908490611aa6565b90915550505b604080518215158152602081018a90524281830152905133918e917fde1affd47ae63aff2bfecaeeeac9c270ac8c3188f312816c582fb422c39da6ce9181900360600190a36001985050505050505050935093915050565b606081600003610f595750506040805180820190915260018152600360fc1b602082015290565b8160005b8115610f835780610f6d81611a42565b9150610f7c9050600a83611ab9565b9150610f5d565b60008167ffffffffffffffff811115610f9e57610f9e6113f3565b6040519080825280601f01601f191660200182016040528015610fc8576020820181803683370190505b509050815b851561105557610fde600182611adb565b90506000610fed600a88611ab9565b610ff890600a611aee565b6110029088611adb565b61100d906030611b05565b905060008160f81b90508084848151811061102a5761102a611a90565b60200101906001600160f81b031916908160001a90535061104c600a89611ab9565b97505050610fcd565b50949350505050565b606060008260ff1667ffffffffffffffff81111561107e5761107e6113f3565b6040519080825280601f01601f1916602001820160405280156110a8576020820181803683370190505b50905060005b8360ff168160ff16101561111357848160ff16602081106110d1576110d1611a90565b1a60f81b828260ff16815181106110ea576110ea611a90565b60200101906001600160f81b031916908160001a9053508061110b81611b1e565b9150506110ae565b5090505b92915050565b60006127108260026020020151118061113b57506060820151612710105b1561114857506000611117565b82515160009015158061115f575083516020015115155b8061116e575083516040015115155b8061117d575060208401515115155b8061118e5750602084810151015115155b8061119d575060408401515115155b806111af575060408401516020015115155b806111be575060808401515115155b806111d0575060808401516020015115155b806111df575060c08401515115155b806111f1575060c08401516020015115155b949350505050565b60008061120861138885611b3d565b9050600061121861138885611b3d565b905060006112268280611b64565b6112308480611b64565b61123a9190611b94565b90506000611249606480611aee565b909111159695505050505050565b80356001600160a01b038116811461126e57600080fd5b919050565b60006020828403121561128557600080fd5b61128e82611257565b9392505050565b6020808252825182820181905260009190848201906040850190845b818110156112cd578351835292840192918401916001016112b1565b50909695505050505050565b6000806000606084860312156112ee57600080fd5b505081359360208301359350604090920135919050565b60006020828403121561131757600080fd5b5035919050565b60005b83811015611339578181015183820152602001611321565b50506000910152565b6000815180845261135a81602086016020860161131e565b601f01601f19169290920160200192915050565b6020815260018060a01b038251166020820152602082015115156040820152604082015160608201526000606083015160e060808401526113b3610100840182611342565b90506080840151601f198483030160a08501526113d08282611342565b91505060a084015160c084015260c0840151151560e08401528091505092915050565b634e487b7160e01b600052604160045260246000fd5b604051610120810167ffffffffffffffff8111828210171561142d5761142d6113f3565b60405290565b6040805190810167ffffffffffffffff8111828210171561142d5761142d6113f3565b604051601f8201601f1916810167ffffffffffffffff8111828210171561147f5761147f6113f3565b604052919050565b6000806040838503121561149a57600080fd5b8235915060208084013567ffffffffffffffff808211156114ba57600080fd5b818601915086601f8301126114ce57600080fd5b8135818111156114e0576114e06113f3565b6114f2601f8201601f19168501611456565b9150808252878482850101111561150857600080fd5b80848401858401376000848284010152508093505050509250929050565b6040815260006115396040830185611342565b828103602084015261154b8185611342565b95945050505050565b60018060a01b0388168152861515602082015285604082015260e06060820152600061158360e0830187611342565b82810360808401526115958187611342565b60a0840195909552505090151560c09091015295945050505050565b600080604083850312156115c457600080fd5b6115cd83611257565b946020939093013593505050565b600082601f8301126115ec57600080fd5b6040516060810181811067ffffffffffffffff8211171561160f5761160f6113f3565b60405280606084018581111561162457600080fd5b845b8181101561163e578035835260209283019201611626565b509195945050505050565b600082601f83011261165a57600080fd5b6040516080810181811067ffffffffffffffff8211171561167d5761167d6113f3565b60405280608084018581111561162457600080fd5b600082601f8301126116a357600080fd5b6116ab611433565b8060408401858111156116bd57600080fd5b845b818110156116d75780358452602093840193016116bf565b509095945050505050565b600082601f8301126116f357600080fd5b6116fb611433565b80608084018581111561170d57600080fd5b845b818110156116d7576117218782611692565b845260209093019260400161170f565b600080600083850361042081121561174857600080fd5b84359350610380601f198201121561175f57600080fd5b50611768611409565b61177586602087016115db565b81526117848660808701611649565b602082015261010061179887828801611692565b60408301526117ab8761014088016115db565b60608301526117be876101a08801611692565b60808301526117d1876101e088016116e2565b60a08301526117e4876102608801611692565b60c08301526117f7876102a08801611649565b60e083015261180a8761032088016116e2565b90820152915061181e856103a08601611649565b90509250925092565b60208082526021908201527f4f6e6c79206f776e65722063616e2063616c6c20746869732066756e6374696f6040820152603760f91b606082015260800190565b600181811c9082168061187c57607f821691505b6020821081036108a957634e487b7160e01b600052602260045260246000fd5b64494f54582d60d81b8152600083516118bc81600585016020880161131e565b602d60f81b60059184019182015283516118dd81600684016020880161131e565b01600601949350505050565b6b3234b21d34b79d34b7ba3c1d60a11b81526000825161191081600c85016020870161131e565b91909101600c0192915050565b601f82111561196757600081815260208120601f850160051c810160208610156119445750805b601f850160051c820191505b8181101561196357828155600101611950565b5050505b505050565b815167ffffffffffffffff811115611986576119866113f3565b61199a816119948454611868565b8461191d565b602080601f8311600181146119cf57600084156119b75750858301515b600019600386901b1c1916600185901b178555611963565b600085815260208120601f198616915b828110156119fe578886015182559484019460019091019084016119df565b5085821015611a1c5787850151600019600388901b60f8161c191681555b5050505050600190811b01905550565b634e487b7160e01b600052601160045260246000fd5b600060018201611a5457611a54611a2c565b5060010190565b838152606060208201526000611a746060830185611342565b8281036040840152611a868185611342565b9695505050505050565b634e487b7160e01b600052603260045260246000fd5b8082018082111561111757611117611a2c565b600082611ad657634e487b7160e01b600052601260045260246000fd5b500490565b8181038181111561111757611117611a2c565b808202811582820484141761111757611117611a2c565b60ff818116838216019081111561111757611117611a2c565b600060ff821660ff8103611b3457611b34611a2c565b60010192915050565b8181036000831280158383131683831282161715611b5d57611b5d611a2c565b5092915050565b80820260008212600160ff1b84141615611b8057611b80611a2c565b818105831482151761111757611117611a2c565b8082018281126000831280158216821582161715611bb457611bb4611a2c565b50509291505056fea264697066735822122035af9e13f84a227c277e8bca326c14eedbfd3a562ddf7cc27a1349fa96d829b664736f6c63430008130033",
  "linkReferences": {},
  "deployedLinkReferences": {}
}