{
  "_format": "hh-sol-artifact-1",
  "contractName": "Groth16Verifier",
  "sourceName": "contracts/RealProofOfProofVerifier.sol",
  "abi": [
    {
      "inputs": [
        {
          "internalType": "uint256[2]",
          "name": "_pA",
          "type": "uint256[2]"
        },
        {
          "internalType": "uint256[2][2]",
          "name": "_pB",
          "type": "uint256[2][2]"
        },
        {
          "internalType": "uint256[2]",
          "name": "_pC",
          "type": "uint256[2]"
        },
        {
          "internalType": "uint256[6]",
          "name": "_pubSignals",
          "type": "uint256[6]"
        }
      ],
      "name": "verifyProof",
      "outputs": [
        {
          "internalType": "bool",
          "name": "",
          "type": "bool"
        }
      ],
      "stateMutability": "view",
      "type": "function"
    }
  ],
  "bytecode": "0x608060405234801561001057600080fd5b5061072e806100206000396000f3fe608060405234801561001057600080fd5b506004361061002b5760003560e01c8063f398789b14610030575b600080fd5b61004361003e366004610692565b610057565b604051901515815260200160405180910390f35b6000610609565b7f30644e72e131a029b85045b68181585d2833e84879b9709143e1f593f0000001811061008f576000805260206000f35b50565b600060405183815284602082015285604082015260408160608360076107d05a03fa9150816100c5576000805260206000f35b825160408201526020830151606082015260408360808360066107d05a03fa915050806100f6576000805260206000f35b5050505050565b7f218b181a4c1f76d8bed4580bc782cb5b5fb3b904d2cdcefe20299129981c494385527f1b4a992e2d9eb261ece46b3dcef2984dc3026c8371684420ea23f479ceb81c0560208601526000608086018661019a87357f124fca3f8dfe6db9ce26d3c1e83906fdf9e63c5045d7c7f8ef9295edabc128dc7f1083f982527c13fafee7afe615b6ddeaa3afc6358a871217c752267a28a59b9484610092565b6101ea60208801357f253bd5ec84d2a2ce5a26cd890355e2826ef2cad2b10894e5e80831e79c825e437f2285b965b4d41578f5344abf607ff5862eceb8e3152fbd10ea881403927bddc184610092565b61023a60408801357f10ed564e9b842b284319e6821202149a2b635a4bbc1ede6db876ccb163c2f1897f16c74698ff288d4298a978510cd4e41dc0c4ca1147928c5b6311026338aae2fe84610092565b61028a60608801357f07f836cdacad9c8c694c8e5c7567d707be19ddfc784210b3d45971487650e27a7f12f3832bf4d6f76e0d96bdc81cbcd89761c120b495b922a00aca510e4ba89c5284610092565b6102da60808801357f26e42873aeb2a4b32c2d28587be22c48b76e4c6d61946ef66991a6f77cae60c57f10f5de5c0303222970d023f237cab1728c2f4b0e2fef74bdf8ee9c11152e797e84610092565b61032a60a08801357f0928d677c1d79b1f89148d8837c41c6e3511593ca6f1bea53dddc7f0a3ab55257f2821f7759db10680d63cb566f00b6a3158f64de601bdfb218aae5235bd02ed0c84610092565b50823581527f30644e72e131a029b85045b68181585d97816a916871ca8d3c208c16d87cfd4760208401357f30644e72e131a029b85045b68181585d97816a916871ca8d3c208c16d87cfd4703066020820152833560408201526020840135606082015260408401356080820152606084013560a08201527f2d4d9aa7e302d9df41749d5507949d05dbea33fbb16c643b22f599a2be6df2e260c08201527f14bedd503c37ceb061d8ec60209fe345ce89830a19230301f076caff004d192660e08201527f0967032fcbf776d1afc985f88877f182d38480a653f2decaa9794cbc3bf3060c6101008201527f0e187847ad4c798374d0d6732bf501847dd68bc0e071241e0213bc7fc13db7ab6101208201527f304cfbd1e08a704a99f5e847d93f8c3caafddec46b7a0d379da69a4d112346a76101408201527f1739c1b1a457a8c7313123d24d2f9192f896b7c63eea05a9d57f06547ad0cec8610160820152600087015161018082015260206000018701516101a08201527f198e9393920d483a7260bfb731fb5d25f1aa493335a9e71297e485b7aef312c26101c08201527f1800deef121f1e76426a00665e5c4479674322d4f75edadd46debd5cd992f6ed6101e08201527f090689d0585ff075ec9e99ad690c3395bc4b313370b38ef355acdadcd122975b6102008201527f12c85ea5db8c6deb4aab71808dcb408fe3d1e7690c43d37b4ce6cc0166fa7daa610220820152843561024082015260208501356102608201527f0c99663b85845d091dc7fb75ca0b3f4cd1e967acc27a0d09a6d0d76521aa4b526102808201527f2400bbb4e55c9bc740fd7bf73f5516dee4fca4eb768357faa0af4d5b28c49a956102a08201527f1b23b57a9d09948e277194588675ead3758389debcfff204c321f8426a7fc9cd6102c08201527ec461d80e554115e3b46018523a6a16af6c3ea0797d620f67ba5bc559a9c27e6102e08201526020816103008360086107d05a03fa9051169695505050505050565b6040516103808101604052610621600084013561005e565b61062e602084013561005e565b61063b604084013561005e565b610648606084013561005e565b610655608084013561005e565b61066260a084013561005e565b61066f818486888a6100fd565b90508060005260206000f35b806040810183101561068c57600080fd5b92915050565b6000806000806101c08086880312156106aa57600080fd5b6106b4878761067b565b945060c08601878111156106c757600080fd5b6040870194506106d7888261067b565b9350508681870111156106e957600080fd5b5092959194509261010001915056fea2646970667358221220eb33e99eab32333f366a69e0418e85c7c72a51965f1cb0b099a385a21799aee764736f6c63430008130033",
  "linkReferences": {},
  "deployedLinkReferences": {}
}