{
  "_format": "hh-sol-artifact-1",
  "contractName": "IoTeXDeviceVerifierMockSimple",
  "sourceName": "contracts/IoTeXDeviceVerifierMockSimple.sol",
  "abi": [
    {
      "inputs": [],
      "stateMutability": "nonpayable",
      "type": "constructor"
    },
    {
      "anonymous": false,
      "inputs": [
        {
          "indexed": true,
          "internalType": "bytes32",
          "name": "deviceId",
          "type": "bytes32"
        },
        {
          "indexed": true,
          "internalType": "address",
          "name": "owner",
          "type": "address"
        }
      ],
      "name": "DeviceRegistered",
      "type": "event"
    },
    {
      "anonymous": false,
      "inputs": [
        {
          "indexed": true,
          "internalType": "bytes32",
          "name": "deviceId",
          "type": "bytes32"
        },
        {
          "indexed": false,
          "internalType": "uint256",
          "name": "proofId",
          "type": "uint256"
        },
        {
          "indexed": false,
          "internalType": "uint256",
          "name": "timestamp",
          "type": "uint256"
        }
      ],
      "name": "ProximityVerified",
      "type": "event"
    },
    {
      "anonymous": false,
      "inputs": [
        {
          "indexed": true,
          "internalType": "bytes32",
          "name": "deviceId",
          "type": "bytes32"
        },
        {
          "indexed": true,
          "internalType": "address",
          "name": "owner",
          "type": "address"
        },
        {
          "indexed": false,
          "internalType": "uint256",
          "name": "amount",
          "type": "uint256"
        }
      ],
      "name": "RewardsClaimed",
      "type": "event"
    },
    {
      "inputs": [
        {
          "internalType": "bytes32",
          "name": "deviceId",
          "type": "bytes32"
        }
      ],
      "name": "claimRewards",
      "outputs": [],
      "stateMutability": "nonpayable",
      "type": "function"
    },
    {
      "inputs": [
        {
          "internalType": "bytes32",
          "name": "",
          "type": "bytes32"
        }
      ],
      "name": "deviceRewards",
      "outputs": [
        {
          "internalType": "uint256",
          "name": "",
          "type": "uint256"
        }
      ],
      "stateMutability": "view",
      "type": "function"
    },
    {
      "inputs": [
        {
          "internalType": "bytes32",
          "name": "",
          "type": "bytes32"
        }
      ],
      "name": "devices",
      "outputs": [
        {
          "internalType": "address",
          "name": "owner",
          "type": "address"
        },
        {
          "internalType": "bool",
          "name": "registered",
          "type": "bool"
        },
        {
          "internalType": "uint256",
          "name": "registrationTime",
          "type": "uint256"
        },
        {
          "internalType": "uint256",
          "name": "lastProximityProof",
          "type": "uint256"
        }
      ],
      "stateMutability": "view",
      "type": "function"
    },
    {
      "inputs": [],
      "name": "fundRewardPool",
      "outputs": [],
      "stateMutability": "payable",
      "type": "function"
    },
    {
      "inputs": [
        {
          "internalType": "bytes32",
          "name": "deviceId",
          "type": "bytes32"
        }
      ],
      "name": "getDeviceInfo",
      "outputs": [
        {
          "internalType": "address",
          "name": "deviceOwner",
          "type": "address"
        },
        {
          "internalType": "bool",
          "name": "registered",
          "type": "bool"
        },
        {
          "internalType": "uint256",
          "name": "registrationTime",
          "type": "uint256"
        },
        {
          "internalType": "uint256",
          "name": "lastProximityProof",
          "type": "uint256"
        },
        {
          "internalType": "uint256",
          "name": "pendingRewards",
          "type": "uint256"
        }
      ],
      "stateMutability": "view",
      "type": "function"
    },
    {
      "inputs": [],
      "name": "owner",
      "outputs": [
        {
          "internalType": "address",
          "name": "",
          "type": "address"
        }
      ],
      "stateMutability": "view",
      "type": "function"
    },
    {
      "inputs": [
        {
          "internalType": "bytes32",
          "name": "deviceId",
          "type": "bytes32"
        },
        {
          "internalType": "address",
          "name": "deviceOwner",
          "type": "address"
        }
      ],
      "name": "registerDevice",
      "outputs": [],
      "stateMutability": "nonpayable",
      "type": "function"
    },
    {
      "inputs": [],
      "name": "rewardPool",
      "outputs": [
        {
          "internalType": "uint256",
          "name": "",
          "type": "uint256"
        }
      ],
      "stateMutability": "view",
      "type": "function"
    },
    {
      "inputs": [],
      "name": "totalRewardsDistributed",
      "outputs": [
        {
          "internalType": "uint256",
          "name": "",
          "type": "uint256"
        }
      ],
      "stateMutability": "view",
      "type": "function"
    },
    {
      "inputs": [
        {
          "internalType": "uint256[3]",
          "name": "i_z0_zi",
          "type": "uint256[3]"
        },
        {
          "internalType": "uint256[4]",
          "name": "U_i_cmW_U_i_cmE",
          "type": "uint256[4]"
        },
        {
          "internalType": "uint256[2]",
          "name": "u_i_cmW",
          "type": "uint256[2]"
        },
        {
          "internalType": "uint256[3]",
          "name": "cmT_r",
          "type": "uint256[3]"
        },
        {
          "internalType": "uint256[2]",
          "name": "pA",
          "type": "uint256[2]"
        },
        {
          "internalType": "uint256[2][2]",
          "name": "pB",
          "type": "uint256[2][2]"
        },
        {
          "internalType": "uint256[2]",
          "name": "pC",
          "type": "uint256[2]"
        },
        {
          "internalType": "uint256[4]",
          "name": "challenge_W_challenge_E_kzg_evals",
          "type": "uint256[4]"
        },
        {
          "internalType": "uint256[2][2]",
          "name": "kzg_proof",
          "type": "uint256[2][2]"
        },
        {
          "internalType": "bytes32",
          "name": "deviceId",
          "type": "bytes32"
        },
        {
          "internalType": "uint256",
          "name": "proofId",
          "type": "uint256"
        }
      ],
      "name": "verifyDeviceProximity",
      "outputs": [
        {
          "internalType": "bool",
          "name": "",
          "type": "bool"
        }
      ],
      "stateMutability": "nonpayable",
      "type": "function"
    },
    {
      "stateMutability": "payable",
      "type": "receive"
    }
  ],
  "bytecode": "0x608060405234801561001057600080fd5b50600480546001600160a01b031916331790556109e5806100326000396000f3fe6080604052600436106100955760003560e01c80638da5cb5b116100595780638da5cb5b146101ef578063c5c400de14610227578063e10028ab146102a2578063ee172546146102cf578063fc202261146102e557600080fd5b806320828339146100b95780635843802c146100c357806359d902ed146100f857806366666aa9146101ab5780637790ddc6146101cf57600080fd5b366100b45734600360008282546100ac919061081e565b925050819055005b600080fd5b6100c1610305565b005b3480156100cf57600080fd5b506100e36100de366004610864565b61031e565b60405190151581526020015b60405180910390f35b34801561010457600080fd5b50610179610113366004610930565b600081815260208181526040808320815160808101835281546001600160a01b038116808352600160a01b90910460ff16151582860181905260018085015484870181905260029095015460609094018490529787529690945291909320549194909190565b604080516001600160a01b0390961686529315156020860152928401919091526060830152608082015260a0016100ef565b3480156101b757600080fd5b506101c160035481565b6040519081526020016100ef565b3480156101db57600080fd5b506100c16101ea366004610930565b610516565b3480156101fb57600080fd5b5060045461020f906001600160a01b031681565b6040516001600160a01b0390911681526020016100ef565b34801561023357600080fd5b50610278610242366004610930565b6000602081905290815260409020805460018201546002909201546001600160a01b03821692600160a01b90920460ff16919084565b604080516001600160a01b03909516855292151560208501529183015260608201526080016100ef565b3480156102ae57600080fd5b506101c16102bd366004610930565b60016020526000908152604090205481565b3480156102db57600080fd5b506101c160025481565b3480156102f157600080fd5b506100c1610300366004610949565b610684565b3460036000828254610317919061081e565b9091555050565b600082815260208190526040812054600160a01b900460ff166103795760405162461bcd60e51b815260206004820152600e60248201526d139bdd081c9959da5cdd195c995960921b60448201526064015b60405180910390fd5b8b3560208d01358115158061038e5750600081115b6103d05760405162461bcd60e51b8152602060048201526013602482015272496e76616c696420636f6f7264696e6174657360681b6044820152606401610370565b89351515806103e2575060208a013515155b61041e5760405162461bcd60e51b815260206004820152600d60248201526c24b73b30b634b210383937b7b360991b6044820152606401610370565b600061042a8383610781565b60008781526020819052604090204260029091015590508080156104575750662386f26fc1000060035410155b156104c75760008681526001602052604081208054662386f26fc10000929061048190849061081e565b92505081905550662386f26fc10000600360008282546104a19190610985565b92505081905550662386f26fc10000600260008282546104c1919061081e565b90915550505b6040805186815242602082015287917f267b87a089a59010a5f6487a568b9a98c82616014f9580beb9efb4d04467d257910160405180910390a25060019e9d5050505050505050505050505050565b6000818152602081905260409020546001600160a01b031633146105685760405162461bcd60e51b81526020600482015260096024820152682737ba1037bbb732b960b91b6044820152606401610370565b600081815260016020526040902054806105b15760405162461bcd60e51b815260206004820152600a6024820152694e6f207265776172647360b01b6044820152606401610370565b60008281526001602052604080822082905551339083908381818185875af1925050503d8060008114610600576040519150601f19603f3d011682016040523d82523d6000602084013e610605565b606091505b50509050806106485760405162461bcd60e51b815260206004820152600f60248201526e151c985b9cd9995c8819985a5b1959608a1b6044820152606401610370565b604051828152339084907ffec539b3c42d74cd492c3ecf7966bf014b327beef98e935cdc3ec5e54a6901c79060200160405180910390a3505050565b600082815260208190526040902054600160a01b900460ff16156106df5760405162461bcd60e51b8152602060048201526012602482015271105b1c9958591e481c9959da5cdd195c995960721b6044820152606401610370565b604080516080810182526001600160a01b0380841680835260016020808501828152428688019081526000606088018181528b8252938190528881209751885493511515600160a01b026001600160a81b03199094169716969096179190911786555191850191909155516002909301929092559151909184917fd87fed90c1b7378fc9b09cc6f641d001f9d1fdf09b533c90195d4204209d4b839190a35050565b6000611388806064838287116107a05761079b8785610985565b6107aa565b6107aa8488610985565b905060008387116107c4576107bf8785610985565b6107ce565b6107ce8488610985565b90506107da8380610998565b6107e48280610998565b6107ee8480610998565b6107f8919061081e565b1115955050505050505b92915050565b634e487b7160e01b600052601160045260246000fd5b8082018082111561080257610802610808565b806060810183101561080257600080fd5b806080810183101561080257600080fd5b806040810183101561080257600080fd5b60008060008060008060008060008060006103c08c8e03121561088657600080fd5b6108908d8d610831565b9a5061089f8d60608e01610842565b99506108ae8d60e08e01610853565b98506108be8d6101208e01610831565b97506108ce8d6101808e01610853565b96506108de8d6101c08e01610842565b95506108ee8d6102408e01610853565b94506108fe8d6102808e01610842565b935061090e8d6103008e01610842565b92506103808c013591506103a08c013590509295989b509295989b9093969950565b60006020828403121561094257600080fd5b5035919050565b6000806040838503121561095c57600080fd5b8235915060208301356001600160a01b038116811461097a57600080fd5b809150509250929050565b8181038181111561080257610802610808565b80820281158282048414176108025761080261080856fea2646970667358221220473eedb6745211073d97fb33cf0dfced6be0cecbc19d6b462a23a7963d11232a64736f6c63430008130033",
  "linkReferences": {},
  "deployedLinkReferences": {}
}